{
  "contractName": "GameStates",
  "abi": [
    {
      "inputs": [],
      "stateMutability": "nonpayable",
      "type": "constructor"
    },
    {
      "inputs": [
        {
          "internalType": "address",
          "name": "",
          "type": "address"
        }
      ],
      "name": "addressPlayed",
      "outputs": [
        {
          "internalType": "uint256",
          "name": "",
          "type": "uint256"
        }
      ],
      "stateMutability": "view",
      "type": "function",
      "constant": true
    },
    {
      "inputs": [
        {
          "components": [
            {
              "internalType": "enum Utils.StatesTypes",
              "name": "state",
              "type": "uint8"
            },
            {
              "internalType": "address",
              "name": "voting",
              "type": "address"
            },
            {
              "components": [
                {
                  "internalType": "uint256",
                  "name": "health",
                  "type": "uint256"
                },
                {
                  "internalType": "string[]",
                  "name": "weapons",
                  "type": "string[]"
                }
              ],
              "internalType": "struct Utils.Player",
              "name": "player",
              "type": "tuple"
            },
            {
              "components": [
                {
                  "internalType": "string",
                  "name": "name",
                  "type": "string"
                },
                {
                  "internalType": "string[]",
                  "name": "enemies",
                  "type": "string[]"
                }
              ],
              "internalType": "struct Utils.Level",
              "name": "level",
              "type": "tuple"
            },
            {
              "internalType": "string",
              "name": "enemy",
              "type": "string"
            },
            {
              "components": [
                {
                  "internalType": "enum Utils.OptionTypes",
                  "name": "optionType",
                  "type": "uint8"
                },
                {
                  "internalType": "bytes",
                  "name": "data",
                  "type": "bytes"
                },
                {
                  "internalType": "bytes32",
                  "name": "option",
                  "type": "bytes32"
                }
              ],
              "internalType": "struct Utils.Option[]",
              "name": "options",
              "type": "tuple[]"
            }
          ],
          "internalType": "struct Utils.State",
          "name": "newState",
          "type": "tuple"
        }
      ],
      "name": "changeState",
      "outputs": [],
      "stateMutability": "nonpayable",
      "type": "function"
    },
    {
      "inputs": [],
      "name": "closeVoting",
      "outputs": [],
      "stateMutability": "nonpayable",
      "type": "function"
    },
    {
      "inputs": [],
      "name": "getVotingWinner",
      "outputs": [
        {
          "components": [
            {
              "internalType": "enum Utils.OptionTypes",
              "name": "optionType",
              "type": "uint8"
            },
            {
              "internalType": "bytes",
              "name": "data",
              "type": "bytes"
            },
            {
              "internalType": "bytes32",
              "name": "option",
              "type": "bytes32"
            }
          ],
          "internalType": "struct Utils.Option",
          "name": "",
          "type": "tuple"
        }
      ],
      "stateMutability": "view",
      "type": "function",
      "constant": true
    },
    {
      "inputs": [],
      "name": "getGameStates",
      "outputs": [
        {
          "components": [
            {
              "internalType": "enum Utils.StatesTypes",
              "name": "state",
              "type": "uint8"
            },
            {
              "internalType": "address",
              "name": "voting",
              "type": "address"
            },
            {
              "components": [
                {
                  "internalType": "uint256",
                  "name": "health",
                  "type": "uint256"
                },
                {
                  "internalType": "string[]",
                  "name": "weapons",
                  "type": "string[]"
                }
              ],
              "internalType": "struct Utils.Player",
              "name": "player",
              "type": "tuple"
            },
            {
              "components": [
                {
                  "internalType": "string",
                  "name": "name",
                  "type": "string"
                },
                {
                  "internalType": "string[]",
                  "name": "enemies",
                  "type": "string[]"
                }
              ],
              "internalType": "struct Utils.Level",
              "name": "level",
              "type": "tuple"
            },
            {
              "internalType": "string",
              "name": "enemy",
              "type": "string"
            },
            {
              "components": [
                {
                  "internalType": "enum Utils.OptionTypes",
                  "name": "optionType",
                  "type": "uint8"
                },
                {
                  "internalType": "bytes",
                  "name": "data",
                  "type": "bytes"
                },
                {
                  "internalType": "bytes32",
                  "name": "option",
                  "type": "bytes32"
                }
              ],
              "internalType": "struct Utils.Option[]",
              "name": "options",
              "type": "tuple[]"
            }
          ],
          "internalType": "struct Utils.State[]",
          "name": "",
          "type": "tuple[]"
        }
      ],
      "stateMutability": "view",
      "type": "function",
      "constant": true
    },
    {
      "inputs": [],
      "name": "getCurrentState",
      "outputs": [
        {
          "components": [
            {
              "internalType": "enum Utils.StatesTypes",
              "name": "state",
              "type": "uint8"
            },
            {
              "internalType": "address",
              "name": "voting",
              "type": "address"
            },
            {
              "components": [
                {
                  "internalType": "uint256",
                  "name": "health",
                  "type": "uint256"
                },
                {
                  "internalType": "string[]",
                  "name": "weapons",
                  "type": "string[]"
                }
              ],
              "internalType": "struct Utils.Player",
              "name": "player",
              "type": "tuple"
            },
            {
              "components": [
                {
                  "internalType": "string",
                  "name": "name",
                  "type": "string"
                },
                {
                  "internalType": "string[]",
                  "name": "enemies",
                  "type": "string[]"
                }
              ],
              "internalType": "struct Utils.Level",
              "name": "level",
              "type": "tuple"
            },
            {
              "internalType": "string",
              "name": "enemy",
              "type": "string"
            },
            {
              "components": [
                {
                  "internalType": "enum Utils.OptionTypes",
                  "name": "optionType",
                  "type": "uint8"
                },
                {
                  "internalType": "bytes",
                  "name": "data",
                  "type": "bytes"
                },
                {
                  "internalType": "bytes32",
                  "name": "option",
                  "type": "bytes32"
                }
              ],
              "internalType": "struct Utils.Option[]",
              "name": "options",
              "type": "tuple[]"
            }
          ],
          "internalType": "struct Utils.State",
          "name": "",
          "type": "tuple"
        }
      ],
      "stateMutability": "view",
      "type": "function",
      "constant": true
    }
  ],
  "bytecode": "0x60806040526001600060146101000a81548160ff02191690831515021790555034801561002b57600080fd5b50336000806101000a81548173ffffffffffffffffffffffffffffffffffffffff021916908373ffffffffffffffffffffffffffffffffffffffff160217905550614dfa8061007b6000396000f3fe60806040523480156200001157600080fd5b50600436106200006a5760003560e01c80630abcdf94146200006f57806311d69a371462000091578063378aa70114620000c757806394bec07114620000e9578063c631b292146200010b578063e1e11ffd1462000117575b600080fd5b6200007962000137565b60405162000088919062003280565b60405180910390f35b620000af6004803603810190620000a99190620028c4565b62000731565b604051620000be919062003330565b60405180910390f35b620000d162000749565b604051620000e091906200330c565b60405180910390f35b620000f362000cfe565b604051620001029190620032e8565b60405180910390f35b620001156200114d565b005b6200013560048036038101906200012f9190620029a6565b620014c0565b005b60606008805480602002602001604051908101604052809291908181526020016000905b828210156200072857838290600052602060002090600702016040518060c00160405290816000820160009054906101000a900460ff166003811115620001cb577f4e487b7100000000000000000000000000000000000000000000000000000000600052602160045260246000fd5b600381111562000204577f4e487b7100000000000000000000000000000000000000000000000000000000600052602160045260246000fd5b81526020016000820160019054906101000a900473ffffffffffffffffffffffffffffffffffffffff1673ffffffffffffffffffffffffffffffffffffffff1673ffffffffffffffffffffffffffffffffffffffff168152602001600182016040518060400160405290816000820154815260200160018201805480602002602001604051908101604052809291908181526020016000905b8282101562000353578382906000526020600020018054620002bf9062003787565b80601f0160208091040260200160405190810160405280929190818152602001828054620002ed9062003787565b80156200033e5780601f1062000312576101008083540402835291602001916200033e565b820191906000526020600020905b8154815290600101906020018083116200032057829003601f168201915b5050505050815260200190600101906200029d565b5050505081525050815260200160038201604051806040016040529081600082018054620003819062003787565b80601f0160208091040260200160405190810160405280929190818152602001828054620003af9062003787565b8015620004005780601f10620003d45761010080835404028352916020019162000400565b820191906000526020600020905b815481529060010190602001808311620003e257829003601f168201915b5050505050815260200160018201805480602002602001604051908101604052809291908181526020016000905b82821015620004e4578382906000526020600020018054620004509062003787565b80601f01602080910402602001604051908101604052809291908181526020018280546200047e9062003787565b8015620004cf5780601f10620004a357610100808354040283529160200191620004cf565b820191906000526020600020905b815481529060010190602001808311620004b157829003601f168201915b5050505050815260200190600101906200042e565b50505050815250508152602001600582018054620005029062003787565b80601f0160208091040260200160405190810160405280929190818152602001828054620005309062003787565b8015620005815780601f10620005555761010080835404028352916020019162000581565b820191906000526020600020905b8154815290600101906020018083116200056357829003601f168201915b5050505050815260200160068201805480602002602001604051908101604052809291908181526020016000905b828210156200071057838290600052602060002090600302016040518060600160405290816000820160009054906101000a900460ff1660038111156200061f577f4e487b7100000000000000000000000000000000000000000000000000000000600052602160045260246000fd5b600381111562000658577f4e487b7100000000000000000000000000000000000000000000000000000000600052602160045260246000fd5b81526020016001820180546200066e9062003787565b80601f01602080910402602001604051908101604052809291908181526020018280546200069c9062003787565b8015620006ed5780601f10620006c157610100808354040283529160200191620006ed565b820191906000526020600020905b815481529060010190602001808311620006cf57829003601f168201915b5050505050815260200160028201548152505081526020019060010190620005af565b5050505081525050815260200190600101906200015b565b50505050905090565b600a6020528060005260406000206000915090505481565b6200075362001bb1565b60016040518060c00160405290816000820160009054906101000a900460ff166003811115620007ac577f4e487b7100000000000000000000000000000000000000000000000000000000600052602160045260246000fd5b6003811115620007e5577f4e487b7100000000000000000000000000000000000000000000000000000000600052602160045260246000fd5b81526020016000820160019054906101000a900473ffffffffffffffffffffffffffffffffffffffff1673ffffffffffffffffffffffffffffffffffffffff1673ffffffffffffffffffffffffffffffffffffffff168152602001600182016040518060400160405290816000820154815260200160018201805480602002602001604051908101604052809291908181526020016000905b8282101562000934578382906000526020600020018054620008a09062003787565b80601f0160208091040260200160405190810160405280929190818152602001828054620008ce9062003787565b80156200091f5780601f10620008f3576101008083540402835291602001916200091f565b820191906000526020600020905b8154815290600101906020018083116200090157829003601f168201915b5050505050815260200190600101906200087e565b5050505081525050815260200160038201604051806040016040529081600082018054620009629062003787565b80601f0160208091040260200160405190810160405280929190818152602001828054620009909062003787565b8015620009e15780601f10620009b557610100808354040283529160200191620009e1565b820191906000526020600020905b815481529060010190602001808311620009c357829003601f168201915b5050505050815260200160018201805480602002602001604051908101604052809291908181526020016000905b8282101562000ac557838290600052602060002001805462000a319062003787565b80601f016020809104026020016040519081016040528092919081815260200182805462000a5f9062003787565b801562000ab05780601f1062000a845761010080835404028352916020019162000ab0565b820191906000526020600020905b81548152906001019060200180831162000a9257829003601f168201915b50505050508152602001906001019062000a0f565b5050505081525050815260200160058201805462000ae39062003787565b80601f016020809104026020016040519081016040528092919081815260200182805462000b119062003787565b801562000b625780601f1062000b365761010080835404028352916020019162000b62565b820191906000526020600020905b81548152906001019060200180831162000b4457829003601f168201915b5050505050815260200160068201805480602002602001604051908101604052809291908181526020016000905b8282101562000cf157838290600052602060002090600302016040518060600160405290816000820160009054906101000a900460ff16600381111562000c00577f4e487b7100000000000000000000000000000000000000000000000000000000600052602160045260246000fd5b600381111562000c39577f4e487b7100000000000000000000000000000000000000000000000000000000600052602160045260246000fd5b815260200160018201805462000c4f9062003787565b80601f016020809104026020016040519081016040528092919081815260200182805462000c7d9062003787565b801562000cce5780601f1062000ca25761010080835404028352916020019162000cce565b820191906000526020600020905b81548152906001019060200180831162000cb057829003601f168201915b505050505081526020016002820154815250508152602001906001019062000b90565b5050505081525050905090565b62000d0862001c46565b6000600960009054906101000a900473ffffffffffffffffffffffffffffffffffffffff1673ffffffffffffffffffffffffffffffffffffffff16638e7ea5b26040518163ffffffff1660e01b815260040160206040518083038186803b15801562000d7357600080fd5b505afa15801562000d88573d6000803e3d6000fd5b505050506040513d601f19601f8201168201806040525081019062000dae91906200297a565b905060005b60016006018054905081101562000fc057816001600601828154811062000e03577f4e487b7100000000000000000000000000000000000000000000000000000000600052603260045260246000fd5b906000526020600020906003020160020154141562000faa576001600601818154811062000e5a577f4e487b7100000000000000000000000000000000000000000000000000000000600052603260045260246000fd5b90600052602060002090600302016040518060600160405290816000820160009054906101000a900460ff16600381111562000ebf577f4e487b7100000000000000000000000000000000000000000000000000000000600052602160045260246000fd5b600381111562000ef8577f4e487b7100000000000000000000000000000000000000000000000000000000600052602160045260246000fd5b815260200160018201805462000f0e9062003787565b80601f016020809104026020016040519081016040528092919081815260200182805462000f3c9062003787565b801562000f8d5780601f1062000f615761010080835404028352916020019162000f8d565b820191906000526020600020905b81548152906001019060200180831162000f6f57829003601f168201915b50505050508152602001600282015481525050925050506200114a565b808062000fb790620037f9565b91505062000db3565b50600160060160008154811062001000577f4e487b7100000000000000000000000000000000000000000000000000000000600052603260045260246000fd5b90600052602060002090600302016040518060600160405290816000820160009054906101000a900460ff16600381111562001065577f4e487b7100000000000000000000000000000000000000000000000000000000600052602160045260246000fd5b60038111156200109e577f4e487b7100000000000000000000000000000000000000000000000000000000600052602160045260246000fd5b8152602001600182018054620010b49062003787565b80601f0160208091040260200160405190810160405280929190818152602001828054620010e29062003787565b8015620011335780601f10620011075761010080835404028352916020019162001133565b820191906000526020600020905b8154815290600101906020018083116200111557829003601f168201915b505050505081526020016002820154815250509150505b90565b60008054906101000a900473ffffffffffffffffffffffffffffffffffffffff1673ffffffffffffffffffffffffffffffffffffffff163373ffffffffffffffffffffffffffffffffffffffff1614620011de576040517f08c379a0000000000000000000000000000000000000000000000000000000008152600401620011d590620032a4565b60405180910390fd5b600960009054906101000a900473ffffffffffffffffffffffffffffffffffffffff1673ffffffffffffffffffffffffffffffffffffffff1663c631b2926040518163ffffffff1660e01b8152600401600060405180830381600087803b1580156200124957600080fd5b505af11580156200125e573d6000803e3d6000fd5b505050506000600960009054906101000a900473ffffffffffffffffffffffffffffffffffffffff1673ffffffffffffffffffffffffffffffffffffffff166363d28dea6040518163ffffffff1660e01b815260040160006040518083038186803b158015620012cd57600080fd5b505afa158015620012e2573d6000803e3d6000fd5b505050506040513d6000823e3d601f19601f820116820180604052508101906200130d9190620028f0565b905060005b8151811015620014bc57600960009054906101000a900473ffffffffffffffffffffffffffffffffffffffff1673ffffffffffffffffffffffffffffffffffffffff1663154573cd83838151811062001394577f4e487b7100000000000000000000000000000000000000000000000000000000600052603260045260246000fd5b60200260200101516040518263ffffffff1660e01b8152600401620013ba91906200321b565b60206040518083038186803b158015620013d357600080fd5b505afa158015620013e8573d6000803e3d6000fd5b505050506040513d601f19601f820116820180604052508101906200140e9190620029eb565b600a60008484815181106200144c577f4e487b7100000000000000000000000000000000000000000000000000000000600052603260045260246000fd5b602002602001015173ffffffffffffffffffffffffffffffffffffffff1673ffffffffffffffffffffffffffffffffffffffff16815260200190815260200160002060008282546200149f919062003634565b925050819055508080620014b390620037f9565b91505062001312565b5050565b60008054906101000a900473ffffffffffffffffffffffffffffffffffffffff1673ffffffffffffffffffffffffffffffffffffffff163373ffffffffffffffffffffffffffffffffffffffff161462001551576040517f08c379a00000000000000000000000000000000000000000000000000000000081526004016200154890620032a4565b60405180910390fd5b600060149054906101000a900460ff16620015a3576040517f08c379a00000000000000000000000000000000000000000000000000000000081526004016200159a90620032c6565b60405180910390fd5b8060000151600160000160006101000a81548160ff02191690836003811115620015f6577f4e487b7100000000000000000000000000000000000000000000000000000000600052602160045260246000fd5b02179055508060400151600180016000820151816000015560208201518160010190805190602001906200162c92919062001ca3565b509050508060600151600160030160008201518160000190805190602001906200165892919062001d0a565b5060208201518160010190805190602001906200167792919062001ca3565b509050508060800151600160050190805190602001906200169a92919062001d0a565b5060008160a001515111156200183057620016bb60018260a0015162001a86565b73__Utils_________________________________63fdc1571860016006016040518263ffffffff1660e01b8152600401620016f891906200325c565b60006040518083038186803b1580156200171157600080fd5b505af415801562001726573d6000803e3d6000fd5b505050506040513d6000823e3d601f19601f8201168201806040525081019062001751919062002935565b6040516200175f9062001d9b565b6200176b919062003238565b604051809103906000f08015801562001788573d6000803e3d6000fd5b50600960006101000a81548173ffffffffffffffffffffffffffffffffffffffff021916908373ffffffffffffffffffffffffffffffffffffffff160217905550600960009054906101000a900473ffffffffffffffffffffffffffffffffffffffff16600160000160016101000a81548173ffffffffffffffffffffffffffffffffffffffff021916908373ffffffffffffffffffffffffffffffffffffffff1602179055505b6008600190806001815401808255809150506001900390600052602060002090600702016000909190919091506000820160009054906101000a900460ff168160000160006101000a81548160ff02191690836003811115620018bc577f4e487b7100000000000000000000000000000000000000000000000000000000600052602160045260246000fd5b02179055506000820160019054906101000a900473ffffffffffffffffffffffffffffffffffffffff168160000160016101000a81548173ffffffffffffffffffffffffffffffffffffffff021916908373ffffffffffffffffffffffffffffffffffffffff16021790555060018201816001016000820154816000015560018201816001019080546200195292919062001da9565b50505060038201816003016000820181600001908054620019739062003787565b6200198092919062001e1a565b5060018201816001019080546200199992919062001da9565b5050506005820181600501908054620019b29062003787565b620019bf92919062001e1a565b506006820181600601908054620019d892919062001eb2565b50505060038081111562001a15577f4e487b7100000000000000000000000000000000000000000000000000000000600052602160045260246000fd5b600160000160009054906101000a900460ff16600381111562001a61577f4e487b7100000000000000000000000000000000000000000000000000000000600052602160045260246000fd5b141562001a835760008060146101000a81548160ff0219169083151502179055505b50565b81600601600062001a98919062001fa1565b60005b815181101562001bac578260060182828151811062001ae3577f4e487b7100000000000000000000000000000000000000000000000000000000600052603260045260246000fd5b6020026020010151908060018154018082558091505060019003906000526020600020906003020160009091909190915060008201518160000160006101000a81548160ff0219169083600381111562001b66577f4e487b7100000000000000000000000000000000000000000000000000000000600052602160045260246000fd5b0217905550602082015181600101908051906020019062001b8992919062001fc7565b50604082015181600201555050808062001ba390620037f9565b91505062001a9b565b505050565b6040518060c001604052806000600381111562001bf7577f4e487b7100000000000000000000000000000000000000000000000000000000600052602160045260246000fd5b8152602001600073ffffffffffffffffffffffffffffffffffffffff16815260200162001c2362002058565b815260200162001c3262002072565b815260200160608152602001606081525090565b60405180606001604052806000600381111562001c8c577f4e487b7100000000000000000000000000000000000000000000000000000000600052602160045260246000fd5b815260200160608152602001600080191681525090565b82805482825590600052602060002090810192821562001cf7579160200282015b8281111562001cf657825182908051906020019062001ce592919062001d0a565b509160200191906001019062001cc4565b5b50905062001d0691906200208c565b5090565b82805462001d189062003787565b90600052602060002090601f01602090048101928262001d3c576000855562001d88565b82601f1062001d5757805160ff191683800117855562001d88565b8280016001018555821562001d88579182015b8281111562001d8757825182559160200191906001019062001d6a565b5b50905062001d979190620020b4565b5090565b61140580620039c083390190565b82805482825590600052602060002090810192821562001e075760005260206000209182015b8281111562001e0657828290805462001de89062003787565b62001df592919062001e1a565b509160010191906001019062001dcf565b5b50905062001e1691906200208c565b5090565b82805462001e289062003787565b90600052602060002090601f01602090048101928262001e4c576000855562001e9f565b82601f1062001e5f578054855562001e9f565b8280016001018555821562001e9f57600052602060002091601f016020900482015b8281111562001e9e57825482559160010191906001019062001e81565b5b50905062001eae9190620020b4565b5090565b82805482825590600052602060002090600302810192821562001f8e5760005260206000209160030282015b8281111562001f8d5782826000820160009054906101000a900460ff168160000160006101000a81548160ff0219169083600381111562001f48577f4e487b7100000000000000000000000000000000000000000000000000000000600052602160045260246000fd5b0217905550600182018160010190805462001f639062003787565b62001f70929190620020d3565b506002820154816002015550509160030191906003019062001ede565b5b50905062001f9d91906200216b565b5090565b508054600082556003029060005260206000209081019062001fc491906200216b565b50565b82805462001fd59062003787565b90600052602060002090601f01602090048101928262001ff9576000855562002045565b82601f106200201457805160ff191683800117855562002045565b8280016001018555821562002045579182015b828111156200204457825182559160200191906001019062002027565b5b509050620020549190620020b4565b5090565b604051806040016040528060008152602001606081525090565b604051806040016040528060608152602001606081525090565b5b80821115620020b05760008181620020a69190620021b2565b506001016200208d565b5090565b5b80821115620020cf576000816000905550600101620020b5565b5090565b828054620020e19062003787565b90600052602060002090601f01602090048101928262002105576000855562002158565b82601f1062002118578054855562002158565b828001600101855582156200215857600052602060002091601f016020900482015b82811115620021575782548255916001019190600101906200213a565b5b509050620021679190620020b4565b5090565b5b80821115620021ae57600080820160006101000a81549060ff02191690556001820160006200219c9190620021f8565b6002820160009055506003016200216c565b5090565b508054620021c09062003787565b6000825580601f10620021d45750620021f5565b601f016020900490600052602060002090810190620021f49190620020b4565b5b50565b508054620022069062003787565b6000825580601f106200221a57506200223b565b601f0160209004906000526020600020908101906200223a9190620020b4565b5b50565b6000620022556200224f8462003381565b6200334d565b905080838252602082019050828560208602820111156200227557600080fd5b60005b85811015620022a957816200228e888262002493565b84526020840193506020830192505060018101905062002278565b5050509392505050565b6000620022ca620022c484620033b0565b6200334d565b90508083825260208201905082856020860282011115620022ea57600080fd5b60005b858110156200231e578162002303888262002575565b845260208401935060208301925050600181019050620022ed565b5050509392505050565b60006200233f6200233984620033df565b6200334d565b9050808382526020820190508260005b85811015620023835781358501620023688882620025e7565b8452602084019350602083019250506001810190506200234f565b5050509392505050565b6000620023a46200239e846200340e565b6200334d565b9050808382526020820190508260005b85811015620023e85781358501620023cd888262002699565b845260208401935060208301925050600181019050620023b4565b5050509392505050565b60006200240962002403846200343d565b6200334d565b9050828152602081018484840111156200242257600080fd5b6200242f84828562003742565b509392505050565b60006200244e620024488462003470565b6200334d565b9050828152602081018484840111156200246757600080fd5b6200247484828562003742565b509392505050565b6000813590506200248d816200394f565b92915050565b600081519050620024a4816200394f565b92915050565b600082601f830112620024bc57600080fd5b8151620024ce8482602086016200223e565b91505092915050565b600082601f830112620024e957600080fd5b8151620024fb848260208601620022b3565b91505092915050565b600082601f8301126200251657600080fd5b81356200252884826020860162002328565b91505092915050565b600082601f8301126200254357600080fd5b8135620025558482602086016200238d565b91505092915050565b6000813590506200256f8162003969565b92915050565b600081519050620025868162003969565b92915050565b600082601f8301126200259e57600080fd5b8135620025b0848260208601620023f2565b91505092915050565b600081359050620025ca8162003983565b92915050565b600081359050620025e18162003994565b92915050565b600082601f830112620025f957600080fd5b81356200260b84826020860162002437565b91505092915050565b6000604082840312156200262757600080fd5b6200263360406200334d565b9050600082013567ffffffffffffffff8111156200265057600080fd5b6200265e84828501620025e7565b600083015250602082013567ffffffffffffffff8111156200267f57600080fd5b6200268d8482850162002504565b60208301525092915050565b600060608284031215620026ac57600080fd5b620026b860606200334d565b90506000620026ca84828501620025b9565b600083015250602082013567ffffffffffffffff811115620026eb57600080fd5b620026f9848285016200258c565b60208301525060406200270f848285016200255e565b60408301525092915050565b6000604082840312156200272e57600080fd5b6200273a60406200334d565b905060006200274c8482850162002896565b600083015250602082013567ffffffffffffffff8111156200276d57600080fd5b6200277b8482850162002504565b60208301525092915050565b600060c082840312156200279a57600080fd5b620027a660c06200334d565b90506000620027b884828501620025d0565b6000830152506020620027ce848285016200247c565b602083015250604082013567ffffffffffffffff811115620027ef57600080fd5b620027fd848285016200271b565b604083015250606082013567ffffffffffffffff8111156200281e57600080fd5b6200282c8482850162002614565b606083015250608082013567ffffffffffffffff8111156200284d57600080fd5b6200285b84828501620025e7565b60808301525060a082013567ffffffffffffffff8111156200287c57600080fd5b6200288a8482850162002531565b60a08301525092915050565b600081359050620028a781620039a5565b92915050565b600081519050620028be81620039a5565b92915050565b600060208284031215620028d757600080fd5b6000620028e7848285016200247c565b91505092915050565b6000602082840312156200290357600080fd5b600082015167ffffffffffffffff8111156200291e57600080fd5b6200292c84828501620024aa565b91505092915050565b6000602082840312156200294857600080fd5b600082015167ffffffffffffffff8111156200296357600080fd5b6200297184828501620024d7565b91505092915050565b6000602082840312156200298d57600080fd5b60006200299d8482850162002575565b91505092915050565b600060208284031215620029b957600080fd5b600082013567ffffffffffffffff811115620029d457600080fd5b620029e28482850162002787565b91505092915050565b600060208284031215620029fe57600080fd5b600062002a0e84828501620028ad565b91505092915050565b600062002a25838362002d18565b60208301905092915050565b600062002a3f838362002e3a565b905092915050565b600062002a55838362002f47565b905092915050565b600062002a6b838362002ff3565b905092915050565b600062002a818383620030a5565b905092915050565b62002a9481620036a8565b82525050565b62002aa581620036a8565b82525050565b600062002ab8826200350d565b62002ac481856200359b565b935062002ad183620034a3565b8060005b8381101562002b0857815162002aec888262002a17565b975062002af9836200355a565b92505060018101905062002ad5565b5085935050505092915050565b600062002b228262003518565b62002b2e8185620035ac565b93508360208202850162002b4285620034b3565b8060005b8581101562002b84578484038952815162002b62858262002a31565b945062002b6f8362003567565b925060208a0199505060018101905062002b46565b50829750879550505050505092915050565b600062002ba38262003523565b62002baf8185620035bd565b93508360208202850162002bc385620034c3565b8060005b8581101562002c05578484038952815162002be3858262002a47565b945062002bf08362003574565b925060208a0199505060018101905062002bc7565b50829750879550505050505092915050565b600062002c24826200352e565b62002c308185620035ce565b93508360208202850162002c4485620034d3565b8060005b8581101562002c855784840389528162002c63858262002a5d565b945062002c708362003581565b925060208a0199505060018101905062002c48565b50829750879550505050505092915050565b600062002ca48262003539565b62002cb08185620035df565b93508360208202850162002cc485620034e8565b8060005b8581101562002d06578484038952815162002ce4858262002a73565b945062002cf1836200358e565b925060208a0199505060018101905062002cc8565b50829750879550505050505092915050565b62002d2381620036bc565b82525050565b62002d3481620036bc565b82525050565b600062002d478262003544565b62002d538185620035f0565b935062002d6581856020860162003751565b62002d708162003903565b840191505092915050565b6000815462002d8a8162003787565b62002d96818662003601565b9450600182166000811462002db4576001811462002dc75762002dfe565b60ff198316865260208601935062002dfe565b62002dd285620034f8565b60005b8381101562002df65781548189015260018201915060208101905062002dd5565b808801955050505b50505092915050565b62002e12816200371a565b82525050565b62002e23816200371a565b82525050565b62002e34816200372e565b82525050565b600062002e47826200354f565b62002e53818562003612565b935062002e6581856020860162003751565b62002e708162003903565b840191505092915050565b600062002e8a601b8362003623565b91507f4f6e6c79206f776e65722063616e20636c6f736520766f74696e6700000000006000830152602082019050919050565b600062002ecc60108362003623565b91507f5468652067616d65206973206f766572000000000000000000000000000000006000830152602082019050919050565b6000604083016000830151848203600086015262002f1e828262002e3a565b9150506020830151848203602086015262002f3a828262002b15565b9150508091505092915050565b600060608301600083015162002f61600086018262002e07565b506020830151848203602086015262002f7b828262002d3a565b915050604083015162002f92604086018262002d18565b508091505092915050565b600060608301600083015162002fb7600086018262002e07565b506020830151848203602086015262002fd1828262002d3a565b915050604083015162002fe8604086018262002d18565b508091505092915050565b60006060830160008084015490506200300c81620037db565b6200301b600087018262002e18565b5060018401858303602087015262003034838262002d7b565b925050600284015490506200304981620037bd565b62003058604087018262002d29565b50819250505092915050565b60006040830160008301516200307e6000860182620031f9565b506020830151848203602086015262003098828262002b15565b9150508091505092915050565b600060c083016000830151620030bf600086018262002e29565b506020830151620030d4602086018262002a89565b5060408301518482036040860152620030ee828262003064565b915050606083015184820360608601526200310a828262002eff565b9150506080830151848203608086015262003126828262002e3a565b91505060a083015184820360a086015262003142828262002b96565b9150508091505092915050565b600060c08301600083015162003169600086018262002e29565b5060208301516200317e602086018262002a89565b506040830151848203604086015262003198828262003064565b91505060608301518482036060860152620031b4828262002eff565b91505060808301518482036080860152620031d0828262002e3a565b91505060a083015184820360a0860152620031ec828262002b96565b9150508091505092915050565b620032048162003710565b82525050565b620032158162003710565b82525050565b600060208201905062003232600083018462002a9a565b92915050565b6000602082019050818103600083015262003254818462002aab565b905092915050565b6000602082019050818103600083015262003278818462002c17565b905092915050565b600060208201905081810360008301526200329c818462002c97565b905092915050565b60006020820190508181036000830152620032bf8162002e7b565b9050919050565b60006020820190508181036000830152620032e18162002ebd565b9050919050565b6000602082019050818103600083015262003304818462002f9d565b905092915050565b600060208201905081810360008301526200332881846200314f565b905092915050565b60006020820190506200334760008301846200320a565b92915050565b6000604051905081810181811067ffffffffffffffff82111715620033775762003376620038d4565b5b8060405250919050565b600067ffffffffffffffff8211156200339f576200339e620038d4565b5b602082029050602081019050919050565b600067ffffffffffffffff821115620033ce57620033cd620038d4565b5b602082029050602081019050919050565b600067ffffffffffffffff821115620033fd57620033fc620038d4565b5b602082029050602081019050919050565b600067ffffffffffffffff8211156200342c576200342b620038d4565b5b602082029050602081019050919050565b600067ffffffffffffffff8211156200345b576200345a620038d4565b5b601f19601f8301169050602081019050919050565b600067ffffffffffffffff8211156200348e576200348d620038d4565b5b601f19601f8301169050602081019050919050565b6000819050602082019050919050565b6000819050602082019050919050565b6000819050602082019050919050565b60008190508160005260206000209050919050565b6000819050602082019050919050565b60008190508160005260206000209050919050565b600081519050919050565b600081519050919050565b600081519050919050565b600081549050919050565b600081519050919050565b600081519050919050565b600081519050919050565b6000602082019050919050565b6000602082019050919050565b6000602082019050919050565b6000600382019050919050565b6000602082019050919050565b600082825260208201905092915050565b600082825260208201905092915050565b600082825260208201905092915050565b600082825260208201905092915050565b600082825260208201905092915050565b600082825260208201905092915050565b600082825260208201905092915050565b600082825260208201905092915050565b600082825260208201905092915050565b6000620036418262003710565b91506200364e8362003710565b9250827fffffffffffffffffffffffffffffffffffffffffffffffffffffffffffffffff0382111562003686576200368562003847565b5b828201905092915050565b6000819050919050565b600060ff82169050919050565b6000620036b582620036f0565b9050919050565b6000819050919050565b6000819050620036d68262003921565b919050565b6000819050620036eb8262003938565b919050565b600073ffffffffffffffffffffffffffffffffffffffff82169050919050565b6000819050919050565b60006200372782620036c6565b9050919050565b60006200373b82620036db565b9050919050565b82818337600083830152505050565b60005b838110156200377157808201518184015260208101905062003754565b8381111562003781576000848401525b50505050565b60006002820490506001821680620037a057607f821691505b60208210811415620037b757620037b6620038a5565b5b50919050565b6000620037d4620037ce8362003914565b62003691565b9050919050565b6000620037f2620037ec8362003914565b6200369b565b9050919050565b6000620038068262003710565b91507fffffffffffffffffffffffffffffffffffffffffffffffffffffffffffffffff8214156200383c576200383b62003847565b5b600182019050919050565b7f4e487b7100000000000000000000000000000000000000000000000000000000600052601160045260246000fd5b7f4e487b7100000000000000000000000000000000000000000000000000000000600052602160045260246000fd5b7f4e487b7100000000000000000000000000000000000000000000000000000000600052602260045260246000fd5b7f4e487b7100000000000000000000000000000000000000000000000000000000600052604160045260246000fd5b6000601f19601f8301169050919050565b60008160001c9050919050565b6004811062003935576200393462003876565b5b50565b600481106200394c576200394b62003876565b5b50565b6200395a81620036a8565b81146200396657600080fd5b50565b6200397481620036bc565b81146200398057600080fd5b50565b600481106200399157600080fd5b50565b60048110620039a257600080fd5b50565b620039b08162003710565b8114620039bc57600080fd5b5056fe60806040523480156200001157600080fd5b5060405162001405380380620014058339818101604052810190620000379190620001dd565b6001600360006101000a81548160ff02191690831515021790555033600360016101000a81548173ffffffffffffffffffffffffffffffffffffffff021916908373ffffffffffffffffffffffffffffffffffffffff1602179055508060059080519060200190620000ab929190620000b3565b5050620002d8565b828054828255906000526020600020908101928215620000f2579160200282015b82811115620000f1578251825591602001919060010190620000d4565b5b50905062000101919062000105565b5090565b5b808211156200012057600081600090555060010162000106565b5090565b60006200013b620001358462000256565b62000222565b905080838252602082019050828560208602820111156200015b57600080fd5b60005b858110156200018f5781620001748882620001c6565b8452602084019350602083019250506001810190506200015e565b5050509392505050565b600082601f830112620001ab57600080fd5b8151620001bd84826020860162000124565b91505092915050565b600081519050620001d781620002be565b92915050565b600060208284031215620001f057600080fd5b600082015167ffffffffffffffff8111156200020b57600080fd5b620002198482850162000199565b91505092915050565b6000604051905081810181811067ffffffffffffffff821117156200024c576200024b6200028f565b5b8060405250919050565b600067ffffffffffffffff8211156200027457620002736200028f565b5b602082029050602081019050919050565b6000819050919050565b7f4e487b7100000000000000000000000000000000000000000000000000000000600052604160045260246000fd5b620002c98162000285565b8114620002d557600080fd5b50565b61111d80620002e86000396000f3fe6080604052600436106100865760003560e01c806363d28dea1161005957806363d28dea1461016d5780638e7ea5b2146101985780639ef1204c146101c3578063a95824b4146101df578063c631b2921461020a57610086565b806306a49fce1461008b578063154573cd146100b65780633477ee2e146100f35780634c05110014610130575b600080fd5b34801561009757600080fd5b506100a0610221565b6040516100ad9190610dac565b60405180910390f35b3480156100c257600080fd5b506100dd60048036038101906100d89190610990565b610279565b6040516100ea9190610ee4565b60405180910390f35b3480156100ff57600080fd5b5061011a60048036038101906101159190610a1e565b6102c2565b6040516101279190610de9565b60405180910390f35b34801561013c57600080fd5b50610157600480360381019061015291906109b9565b6102e6565b6040516101649190610ee4565b60405180910390f35b34801561017957600080fd5b50610182610352565b60405161018f9190610d8a565b60405180910390f35b3480156101a457600080fd5b506101ad6103e0565b6040516101ba9190610de9565b60405180910390f35b6101dd60048036038101906101d891906109e2565b610564565b005b3480156101eb57600080fd5b506101f4610808565b6040516102019190610dce565b60405180910390f35b34801561021657600080fd5b5061021f61081b565b005b6060600580548060200260200160405190810160405280929190818152602001828054801561026f57602002820191906000526020600020905b81548152602001906001019080831161025b575b5050505050905090565b6000600260008373ffffffffffffffffffffffffffffffffffffffff1673ffffffffffffffffffffffffffffffffffffffff168152602001908152602001600020549050919050565b600581815481106102d257600080fd5b906000526020600020016000915090505481565b6000600360009054906101000a900460ff1615610338576040517f08c379a000000000000000000000000000000000000000000000000000000000815260040161032f90610ea4565b60405180910390fd5b600080838152602001908152602001600020549050919050565b606060048054806020026020016040519081016040528092919081815260200182805480156103d657602002820191906000526020600020905b8160009054906101000a900473ffffffffffffffffffffffffffffffffffffffff1673ffffffffffffffffffffffffffffffffffffffff168152602001906001019080831161038c575b5050505050905090565b6000600360009054906101000a900460ff1615610432576040517f08c379a000000000000000000000000000000000000000000000000000000000815260040161042990610e04565b60405180910390fd5b6000806000905060005b60058054905081101561055b578160008060058481548110610487577f4e487b7100000000000000000000000000000000000000000000000000000000600052603260045260246000fd5b9060005260206000200154815260200190815260200160002054111561054857600080600583815481106104e4577f4e487b7100000000000000000000000000000000000000000000000000000000600052603260045260246000fd5b906000526020600020015481526020019081526020016000205491506005818154811061053a577f4e487b7100000000000000000000000000000000000000000000000000000000600052603260045260246000fd5b906000526020600020015492505b80806105539061102a565b91505061043c565b50819250505090565b600360009054906101000a900460ff166105b3576040517f08c379a00000000000000000000000000000000000000000000000000000000081526004016105aa90610e84565b60405180910390fd5b600081116105f6576040517f08c379a00000000000000000000000000000000000000000000000000000000081526004016105ed90610e24565b60405180910390fd5b600160003373ffffffffffffffffffffffffffffffffffffffff1673ffffffffffffffffffffffffffffffffffffffff16815260200190815260200160002060009054906101000a900460ff1615610683576040517f08c379a000000000000000000000000000000000000000000000000000000000815260040161067a90610ec4565b60405180910390fd5b61068c826108c8565b6106cb576040517f08c379a00000000000000000000000000000000000000000000000000000000081526004016106c290610e44565b60405180910390fd5b8060008084815260200190815260200160002060008282546106ed9190610f82565b9250508190555080600260003373ffffffffffffffffffffffffffffffffffffffff1673ffffffffffffffffffffffffffffffffffffffff16815260200190815260200160002060008282546107439190610f82565b9250508190555060018060003373ffffffffffffffffffffffffffffffffffffffff1673ffffffffffffffffffffffffffffffffffffffff16815260200190815260200160002060006101000a81548160ff0219169083151502179055506004339080600181540180825580915050600190039060005260206000200160009091909190916101000a81548173ffffffffffffffffffffffffffffffffffffffff021916908373ffffffffffffffffffffffffffffffffffffffff1602179055505050565b600360009054906101000a900460ff1681565b600360019054906101000a900473ffffffffffffffffffffffffffffffffffffffff1673ffffffffffffffffffffffffffffffffffffffff163373ffffffffffffffffffffffffffffffffffffffff16146108ab576040517f08c379a00000000000000000000000000000000000000000000000000000000081526004016108a290610e64565b60405180910390fd5b6000600360006101000a81548160ff021916908315150217905550565b600080600090505b600580549050811015610946578260058281548110610918577f4e487b7100000000000000000000000000000000000000000000000000000000600052603260045260246000fd5b9060005260206000200154141561093357600191505061094c565b808061093e9061102a565b9150506108d0565b50600090505b919050565b600081359050610960816110a2565b92915050565b600081359050610975816110b9565b92915050565b60008135905061098a816110d0565b92915050565b6000602082840312156109a257600080fd5b60006109b084828501610951565b91505092915050565b6000602082840312156109cb57600080fd5b60006109d984828501610966565b91505092915050565b600080604083850312156109f557600080fd5b6000610a0385828601610966565b9250506020610a148582860161097b565b9150509250929050565b600060208284031215610a3057600080fd5b6000610a3e8482850161097b565b91505092915050565b6000610a538383610a77565b60208301905092915050565b6000610a6b8383610b51565b60208301905092915050565b610a8081610fd8565b82525050565b6000610a9182610f1f565b610a9b8185610f4f565b9350610aa683610eff565b8060005b83811015610ad7578151610abe8882610a47565b9750610ac983610f35565b925050600181019050610aaa565b5085935050505092915050565b6000610aef82610f2a565b610af98185610f60565b9350610b0483610f0f565b8060005b83811015610b35578151610b1c8882610a5f565b9750610b2783610f42565b925050600181019050610b08565b5085935050505092915050565b610b4b81610fea565b82525050565b610b5a81610ff6565b82525050565b610b6981610ff6565b82525050565b6000610b7c602783610f71565b91507f566f74696e67206d75737420626520636c6f73656420746f206765742074686560008301527f2077696e6e6572000000000000000000000000000000000000000000000000006020830152604082019050919050565b6000610be2601d83610f71565b91507f416d6f756e74206d7573742062652067726561746572207468616e20300000006000830152602082019050919050565b6000610c22601183610f71565b91507f496e76616c69642063616e6469646174650000000000000000000000000000006000830152602082019050919050565b6000610c62601b83610f71565b91507f4f6e6c79206f776e65722063616e20636c6f736520766f74696e6700000000006000830152602082019050919050565b6000610ca2601083610f71565b91507f566f74696e6720697320636c6f736564000000000000000000000000000000006000830152602082019050919050565b6000610ce2602283610f71565b91507f566f74696e67206d75737420626520636c6f73656420746f2067657420766f7460008301527f65730000000000000000000000000000000000000000000000000000000000006020830152604082019050919050565b6000610d48601683610f71565b91507f596f75206861766520616c726561647920766f746564000000000000000000006000830152602082019050919050565b610d8481611020565b82525050565b60006020820190508181036000830152610da48184610a86565b905092915050565b60006020820190508181036000830152610dc68184610ae4565b905092915050565b6000602082019050610de36000830184610b42565b92915050565b6000602082019050610dfe6000830184610b60565b92915050565b60006020820190508181036000830152610e1d81610b6f565b9050919050565b60006020820190508181036000830152610e3d81610bd5565b9050919050565b60006020820190508181036000830152610e5d81610c15565b9050919050565b60006020820190508181036000830152610e7d81610c55565b9050919050565b60006020820190508181036000830152610e9d81610c95565b9050919050565b60006020820190508181036000830152610ebd81610cd5565b9050919050565b60006020820190508181036000830152610edd81610d3b565b9050919050565b6000602082019050610ef96000830184610d7b565b92915050565b6000819050602082019050919050565b6000819050602082019050919050565b600081519050919050565b600081519050919050565b6000602082019050919050565b6000602082019050919050565b600082825260208201905092915050565b600082825260208201905092915050565b600082825260208201905092915050565b6000610f8d82611020565b9150610f9883611020565b9250827fffffffffffffffffffffffffffffffffffffffffffffffffffffffffffffffff03821115610fcd57610fcc611073565b5b828201905092915050565b6000610fe382611000565b9050919050565b60008115159050919050565b6000819050919050565b600073ffffffffffffffffffffffffffffffffffffffff82169050919050565b6000819050919050565b600061103582611020565b91507fffffffffffffffffffffffffffffffffffffffffffffffffffffffffffffffff82141561106857611067611073565b5b600182019050919050565b7f4e487b7100000000000000000000000000000000000000000000000000000000600052601160045260246000fd5b6110ab81610fd8565b81146110b657600080fd5b50565b6110c281610ff6565b81146110cd57600080fd5b50565b6110d981611020565b81146110e457600080fd5b5056fea26469706673582212208017c0810cde26be66f3d05e684ec5cbe5b45727f6ed87de782bbfc4e093fd0964736f6c63430008000033a2646970667358221220a652ff247a9cdac3dd04616ea06e09498a349b92c376c284d682bb8f9ad4dd8b64736f6c63430008000033",
  "immutableReferences": {},
  "source": "// SPDX-License-Identifier: GPL-3.0\r\n\r\npragma solidity ^0.8.0;\r\n\r\nimport \"./libraries/Utils.sol\";\r\nimport \"./Voting.sol\";\r\n\r\ncontract GameStates {\r\n    address owner;\r\n    bool canChangeState = true;\r\n\r\n    Utils.State currentState;\r\n    Utils.State[] states;\r\n    Voting currentVoting;\r\n\r\n    mapping(address => uint256) public addressPlayed;\r\n\r\n    constructor() {\r\n        owner = msg.sender;\r\n    }\r\n\r\n    function changeState(Utils.State memory newState) public {\r\n        require(msg.sender == owner, \"Only owner can close voting\");\r\n        require(canChangeState, \"The game is over\");\r\n\r\n        currentState.state = newState.state;\r\n        currentState.player = newState.player;\r\n        currentState.level = newState.level;\r\n        currentState.enemy = newState.enemy;\r\n\r\n        if (newState.options.length > 0) {\r\n            Utils.copyOptions(currentState, newState.options);\r\n\r\n            //Open new voting with state options\r\n            currentVoting = new Voting(\r\n                Utils.getOptionValues(currentState.options)\r\n            );\r\n            currentState.voting = address(currentVoting);\r\n        }\r\n\r\n        states.push(currentState);\r\n\r\n        if (currentState.state == Utils.StatesTypes.Final) {\r\n            canChangeState = false;\r\n        }\r\n    }\r\n\r\n    function closeVoting() public {\r\n        require(msg.sender == owner, \"Only owner can close voting\");\r\n        currentVoting.closeVoting();\r\n        address[] memory addressVoted = currentVoting.getAddressHasVoted();\r\n\r\n        //Saves the addresses that have participated in the vote\r\n        for (uint i = 0; i < addressVoted.length; i++) {\r\n            addressPlayed[addressVoted[i]] += currentVoting\r\n                .getAddressVotedAmount(addressVoted[i]);\r\n        }\r\n    }\r\n\r\n    function getVotingWinner() public view returns (Utils.Option memory) {\r\n        bytes32 winner = currentVoting.getWinner();\r\n\r\n        for (uint i = 0; i < currentState.options.length; i++) {\r\n            if (currentState.options[i].option == winner) {\r\n                return currentState.options[i];\r\n            }\r\n        }\r\n\r\n        //Should never return this (always winner in options)\r\n        return currentState.options[0];\r\n    }\r\n\r\n    function getGameStates() public view returns (Utils.State[] memory) {\r\n        return states;\r\n    }\r\n\r\n    function getCurrentState() public view returns (Utils.State memory) {\r\n        return currentState;\r\n    }\r\n}\r\n",
  "sourcePath": "C:\\Users\\angma\\OneDrive\\Escritorio\\TFM\\tfm_backend\\contracts\\GameStates.sol",
  "compiler": {
    "name": "solc",
    "version": "0.8.0+commit.c7dfd78e.Emscripten.clang"
  },
  "schemaVersion": "3.4.14",
  "updatedAt": "2023-05-20T16:06:55.310Z",
  "networkType": "ethereum",
  "devdoc": {
    "kind": "dev",
    "methods": {},
    "version": 1
  },
  "userdoc": {
    "kind": "user",
    "methods": {},
    "version": 1
  }
}