{
  "contractName": "GameStates",
  "abi": [
    {
      "inputs": [],
      "stateMutability": "nonpayable",
      "type": "constructor"
    },
    {
      "inputs": [
        {
          "internalType": "address",
          "name": "",
          "type": "address"
        }
      ],
      "name": "addressPlayed",
      "outputs": [
        {
          "internalType": "uint256",
          "name": "",
          "type": "uint256"
        }
      ],
      "stateMutability": "view",
      "type": "function"
    },
    {
      "inputs": [
        {
          "components": [
            {
              "internalType": "enum Utils.StatesTypes",
              "name": "state",
              "type": "uint8"
            },
            {
              "internalType": "address",
              "name": "voting",
              "type": "address"
            },
            {
              "components": [
                {
                  "internalType": "uint256",
                  "name": "health",
                  "type": "uint256"
                },
                {
                  "internalType": "string[]",
                  "name": "weapons",
                  "type": "string[]"
                }
              ],
              "internalType": "struct Utils.Player",
              "name": "player",
              "type": "tuple"
            },
            {
              "components": [
                {
                  "internalType": "string",
                  "name": "name",
                  "type": "string"
                },
                {
                  "internalType": "string[]",
                  "name": "enemies",
                  "type": "string[]"
                }
              ],
              "internalType": "struct Utils.Level",
              "name": "level",
              "type": "tuple"
            },
            {
              "components": [
                {
                  "internalType": "enum Utils.OptionTypes",
                  "name": "optionType",
                  "type": "uint8"
                },
                {
                  "internalType": "bytes",
                  "name": "data",
                  "type": "bytes"
                },
                {
                  "internalType": "bytes32",
                  "name": "option",
                  "type": "bytes32"
                }
              ],
              "internalType": "struct Utils.Option[]",
              "name": "options",
              "type": "tuple[]"
            }
          ],
          "internalType": "struct Utils.State",
          "name": "newState",
          "type": "tuple"
        }
      ],
      "name": "changeState",
      "outputs": [],
      "stateMutability": "nonpayable",
      "type": "function"
    },
    {
      "inputs": [],
      "name": "closeVoting",
      "outputs": [
        {
          "components": [
            {
              "internalType": "enum Utils.OptionTypes",
              "name": "optionType",
              "type": "uint8"
            },
            {
              "internalType": "bytes",
              "name": "data",
              "type": "bytes"
            },
            {
              "internalType": "bytes32",
              "name": "option",
              "type": "bytes32"
            }
          ],
          "internalType": "struct Utils.Option",
          "name": "",
          "type": "tuple"
        }
      ],
      "stateMutability": "nonpayable",
      "type": "function"
    },
    {
      "inputs": [],
      "name": "getGameStates",
      "outputs": [
        {
          "components": [
            {
              "internalType": "enum Utils.StatesTypes",
              "name": "state",
              "type": "uint8"
            },
            {
              "internalType": "address",
              "name": "voting",
              "type": "address"
            },
            {
              "components": [
                {
                  "internalType": "uint256",
                  "name": "health",
                  "type": "uint256"
                },
                {
                  "internalType": "string[]",
                  "name": "weapons",
                  "type": "string[]"
                }
              ],
              "internalType": "struct Utils.Player",
              "name": "player",
              "type": "tuple"
            },
            {
              "components": [
                {
                  "internalType": "string",
                  "name": "name",
                  "type": "string"
                },
                {
                  "internalType": "string[]",
                  "name": "enemies",
                  "type": "string[]"
                }
              ],
              "internalType": "struct Utils.Level",
              "name": "level",
              "type": "tuple"
            },
            {
              "components": [
                {
                  "internalType": "enum Utils.OptionTypes",
                  "name": "optionType",
                  "type": "uint8"
                },
                {
                  "internalType": "bytes",
                  "name": "data",
                  "type": "bytes"
                },
                {
                  "internalType": "bytes32",
                  "name": "option",
                  "type": "bytes32"
                }
              ],
              "internalType": "struct Utils.Option[]",
              "name": "options",
              "type": "tuple[]"
            }
          ],
          "internalType": "struct Utils.State[]",
          "name": "",
          "type": "tuple[]"
        }
      ],
      "stateMutability": "view",
      "type": "function"
    },
    {
      "inputs": [],
      "name": "getCurrentState",
      "outputs": [
        {
          "components": [
            {
              "internalType": "enum Utils.StatesTypes",
              "name": "state",
              "type": "uint8"
            },
            {
              "internalType": "address",
              "name": "voting",
              "type": "address"
            },
            {
              "components": [
                {
                  "internalType": "uint256",
                  "name": "health",
                  "type": "uint256"
                },
                {
                  "internalType": "string[]",
                  "name": "weapons",
                  "type": "string[]"
                }
              ],
              "internalType": "struct Utils.Player",
              "name": "player",
              "type": "tuple"
            },
            {
              "components": [
                {
                  "internalType": "string",
                  "name": "name",
                  "type": "string"
                },
                {
                  "internalType": "string[]",
                  "name": "enemies",
                  "type": "string[]"
                }
              ],
              "internalType": "struct Utils.Level",
              "name": "level",
              "type": "tuple"
            },
            {
              "components": [
                {
                  "internalType": "enum Utils.OptionTypes",
                  "name": "optionType",
                  "type": "uint8"
                },
                {
                  "internalType": "bytes",
                  "name": "data",
                  "type": "bytes"
                },
                {
                  "internalType": "bytes32",
                  "name": "option",
                  "type": "bytes32"
                }
              ],
              "internalType": "struct Utils.Option[]",
              "name": "options",
              "type": "tuple[]"
            }
          ],
          "internalType": "struct Utils.State",
          "name": "",
          "type": "tuple"
        }
      ],
      "stateMutability": "view",
      "type": "function"
    }
  ],
  "bytecode": "0x60806040526001600060146101000a81548160ff02191690831515021790555034801561002b57600080fd5b50336000806101000a81548173ffffffffffffffffffffffffffffffffffffffff021916908373ffffffffffffffffffffffffffffffffffffffff160217905550614ddd8061007b6000396000f3fe60806040523480156200001157600080fd5b50600436106200005e5760003560e01c80630abcdf94146200006357806311d69a37146200008557806315e6f27e14620000bb578063378aa70114620000db578063c631b29214620000fd575b600080fd5b6200006d6200011f565b6040516200007c919062001efc565b60405180910390f35b620000a360048036038101906200009d919062001f65565b620005ef565b604051620000b2919062001fa8565b60405180910390f35b620000d96004803603810190620000d391906200270e565b62000607565b005b620000e562000982565b604051620000f49190620027ed565b60405180910390f35b6200010762000e0d565b60405162000116919062002867565b60405180910390f35b60606007805480602002602001604051908101604052809291908181526020016000905b82821015620005e657838290600052602060002090600602016040518060a00160405290816000820160009054906101000a900460ff1660028111156200018f576200018e62001908565b5b6002811115620001a457620001a362001908565b5b81526020016000820160019054906101000a900473ffffffffffffffffffffffffffffffffffffffff1673ffffffffffffffffffffffffffffffffffffffff1673ffffffffffffffffffffffffffffffffffffffff168152602001600182016040518060400160405290816000820154815260200160018201805480602002602001604051908101604052809291908181526020016000905b82821015620002f35783829060005260206000200180546200025f90620028ba565b80601f01602080910402602001604051908101604052809291908181526020018280546200028d90620028ba565b8015620002de5780601f10620002b257610100808354040283529160200191620002de565b820191906000526020600020905b815481529060010190602001808311620002c057829003601f168201915b5050505050815260200190600101906200023d565b50505050815250508152602001600382016040518060400160405290816000820180546200032190620028ba565b80601f01602080910402602001604051908101604052809291908181526020018280546200034f90620028ba565b8015620003a05780601f106200037457610100808354040283529160200191620003a0565b820191906000526020600020905b8154815290600101906020018083116200038257829003601f168201915b5050505050815260200160018201805480602002602001604051908101604052809291908181526020016000905b8282101562000484578382906000526020600020018054620003f090620028ba565b80601f01602080910402602001604051908101604052809291908181526020018280546200041e90620028ba565b80156200046f5780601f1062000443576101008083540402835291602001916200046f565b820191906000526020600020905b8154815290600101906020018083116200045157829003601f168201915b505050505081526020019060010190620003ce565b5050505081525050815260200160058201805480602002602001604051908101604052809291908181526020016000905b82821015620005ce57838290600052602060002090600302016040518060600160405290816000820160009054906101000a900460ff16600381111562000501576200050062001908565b5b600381111562000516576200051562001908565b5b81526020016001820180546200052c90620028ba565b80601f01602080910402602001604051908101604052809291908181526020018280546200055a90620028ba565b8015620005ab5780601f106200057f57610100808354040283529160200191620005ab565b820191906000526020600020905b8154815290600101906020018083116200058d57829003601f168201915b5050505050815260200160028201548152505081526020019060010190620004b5565b50505050815250508152602001906001019062000143565b50505050905090565b60096020528060005260406000206000915090505481565b8060000151600160000160006101000a81548160ff0219169083600281111562000636576200063562001908565b5b02179055508060400151600180016000820151816000015560208201518160010190805190602001906200066c92919062001535565b5090505080606001516001600301600082015181600001908162000691919062002ac1565b506020820151816001019080519060200190620006b092919062001535565b50905050620006c56001826080015162001459565b73__Utils_________________________________63fdc1571860016005016040518263ffffffff1660e01b815260040162000702919062002e25565b600060405180830381865af415801562000720573d6000803e3d6000fd5b505050506040513d6000823e3d601f19601f820116820180604052508101906200074b919062002f36565b604051620007599062001595565b62000765919062003044565b604051809103906000f08015801562000782573d6000803e3d6000fd5b50600860006101000a81548173ffffffffffffffffffffffffffffffffffffffff021916908373ffffffffffffffffffffffffffffffffffffffff160217905550600860009054906101000a900473ffffffffffffffffffffffffffffffffffffffff16600160000160016101000a81548173ffffffffffffffffffffffffffffffffffffffff021916908373ffffffffffffffffffffffffffffffffffffffff1602179055506007600190806001815401808255809150506001900390600052602060002090600602016000909190919091506000820160009054906101000a900460ff168160000160006101000a81548160ff0219169083600281111562000891576200089062001908565b5b02179055506000820160019054906101000a900473ffffffffffffffffffffffffffffffffffffffff168160000160016101000a81548173ffffffffffffffffffffffffffffffffffffffff021916908373ffffffffffffffffffffffffffffffffffffffff160217905550600182018160010160008201548160000155600182018160010190805462000927929190620015a3565b50505060038201816003016000820181600001908162000948919062003080565b50600182018160010190805462000961929190620015a3565b50505060058201816005019080546200097c92919062001607565b50505050565b6200098c620016c5565b60016040518060a00160405290816000820160009054906101000a900460ff166002811115620009c157620009c062001908565b5b6002811115620009d657620009d562001908565b5b81526020016000820160019054906101000a900473ffffffffffffffffffffffffffffffffffffffff1673ffffffffffffffffffffffffffffffffffffffff1673ffffffffffffffffffffffffffffffffffffffff168152602001600182016040518060400160405290816000820154815260200160018201805480602002602001604051908101604052809291908181526020016000905b8282101562000b2557838290600052602060002001805462000a9190620028ba565b80601f016020809104026020016040519081016040528092919081815260200182805462000abf90620028ba565b801562000b105780601f1062000ae45761010080835404028352916020019162000b10565b820191906000526020600020905b81548152906001019060200180831162000af257829003601f168201915b50505050508152602001906001019062000a6f565b505050508152505081526020016003820160405180604001604052908160008201805462000b5390620028ba565b80601f016020809104026020016040519081016040528092919081815260200182805462000b8190620028ba565b801562000bd25780601f1062000ba65761010080835404028352916020019162000bd2565b820191906000526020600020905b81548152906001019060200180831162000bb457829003601f168201915b5050505050815260200160018201805480602002602001604051908101604052809291908181526020016000905b8282101562000cb657838290600052602060002001805462000c2290620028ba565b80601f016020809104026020016040519081016040528092919081815260200182805462000c5090620028ba565b801562000ca15780601f1062000c755761010080835404028352916020019162000ca1565b820191906000526020600020905b81548152906001019060200180831162000c8357829003601f168201915b50505050508152602001906001019062000c00565b5050505081525050815260200160058201805480602002602001604051908101604052809291908181526020016000905b8282101562000e0057838290600052602060002090600302016040518060600160405290816000820160009054906101000a900460ff16600381111562000d335762000d3262001908565b5b600381111562000d485762000d4762001908565b5b815260200160018201805462000d5e90620028ba565b80601f016020809104026020016040519081016040528092919081815260200182805462000d8c90620028ba565b801562000ddd5780601f1062000db15761010080835404028352916020019162000ddd565b820191906000526020600020905b81548152906001019060200180831162000dbf57829003601f168201915b505050505081526020016002820154815250508152602001906001019062000ce7565b5050505081525050905090565b62000e176200172f565b60008054906101000a900473ffffffffffffffffffffffffffffffffffffffff1673ffffffffffffffffffffffffffffffffffffffff163373ffffffffffffffffffffffffffffffffffffffff161462000ea8576040517f08c379a000000000000000000000000000000000000000000000000000000000815260040162000e9f90620031e2565b60405180910390fd5b600860009054906101000a900473ffffffffffffffffffffffffffffffffffffffff1673ffffffffffffffffffffffffffffffffffffffff1663c631b2926040518163ffffffff1660e01b8152600401600060405180830381600087803b15801562000f1357600080fd5b505af115801562000f28573d6000803e3d6000fd5b505050506000600860009054906101000a900473ffffffffffffffffffffffffffffffffffffffff1673ffffffffffffffffffffffffffffffffffffffff166363d28dea6040518163ffffffff1660e01b8152600401600060405180830381865afa15801562000f9c573d6000803e3d6000fd5b505050506040513d6000823e3d601f19601f8201168201806040525081019062000fc79190620032f1565b905060005b81518110156200111e57600860009054906101000a900473ffffffffffffffffffffffffffffffffffffffff1673ffffffffffffffffffffffffffffffffffffffff1663154573cd8383815181106200102a576200102962003342565b5b60200260200101516040518263ffffffff1660e01b815260040162001050919062003382565b602060405180830381865afa1580156200106e573d6000803e3d6000fd5b505050506040513d601f19601f82011682018060405250810190620010949190620033b6565b60096000848481518110620010ae57620010ad62003342565b5b602002602001015173ffffffffffffffffffffffffffffffffffffffff1673ffffffffffffffffffffffffffffffffffffffff168152602001908152602001600020600082825462001101919062003417565b925050819055508080620011159062003452565b91505062000fcc565b506000600860009054906101000a900473ffffffffffffffffffffffffffffffffffffffff1673ffffffffffffffffffffffffffffffffffffffff16638e7ea5b26040518163ffffffff1660e01b8152600401602060405180830381865afa1580156200118f573d6000803e3d6000fd5b505050506040513d601f19601f82011682018060405250810190620011b591906200349f565b905060005b60016005018054905081101562001337578160016005018281548110620011e657620011e562003342565b5b9060005260206000209060030201600201540362001321576001600501818154811062001218576200121762003342565b5b90600052602060002090600302016040518060600160405290816000820160009054906101000a900460ff16600381111562001259576200125862001908565b5b60038111156200126e576200126d62001908565b5b81526020016001820180546200128490620028ba565b80601f0160208091040260200160405190810160405280929190818152602001828054620012b290620028ba565b8015620013035780601f10620012d75761010080835404028352916020019162001303565b820191906000526020600020905b815481529060010190602001808311620012e557829003601f168201915b50505050508152602001600282015481525050935050505062001456565b80806200132e9062003452565b915050620011ba565b50600160050160008154811062001353576200135262003342565b5b90600052602060002090600302016040518060600160405290816000820160009054906101000a900460ff16600381111562001394576200139362001908565b5b6003811115620013a957620013a862001908565b5b8152602001600182018054620013bf90620028ba565b80601f0160208091040260200160405190810160405280929190818152602001828054620013ed90620028ba565b80156200143e5780601f1062001412576101008083540402835291602001916200143e565b820191906000526020600020905b8154815290600101906020018083116200142057829003601f168201915b50505050508152602001600282015481525050925050505b90565b8160050160006200146b919062001768565b60005b815181101562001530578260050182828151811062001492576200149162003342565b5b6020026020010151908060018154018082558091505060019003906000526020600020906003020160009091909190915060008201518160000160006101000a81548160ff02191690836003811115620014f157620014f062001908565b5b021790555060208201518160010190816200150d919062003521565b506040820151816002015550508080620015279062003452565b9150506200146e565b505050565b82805482825590600052602060002090810192821562001582579160200282015b828111156200158157825182908162001570919062002ac1565b509160200191906001019062001556565b5b5090506200159191906200178e565b5090565b611686806200372283390190565b828054828255906000526020600020908101928215620015f45760005260206000209182015b82811115620015f35782829081620015e2919062003080565b5091600101919060010190620015c9565b5b5090506200160391906200178e565b5090565b828054828255906000526020600020906003028101928215620016b25760005260206000209160030282015b82811115620016b15782826000820160009054906101000a900460ff168160000160006101000a81548160ff0219169083600381111562001679576200167862001908565b5b02179055506001820181600101908162001694919062003620565b506002820154816002015550509160030191906003019062001633565b5b509050620016c19190620017b6565b5090565b6040518060a0016040528060006002811115620016e757620016e662001908565b5b8152602001600073ffffffffffffffffffffffffffffffffffffffff16815260200162001713620017fd565b81526020016200172262001817565b8152602001606081525090565b60405180606001604052806000600381111562001751576200175062001908565b5b815260200160608152602001600080191681525090565b50805460008255600302906000526020600020908101906200178b9190620017b6565b50565b5b80821115620017b25760008181620017a8919062001831565b506001016200178f565b5090565b5b80821115620017f957600080820160006101000a81549060ff0219169055600182016000620017e7919062001877565b600282016000905550600301620017b7565b5090565b604051806040016040528060008152602001606081525090565b604051806040016040528060608152602001606081525090565b5080546200183f90620028ba565b6000825580601f1062001853575062001874565b601f016020900490600052602060002090810190620018739190620018bd565b5b50565b5080546200188590620028ba565b6000825580601f10620018995750620018ba565b601f016020900490600052602060002090810190620018b99190620018bd565b5b50565b5b80821115620018d8576000816000905550600101620018be565b5090565b600081519050919050565b600082825260208201905092915050565b6000819050602082019050919050565b7f4e487b7100000000000000000000000000000000000000000000000000000000600052602160045260246000fd5b600381106200194b576200194a62001908565b5b50565b60008190506200195e8262001937565b919050565b600062001970826200194e565b9050919050565b620019828162001963565b82525050565b600073ffffffffffffffffffffffffffffffffffffffff82169050919050565b6000620019b58262001988565b9050919050565b620019c781620019a8565b82525050565b6000819050919050565b620019e281620019cd565b82525050565b600081519050919050565b600082825260208201905092915050565b6000819050602082019050919050565b600081519050919050565b600082825260208201905092915050565b60005b8381101562001a5057808201518184015260208101905062001a33565b60008484015250505050565b6000601f19601f8301169050919050565b600062001a7a8262001a14565b62001a86818562001a1f565b935062001a9881856020860162001a30565b62001aa38162001a5c565b840191505092915050565b600062001abc838362001a6d565b905092915050565b6000602082019050919050565b600062001ade82620019e8565b62001aea8185620019f3565b93508360208202850162001afe8562001a04565b8060005b8581101562001b40578484038952815162001b1e858262001aae565b945062001b2b8362001ac4565b925060208a0199505060018101905062001b02565b50829750879550505050505092915050565b600060408301600083015162001b6c6000860182620019d7565b506020830151848203602086015262001b86828262001ad1565b9150508091505092915050565b6000604083016000830151848203600086015262001bb2828262001a6d565b9150506020830151848203602086015262001bce828262001ad1565b9150508091505092915050565b600081519050919050565b600082825260208201905092915050565b6000819050602082019050919050565b6004811062001c1b5762001c1a62001908565b5b50565b600081905062001c2e8262001c07565b919050565b600062001c408262001c1e565b9050919050565b62001c528162001c33565b82525050565b600081519050919050565b600082825260208201905092915050565b600062001c818262001c58565b62001c8d818562001c63565b935062001c9f81856020860162001a30565b62001caa8162001a5c565b840191505092915050565b6000819050919050565b62001cca8162001cb5565b82525050565b600060608301600083015162001cea600086018262001c47565b506020830151848203602086015262001d04828262001c74565b915050604083015162001d1b604086018262001cbf565b508091505092915050565b600062001d34838362001cd0565b905092915050565b6000602082019050919050565b600062001d568262001bdb565b62001d62818562001be6565b93508360208202850162001d768562001bf7565b8060005b8581101562001db8578484038952815162001d96858262001d26565b945062001da38362001d3c565b925060208a0199505060018101905062001d7a565b50829750879550505050505092915050565b600060a08301600083015162001de4600086018262001977565b50602083015162001df96020860182620019bc565b506040830151848203604086015262001e13828262001b52565b9150506060830151848203606086015262001e2f828262001b93565b9150506080830151848203608086015262001e4b828262001d49565b9150508091505092915050565b600062001e66838362001dca565b905092915050565b6000602082019050919050565b600062001e8882620018dc565b62001e948185620018e7565b93508360208202850162001ea885620018f8565b8060005b8581101562001eea578484038952815162001ec8858262001e58565b945062001ed58362001e6e565b925060208a0199505060018101905062001eac565b50829750879550505050505092915050565b6000602082019050818103600083015262001f18818462001e7b565b905092915050565b6000604051905090565b600080fd5b600080fd5b62001f3f81620019a8565b811462001f4b57600080fd5b50565b60008135905062001f5f8162001f34565b92915050565b60006020828403121562001f7e5762001f7d62001f2a565b5b600062001f8e8482850162001f4e565b91505092915050565b62001fa281620019cd565b82525050565b600060208201905062001fbf600083018462001f97565b92915050565b600080fd5b7f4e487b7100000000000000000000000000000000000000000000000000000000600052604160045260246000fd5b620020048262001a5c565b810181811067ffffffffffffffff8211171562002026576200202562001fca565b5b80604052505050565b60006200203b62001f20565b905062002049828262001ff9565b919050565b600080fd5b600381106200206157600080fd5b50565b600081359050620020758162002053565b92915050565b6200208681620019cd565b81146200209257600080fd5b50565b600081359050620020a6816200207b565b92915050565b600080fd5b600067ffffffffffffffff821115620020cf57620020ce62001fca565b5b602082029050602081019050919050565b600080fd5b600080fd5b600067ffffffffffffffff82111562002108576200210762001fca565b5b620021138262001a5c565b9050602081019050919050565b82818337600083830152505050565b6000620021466200214084620020ea565b6200202f565b905082815260208101848484011115620021655762002164620020e5565b5b6200217284828562002120565b509392505050565b600082601f830112620021925762002191620020ac565b5b8135620021a48482602086016200212f565b91505092915050565b6000620021c4620021be84620020b1565b6200202f565b90508083825260208201905060208402830185811115620021ea57620021e9620020e0565b5b835b818110156200223857803567ffffffffffffffff811115620022135762002212620020ac565b5b8086016200222289826200217a565b85526020850194505050602081019050620021ec565b5050509392505050565b600082601f8301126200225a5762002259620020ac565b5b81356200226c848260208601620021ad565b91505092915050565b6000604082840312156200228e576200228d62001fc5565b5b6200229a60406200202f565b90506000620022ac8482850162002095565b600083015250602082013567ffffffffffffffff811115620022d357620022d26200204e565b5b620022e18482850162002242565b60208301525092915050565b60006040828403121562002306576200230562001fc5565b5b6200231260406200202f565b9050600082013567ffffffffffffffff8111156200233557620023346200204e565b5b62002343848285016200217a565b600083015250602082013567ffffffffffffffff8111156200236a57620023696200204e565b5b620023788482850162002242565b60208301525092915050565b600067ffffffffffffffff821115620023a257620023a162001fca565b5b602082029050602081019050919050565b60048110620023c157600080fd5b50565b600081359050620023d581620023b3565b92915050565b600067ffffffffffffffff821115620023f957620023f862001fca565b5b620024048262001a5c565b9050602081019050919050565b6000620024286200242284620023db565b6200202f565b905082815260208101848484011115620024475762002446620020e5565b5b6200245484828562002120565b509392505050565b600082601f830112620024745762002473620020ac565b5b81356200248684826020860162002411565b91505092915050565b6200249a8162001cb5565b8114620024a657600080fd5b50565b600081359050620024ba816200248f565b92915050565b600060608284031215620024d957620024d862001fc5565b5b620024e560606200202f565b90506000620024f784828501620023c4565b600083015250602082013567ffffffffffffffff8111156200251e576200251d6200204e565b5b6200252c848285016200245c565b60208301525060406200254284828501620024a9565b60408301525092915050565b6000620025656200255f8462002384565b6200202f565b905080838252602082019050602084028301858111156200258b576200258a620020e0565b5b835b81811015620025d957803567ffffffffffffffff811115620025b457620025b3620020ac565b5b808601620025c38982620024c0565b855260208501945050506020810190506200258d565b5050509392505050565b600082601f830112620025fb57620025fa620020ac565b5b81356200260d8482602086016200254e565b91505092915050565b600060a082840312156200262f576200262e62001fc5565b5b6200263b60a06200202f565b905060006200264d8482850162002064565b6000830152506020620026638482850162001f4e565b602083015250604082013567ffffffffffffffff8111156200268a57620026896200204e565b5b620026988482850162002275565b604083015250606082013567ffffffffffffffff811115620026bf57620026be6200204e565b5b620026cd84828501620022ed565b606083015250608082013567ffffffffffffffff811115620026f457620026f36200204e565b5b6200270284828501620025e3565b60808301525092915050565b60006020828403121562002727576200272662001f2a565b5b600082013567ffffffffffffffff81111562002748576200274762001f2f565b5b620027568482850162002616565b91505092915050565b600060a08301600083015162002779600086018262001977565b5060208301516200278e6020860182620019bc565b5060408301518482036040860152620027a8828262001b52565b91505060608301518482036060860152620027c4828262001b93565b91505060808301518482036080860152620027e0828262001d49565b9150508091505092915050565b600060208201905081810360008301526200280981846200275f565b905092915050565b60006060830160008301516200282b600086018262001c47565b506020830151848203602086015262002845828262001c74565b91505060408301516200285c604086018262001cbf565b508091505092915050565b6000602082019050818103600083015262002883818462002811565b905092915050565b7f4e487b7100000000000000000000000000000000000000000000000000000000600052602260045260246000fd5b60006002820490506001821680620028d357607f821691505b602082108103620028e957620028e86200288b565b5b50919050565b60008190508160005260206000209050919050565b60006020601f8301049050919050565b600082821b905092915050565b600060088302620029537fffffffffffffffffffffffffffffffffffffffffffffffffffffffffffffffff8262002914565b6200295f868362002914565b95508019841693508086168417925050509392505050565b6000819050919050565b6000620029a26200299c6200299684620019cd565b62002977565b620019cd565b9050919050565b6000819050919050565b620029be8362002981565b620029d6620029cd82620029a9565b84845462002921565b825550505050565b600090565b620029ed620029de565b620029fa818484620029b3565b505050565b5b8181101562002a225762002a16600082620029e3565b60018101905062002a00565b5050565b601f82111562002a715762002a3b81620028ef565b62002a468462002904565b8101602085101562002a56578190505b62002a6e62002a658562002904565b830182620029ff565b50505b505050565b600082821c905092915050565b600062002a966000198460080262002a76565b1980831691505092915050565b600062002ab1838362002a83565b9150826002028217905092915050565b62002acc8262001a14565b67ffffffffffffffff81111562002ae85762002ae762001fca565b5b62002af48254620028ba565b62002b0182828562002a26565b600060209050601f83116001811462002b39576000841562002b24578287015190505b62002b30858262002aa3565b86555062002ba0565b601f19841662002b4986620028ef565b60005b8281101562002b735784890151825560018201915060208501945060208101905062002b4c565b8683101562002b93578489015162002b8f601f89168262002a83565b8355505b6001600288020188555050505b505050505050565b600081549050919050565b600082825260208201905092915050565b60008190508160005260206000209050919050565b60008160001c9050919050565b600060ff82169050919050565b600062002c0a62002c048362002bd9565b62002be6565b9050919050565b62002c1c8162001c33565b82525050565b600082825260208201905092915050565b60008190508160005260206000209050919050565b6000815462002c5781620028ba565b62002c63818662002c22565b9450600182166000811462002c81576001811462002c985762002ccf565b60ff19831686528115156020028601935062002ccf565b62002ca38562002c33565b60005b8381101562002cc75781548189015260018201915060208101905062002ca6565b808801955050505b50505092915050565b6000819050919050565b600062002cf962002cf38362002bd9565b62002cd8565b9050919050565b62002d0b8162001cb5565b82525050565b600060608301600080840154905062002d2a8162002bf3565b62002d39600087018262002c11565b5060018401858303602087015262002d52838262002c48565b9250506002840154905062002d678162002ce2565b62002d76604087018262002d00565b50819250505092915050565b600062002d90838362002d11565b905092915050565b6000600382019050919050565b600062002db28262002ba8565b62002dbe818562002bb3565b93508360208202850162002dd28562002bc4565b8060005b8581101562002e135784840389528162002df1858262002d82565b945062002dfe8362002d98565b925060208a0199505060018101905062002dd6565b50829750879550505050505092915050565b6000602082019050818103600083015262002e41818462002da5565b905092915050565b600067ffffffffffffffff82111562002e675762002e6662001fca565b5b602082029050602081019050919050565b60008151905062002e89816200248f565b92915050565b600062002ea662002ea08462002e49565b6200202f565b9050808382526020820190506020840283018581111562002ecc5762002ecb620020e0565b5b835b8181101562002ef9578062002ee4888262002e78565b84526020840193505060208101905062002ece565b5050509392505050565b600082601f83011262002f1b5762002f1a620020ac565b5b815162002f2d84826020860162002e8f565b91505092915050565b60006020828403121562002f4f5762002f4e62001f2a565b5b600082015167ffffffffffffffff81111562002f705762002f6f62001f2f565b5b62002f7e8482850162002f03565b91505092915050565b600081519050919050565b600082825260208201905092915050565b6000819050602082019050919050565b600062002fc1838362001cbf565b60208301905092915050565b6000602082019050919050565b600062002fe78262002f87565b62002ff3818562002f92565b9350620030008362002fa3565b8060005b83811015620030375781516200301b888262002fb3565b9750620030288362002fcd565b92505060018101905062003004565b5085935050505092915050565b6000602082019050818103600083015262003060818462002fda565b905092915050565b6000815490506200307981620028ba565b9050919050565b818103620030905750506200317f565b6200309b8262003068565b67ffffffffffffffff811115620030b757620030b662001fca565b5b620030c38254620028ba565b620030d082828562002a26565b6000601f831160018114620031045760008415620030ef578287015490505b620030fb858262002aa3565b86555062003178565b601f1984166200311487620028ef565b96506200312186620028ef565b60005b828110156200314b5784890154825560018201915060018501945060208101905062003124565b868310156200316b578489015462003167601f89168262002a83565b8355505b6001600288020188555050505b5050505050505b565b600082825260208201905092915050565b7f4f6e6c79206f776e65722063616e20636c6f736520766f74696e670000000000600082015250565b6000620031ca601b8362003181565b9150620031d78262003192565b602082019050919050565b60006020820190508181036000830152620031fd81620031bb565b9050919050565b600067ffffffffffffffff82111562003222576200322162001fca565b5b602082029050602081019050919050565b600081519050620032448162001f34565b92915050565b6000620032616200325b8462003204565b6200202f565b90508083825260208201905060208402830185811115620032875762003286620020e0565b5b835b81811015620032b457806200329f888262003233565b84526020840193505060208101905062003289565b5050509392505050565b600082601f830112620032d657620032d5620020ac565b5b8151620032e88482602086016200324a565b91505092915050565b6000602082840312156200330a576200330962001f2a565b5b600082015167ffffffffffffffff8111156200332b576200332a62001f2f565b5b6200333984828501620032be565b91505092915050565b7f4e487b7100000000000000000000000000000000000000000000000000000000600052603260045260246000fd5b6200337c81620019a8565b82525050565b600060208201905062003399600083018462003371565b92915050565b600081519050620033b0816200207b565b92915050565b600060208284031215620033cf57620033ce62001f2a565b5b6000620033df848285016200339f565b91505092915050565b7f4e487b7100000000000000000000000000000000000000000000000000000000600052601160045260246000fd5b60006200342482620019cd565b91506200343183620019cd565b92508282019050808211156200344c576200344b620033e8565b5b92915050565b60006200345f82620019cd565b91507fffffffffffffffffffffffffffffffffffffffffffffffffffffffffffffffff8203620034945762003493620033e8565b5b600182019050919050565b600060208284031215620034b857620034b762001f2a565b5b6000620034c88482850162002e78565b91505092915050565b601f8211156200351c57620034e68162002c33565b620034f18462002904565b8101602085101562003501578190505b62003519620035108562002904565b830182620029ff565b50505b505050565b6200352c8262001c58565b67ffffffffffffffff81111562003548576200354762001fca565b5b620035548254620028ba565b62003561828285620034d1565b600060209050601f83116001811462003599576000841562003584578287015190505b62003590858262002aa3565b86555062003600565b601f198416620035a98662002c33565b60005b82811015620035d357848901518255600182019150602085019450602081019050620035ac565b86831015620035f35784890151620035ef601f89168262002a83565b8355505b6001600288020188555050505b505050505050565b6000815490506200361981620028ba565b9050919050565b818103620036305750506200371f565b6200363b8262003608565b67ffffffffffffffff81111562003657576200365662001fca565b5b620036638254620028ba565b62003670828285620034d1565b6000601f831160018114620036a457600084156200368f578287015490505b6200369b858262002aa3565b86555062003718565b601f198416620036b48762002c33565b9650620036c18662002c33565b60005b82811015620036eb57848901548255600182019150600185019450602081019050620036c4565b868310156200370b578489015462003707601f89168262002a83565b8355505b6001600288020188555050505b5050505050505b56fe60806040523480156200001157600080fd5b5060405162001686380380620016868339818101604052810190620000379190620002e8565b6001600360006101000a81548160ff02191690831515021790555033600360016101000a81548173ffffffffffffffffffffffffffffffffffffffff021916908373ffffffffffffffffffffffffffffffffffffffff1602179055508060059080519060200190620000ab929190620000b3565b505062000339565b828054828255906000526020600020908101928215620000f2579160200282015b82811115620000f1578251825591602001919060010190620000d4565b5b50905062000101919062000105565b5090565b5b808211156200012057600081600090555060010162000106565b5090565b6000604051905090565b600080fd5b600080fd5b600080fd5b6000601f19601f8301169050919050565b7f4e487b7100000000000000000000000000000000000000000000000000000000600052604160045260246000fd5b62000188826200013d565b810181811067ffffffffffffffff82111715620001aa57620001a96200014e565b5b80604052505050565b6000620001bf62000124565b9050620001cd82826200017d565b919050565b600067ffffffffffffffff821115620001f057620001ef6200014e565b5b602082029050602081019050919050565b600080fd5b6000819050919050565b6200021b8162000206565b81146200022757600080fd5b50565b6000815190506200023b8162000210565b92915050565b6000620002586200025284620001d2565b620001b3565b905080838252602082019050602084028301858111156200027e576200027d62000201565b5b835b81811015620002ab57806200029688826200022a565b84526020840193505060208101905062000280565b5050509392505050565b600082601f830112620002cd57620002cc62000138565b5b8151620002df84826020860162000241565b91505092915050565b6000602082840312156200030157620003006200012e565b5b600082015167ffffffffffffffff81111562000322576200032162000133565b5b6200033084828501620002b5565b91505092915050565b61133d80620003496000396000f3fe6080604052600436106100865760003560e01c806363d28dea1161005957806363d28dea1461016d5780638e7ea5b2146101985780639ef1204c146101c3578063a95824b4146101df578063c631b2921461020a57610086565b806306a49fce1461008b578063154573cd146100b65780633477ee2e146100f35780634c05110014610130575b600080fd5b34801561009757600080fd5b506100a0610221565b6040516100ad9190610aa0565b60405180910390f35b3480156100c257600080fd5b506100dd60048036038101906100d89190610b25565b610279565b6040516100ea9190610b6b565b60405180910390f35b3480156100ff57600080fd5b5061011a60048036038101906101159190610bb2565b610352565b6040516101279190610bee565b60405180910390f35b34801561013c57600080fd5b5061015760048036038101906101529190610c35565b610376565b6040516101649190610b6b565b60405180910390f35b34801561017957600080fd5b506101826103e2565b60405161018f9190610d20565b60405180910390f35b3480156101a457600080fd5b506101ad610500565b6040516101ba9190610bee565b60405180910390f35b6101dd60048036038101906101d89190610d42565b610612565b005b3480156101eb57600080fd5b506101f46108b6565b6040516102019190610d9d565b60405180910390f35b34801561021657600080fd5b5061021f6108c9565b005b6060600580548060200260200160405190810160405280929190818152602001828054801561026f57602002820191906000526020600020905b81548152602001906001019080831161025b575b5050505050905090565b6000600360019054906101000a900473ffffffffffffffffffffffffffffffffffffffff1673ffffffffffffffffffffffffffffffffffffffff163373ffffffffffffffffffffffffffffffffffffffff161461030b576040517f08c379a000000000000000000000000000000000000000000000000000000000815260040161030290610e3b565b60405180910390fd5b600260008373ffffffffffffffffffffffffffffffffffffffff1673ffffffffffffffffffffffffffffffffffffffff168152602001908152602001600020549050919050565b6005818154811061036257600080fd5b906000526020600020016000915090505481565b6000600360009054906101000a900460ff16156103c8576040517f08c379a00000000000000000000000000000000000000000000000000000000081526004016103bf90610ecd565b60405180910390fd5b600080838152602001908152602001600020549050919050565b6060600360019054906101000a900473ffffffffffffffffffffffffffffffffffffffff1673ffffffffffffffffffffffffffffffffffffffff163373ffffffffffffffffffffffffffffffffffffffff1614610474576040517f08c379a000000000000000000000000000000000000000000000000000000000815260040161046b90610f5f565b60405180910390fd5b60048054806020026020016040519081016040528092919081815260200182805480156104f657602002820191906000526020600020905b8160009054906101000a900473ffffffffffffffffffffffffffffffffffffffff1673ffffffffffffffffffffffffffffffffffffffff16815260200190600101908083116104ac575b5050505050905090565b6000600360009054906101000a900460ff1615610552576040517f08c379a000000000000000000000000000000000000000000000000000000000815260040161054990610ff1565b60405180910390fd5b6000806000905060005b60058054905081101561060957816000806005848154811061058157610580611011565b5b906000526020600020015481526020019081526020016000205411156105f657600080600583815481106105b8576105b7611011565b5b90600052602060002001548152602001908152602001600020549150600581815481106105e8576105e7611011565b5b906000526020600020015492505b80806106019061106f565b91505061055c565b50819250505090565b600360009054906101000a900460ff16610661576040517f08c379a000000000000000000000000000000000000000000000000000000000815260040161065890611103565b60405180910390fd5b600081116106a4576040517f08c379a000000000000000000000000000000000000000000000000000000000815260040161069b9061116f565b60405180910390fd5b600160003373ffffffffffffffffffffffffffffffffffffffff1673ffffffffffffffffffffffffffffffffffffffff16815260200190815260200160002060009054906101000a900460ff1615610731576040517f08c379a0000000000000000000000000000000000000000000000000000000008152600401610728906111db565b60405180910390fd5b61073a82610976565b610779576040517f08c379a000000000000000000000000000000000000000000000000000000000815260040161077090611247565b60405180910390fd5b80600080848152602001908152602001600020600082825461079b9190611267565b9250508190555080600260003373ffffffffffffffffffffffffffffffffffffffff1673ffffffffffffffffffffffffffffffffffffffff16815260200190815260200160002060008282546107f19190611267565b9250508190555060018060003373ffffffffffffffffffffffffffffffffffffffff1673ffffffffffffffffffffffffffffffffffffffff16815260200190815260200160002060006101000a81548160ff0219169083151502179055506004339080600181540180825580915050600190039060005260206000200160009091909190916101000a81548173ffffffffffffffffffffffffffffffffffffffff021916908373ffffffffffffffffffffffffffffffffffffffff1602179055505050565b600360009054906101000a900460ff1681565b600360019054906101000a900473ffffffffffffffffffffffffffffffffffffffff1673ffffffffffffffffffffffffffffffffffffffff163373ffffffffffffffffffffffffffffffffffffffff1614610959576040517f08c379a0000000000000000000000000000000000000000000000000000000008152600401610950906112e7565b60405180910390fd5b6000600360006101000a81548160ff021916908315150217905550565b600080600090505b6005805490508110156109cd5782600582815481106109a05761099f611011565b5b9060005260206000200154036109ba5760019150506109d3565b80806109c59061106f565b91505061097e565b50600090505b919050565b600081519050919050565b600082825260208201905092915050565b6000819050602082019050919050565b6000819050919050565b610a1781610a04565b82525050565b6000610a298383610a0e565b60208301905092915050565b6000602082019050919050565b6000610a4d826109d8565b610a5781856109e3565b9350610a62836109f4565b8060005b83811015610a93578151610a7a8882610a1d565b9750610a8583610a35565b925050600181019050610a66565b5085935050505092915050565b60006020820190508181036000830152610aba8184610a42565b905092915050565b600080fd5b600073ffffffffffffffffffffffffffffffffffffffff82169050919050565b6000610af282610ac7565b9050919050565b610b0281610ae7565b8114610b0d57600080fd5b50565b600081359050610b1f81610af9565b92915050565b600060208284031215610b3b57610b3a610ac2565b5b6000610b4984828501610b10565b91505092915050565b6000819050919050565b610b6581610b52565b82525050565b6000602082019050610b806000830184610b5c565b92915050565b610b8f81610b52565b8114610b9a57600080fd5b50565b600081359050610bac81610b86565b92915050565b600060208284031215610bc857610bc7610ac2565b5b6000610bd684828501610b9d565b91505092915050565b610be881610a04565b82525050565b6000602082019050610c036000830184610bdf565b92915050565b610c1281610a04565b8114610c1d57600080fd5b50565b600081359050610c2f81610c09565b92915050565b600060208284031215610c4b57610c4a610ac2565b5b6000610c5984828501610c20565b91505092915050565b600081519050919050565b600082825260208201905092915050565b6000819050602082019050919050565b610c9781610ae7565b82525050565b6000610ca98383610c8e565b60208301905092915050565b6000602082019050919050565b6000610ccd82610c62565b610cd78185610c6d565b9350610ce283610c7e565b8060005b83811015610d13578151610cfa8882610c9d565b9750610d0583610cb5565b925050600181019050610ce6565b5085935050505092915050565b60006020820190508181036000830152610d3a8184610cc2565b905092915050565b60008060408385031215610d5957610d58610ac2565b5b6000610d6785828601610c20565b9250506020610d7885828601610b9d565b9150509250929050565b60008115159050919050565b610d9781610d82565b82525050565b6000602082019050610db26000830184610d8e565b92915050565b600082825260208201905092915050565b7f4f6e6c79206f776e65722063616e206765742074686520616d6f756e7420612060008201527f616464726573732068617320766f746564000000000000000000000000000000602082015250565b6000610e25603183610db8565b9150610e3082610dc9565b604082019050919050565b60006020820190508181036000830152610e5481610e18565b9050919050565b7f566f74696e67206d75737420626520636c6f73656420746f2067657420766f7460008201527f6573000000000000000000000000000000000000000000000000000000000000602082015250565b6000610eb7602283610db8565b9150610ec282610e5b565b604082019050919050565b60006020820190508181036000830152610ee681610eaa565b9050919050565b7f4f6e6c79206f776e65722063616e20676574207468652061646472657373206860008201527f617320766f746564000000000000000000000000000000000000000000000000602082015250565b6000610f49602883610db8565b9150610f5482610eed565b604082019050919050565b60006020820190508181036000830152610f7881610f3c565b9050919050565b7f566f74696e67206d75737420626520636c6f73656420746f206765742074686560008201527f2077696e6e657200000000000000000000000000000000000000000000000000602082015250565b6000610fdb602783610db8565b9150610fe682610f7f565b604082019050919050565b6000602082019050818103600083015261100a81610fce565b9050919050565b7f4e487b7100000000000000000000000000000000000000000000000000000000600052603260045260246000fd5b7f4e487b7100000000000000000000000000000000000000000000000000000000600052601160045260246000fd5b600061107a82610b52565b91507fffffffffffffffffffffffffffffffffffffffffffffffffffffffffffffffff82036110ac576110ab611040565b5b600182019050919050565b7f566f74696e6720697320636c6f73656400000000000000000000000000000000600082015250565b60006110ed601083610db8565b91506110f8826110b7565b602082019050919050565b6000602082019050818103600083015261111c816110e0565b9050919050565b7f416d6f756e74206d7573742062652067726561746572207468616e2030000000600082015250565b6000611159601d83610db8565b915061116482611123565b602082019050919050565b600060208201905081810360008301526111888161114c565b9050919050565b7f596f75206861766520616c726561647920766f74656400000000000000000000600082015250565b60006111c5601683610db8565b91506111d08261118f565b602082019050919050565b600060208201905081810360008301526111f4816111b8565b9050919050565b7f496e76616c69642063616e646964617465000000000000000000000000000000600082015250565b6000611231601183610db8565b915061123c826111fb565b602082019050919050565b6000602082019050818103600083015261126081611224565b9050919050565b600061127282610b52565b915061127d83610b52565b925082820190508082111561129557611294611040565b5b92915050565b7f4f6e6c79206f776e65722063616e20636c6f736520766f74696e670000000000600082015250565b60006112d1601b83610db8565b91506112dc8261129b565b602082019050919050565b60006020820190508181036000830152611300816112c4565b905091905056fea2646970667358221220539dae188e9d9c5b23cc30e6e141f2d6d0a7f7da0c2f56c254d24e71ab7d3c6264736f6c63430008130033a26469706673582212204438cdfff955636356189db73e92e49c09fc5b723722193fcb92e054fec3204964736f6c63430008130033",
  "immutableReferences": {},
  "source": "// SPDX-License-Identifier: GPL-3.0\r\n\r\npragma solidity ^0.8.0;\r\n\r\nimport \"./libraries/Utils.sol\";\r\nimport \"./Voting.sol\";\r\n\r\ncontract GameStates {\r\n    address owner;\r\n    bool canChangeState = true;\r\n\r\n    Utils.State currentState;\r\n    Utils.State[] states;\r\n    Voting currentVoting;\r\n\r\n    mapping(address => uint256) public addressPlayed;\r\n\r\n    constructor() {\r\n        owner = msg.sender;\r\n    }\r\n\r\n    function changeState(Utils.State memory newState) public {\r\n        currentState.state = newState.state;\r\n        currentState.player = newState.player;\r\n        currentState.level = newState.level;\r\n        Utils.copyOptions(currentState, newState.options);\r\n\r\n        //Open new voting with state options\r\n        currentVoting = new Voting(Utils.getOptionValues(currentState.options));\r\n        currentState.voting = address(currentVoting);\r\n\r\n        states.push(currentState);\r\n    }\r\n\r\n    function closeVoting() public returns (Utils.Option memory) {\r\n        require(msg.sender == owner, \"Only owner can close voting\");\r\n        currentVoting.closeVoting();\r\n        address[] memory addressVoted = currentVoting.getAddressHasVoted();\r\n\r\n        //Saves the addresses that have participated in the vote\r\n        for (uint i = 0; i < addressVoted.length; i++) {\r\n            addressPlayed[addressVoted[i]] += currentVoting\r\n                .getAddressVotedAmount(addressVoted[i]);\r\n        }\r\n\r\n        bytes32 winner = currentVoting.getWinner();\r\n\r\n        for (uint i = 0; i < currentState.options.length; i++) {\r\n            if (currentState.options[i].option == winner) {\r\n                return currentState.options[i];\r\n            }\r\n        }\r\n\r\n        //Should never return this (always winner in options)\r\n        return currentState.options[0];\r\n    }\r\n\r\n    function getGameStates() public view returns (Utils.State[] memory) {\r\n        return states;\r\n    }\r\n\r\n    function getCurrentState() public view returns (Utils.State memory) {\r\n        return currentState;\r\n    }\r\n}\r\n",
  "sourcePath": "C:\\Users\\angma\\OneDrive\\Escritorio\\TFM\\tfm_backend\\contracts\\GameStates.sol",
  "compiler": {
    "name": "solc",
    "version": "0.8.19+commit.7dd6d404.Emscripten.clang"
  },
  "schemaVersion": "3.4.13",
  "updatedAt": "2023-04-30T16:29:20.824Z",
  "devdoc": {
    "kind": "dev",
    "methods": {},
    "version": 1
  },
  "userdoc": {
    "kind": "user",
    "methods": {},
    "version": 1
  }
}