{
  "contractName": "GameStates",
  "abi": [
    {
      "inputs": [],
      "stateMutability": "nonpayable",
      "type": "constructor"
    },
    {
      "inputs": [
        {
          "internalType": "address",
          "name": "",
          "type": "address"
        }
      ],
      "name": "addressPlayed",
      "outputs": [
        {
          "internalType": "uint256",
          "name": "",
          "type": "uint256"
        }
      ],
      "stateMutability": "view",
      "type": "function"
    },
    {
      "inputs": [
        {
          "components": [
            {
              "internalType": "uint256",
              "name": "id",
              "type": "uint256"
            },
            {
              "internalType": "enum Utils.StatesTypes",
              "name": "state",
              "type": "uint8"
            },
            {
              "internalType": "address",
              "name": "voting",
              "type": "address"
            },
            {
              "components": [
                {
                  "internalType": "uint256",
                  "name": "health",
                  "type": "uint256"
                },
                {
                  "internalType": "string[]",
                  "name": "weapons",
                  "type": "string[]"
                }
              ],
              "internalType": "struct Utils.Player",
              "name": "player",
              "type": "tuple"
            },
            {
              "components": [
                {
                  "internalType": "string",
                  "name": "name",
                  "type": "string"
                },
                {
                  "internalType": "string[]",
                  "name": "enemies",
                  "type": "string[]"
                }
              ],
              "internalType": "struct Utils.Level",
              "name": "level",
              "type": "tuple"
            },
            {
              "internalType": "string",
              "name": "enemy",
              "type": "string"
            },
            {
              "components": [
                {
                  "internalType": "enum Utils.OptionTypes",
                  "name": "optionType",
                  "type": "uint8"
                },
                {
                  "internalType": "bytes",
                  "name": "data",
                  "type": "bytes"
                },
                {
                  "internalType": "bytes32",
                  "name": "option",
                  "type": "bytes32"
                }
              ],
              "internalType": "struct Utils.Option[]",
              "name": "options",
              "type": "tuple[]"
            }
          ],
          "internalType": "struct Utils.State",
          "name": "newState",
          "type": "tuple"
        }
      ],
      "name": "changeState",
      "outputs": [],
      "stateMutability": "nonpayable",
      "type": "function"
    },
    {
      "inputs": [],
      "name": "closeVoting",
      "outputs": [],
      "stateMutability": "nonpayable",
      "type": "function"
    },
    {
      "inputs": [
        {
          "internalType": "uint256",
          "name": "stateId",
          "type": "uint256"
        }
      ],
      "name": "getWinnerOption",
      "outputs": [
        {
          "components": [
            {
              "internalType": "enum Utils.OptionTypes",
              "name": "optionType",
              "type": "uint8"
            },
            {
              "internalType": "bytes",
              "name": "data",
              "type": "bytes"
            },
            {
              "internalType": "bytes32",
              "name": "option",
              "type": "bytes32"
            }
          ],
          "internalType": "struct Utils.Option",
          "name": "",
          "type": "tuple"
        }
      ],
      "stateMutability": "view",
      "type": "function"
    },
    {
      "inputs": [],
      "name": "getGameStates",
      "outputs": [
        {
          "components": [
            {
              "internalType": "uint256",
              "name": "id",
              "type": "uint256"
            },
            {
              "internalType": "enum Utils.StatesTypes",
              "name": "state",
              "type": "uint8"
            },
            {
              "internalType": "address",
              "name": "voting",
              "type": "address"
            },
            {
              "components": [
                {
                  "internalType": "uint256",
                  "name": "health",
                  "type": "uint256"
                },
                {
                  "internalType": "string[]",
                  "name": "weapons",
                  "type": "string[]"
                }
              ],
              "internalType": "struct Utils.Player",
              "name": "player",
              "type": "tuple"
            },
            {
              "components": [
                {
                  "internalType": "string",
                  "name": "name",
                  "type": "string"
                },
                {
                  "internalType": "string[]",
                  "name": "enemies",
                  "type": "string[]"
                }
              ],
              "internalType": "struct Utils.Level",
              "name": "level",
              "type": "tuple"
            },
            {
              "internalType": "string",
              "name": "enemy",
              "type": "string"
            },
            {
              "components": [
                {
                  "internalType": "enum Utils.OptionTypes",
                  "name": "optionType",
                  "type": "uint8"
                },
                {
                  "internalType": "bytes",
                  "name": "data",
                  "type": "bytes"
                },
                {
                  "internalType": "bytes32",
                  "name": "option",
                  "type": "bytes32"
                }
              ],
              "internalType": "struct Utils.Option[]",
              "name": "options",
              "type": "tuple[]"
            }
          ],
          "internalType": "struct Utils.State[]",
          "name": "",
          "type": "tuple[]"
        }
      ],
      "stateMutability": "view",
      "type": "function"
    },
    {
      "inputs": [],
      "name": "getCurrentState",
      "outputs": [
        {
          "components": [
            {
              "internalType": "uint256",
              "name": "id",
              "type": "uint256"
            },
            {
              "internalType": "enum Utils.StatesTypes",
              "name": "state",
              "type": "uint8"
            },
            {
              "internalType": "address",
              "name": "voting",
              "type": "address"
            },
            {
              "components": [
                {
                  "internalType": "uint256",
                  "name": "health",
                  "type": "uint256"
                },
                {
                  "internalType": "string[]",
                  "name": "weapons",
                  "type": "string[]"
                }
              ],
              "internalType": "struct Utils.Player",
              "name": "player",
              "type": "tuple"
            },
            {
              "components": [
                {
                  "internalType": "string",
                  "name": "name",
                  "type": "string"
                },
                {
                  "internalType": "string[]",
                  "name": "enemies",
                  "type": "string[]"
                }
              ],
              "internalType": "struct Utils.Level",
              "name": "level",
              "type": "tuple"
            },
            {
              "internalType": "string",
              "name": "enemy",
              "type": "string"
            },
            {
              "components": [
                {
                  "internalType": "enum Utils.OptionTypes",
                  "name": "optionType",
                  "type": "uint8"
                },
                {
                  "internalType": "bytes",
                  "name": "data",
                  "type": "bytes"
                },
                {
                  "internalType": "bytes32",
                  "name": "option",
                  "type": "bytes32"
                }
              ],
              "internalType": "struct Utils.Option[]",
              "name": "options",
              "type": "tuple[]"
            }
          ],
          "internalType": "struct Utils.State",
          "name": "",
          "type": "tuple"
        }
      ],
      "stateMutability": "view",
      "type": "function"
    }
  ],
  "bytecode": "0x60806040526001600060146101000a81548160ff02191690831515021790555034801561002b57600080fd5b50336000806101000a81548173ffffffffffffffffffffffffffffffffffffffff021916908373ffffffffffffffffffffffffffffffffffffffff160217905550615e3a8061007b6000396000f3fe60806040523480156200001157600080fd5b50600436106200006a5760003560e01c80630abcdf94146200006f57806311d69a3714620000915780631df8dcd114620000c7578063378aa70114620000e7578063c631b2921462000109578063d1b3d1f61462000115575b600080fd5b620000796200014b565b60405162000088919062003e72565b60405180910390f35b620000af6004803603810190620000a99190620033cc565b6200074f565b604051620000be919062003f22565b60405180910390f35b620000e56004803603810190620000df9190620034ae565b62000767565b005b620000f162000c5d565b60405162000100919062003efe565b60405180910390f35b620001136200121c565b005b6200013360048036038101906200012d9190620034f3565b62001640565b60405162000142919062003eda565b60405180910390f35b60606009805480602002602001604051908101604052809291908181526020016000905b828210156200074657838290600052602060002090600802016040518060e0016040529081600082015481526020016001820160009054906101000a900460ff166003811115620001e9577f4e487b7100000000000000000000000000000000000000000000000000000000600052602160045260246000fd5b600381111562000222577f4e487b7100000000000000000000000000000000000000000000000000000000600052602160045260246000fd5b81526020016001820160019054906101000a900473ffffffffffffffffffffffffffffffffffffffff1673ffffffffffffffffffffffffffffffffffffffff1673ffffffffffffffffffffffffffffffffffffffff168152602001600282016040518060400160405290816000820154815260200160018201805480602002602001604051908101604052809291908181526020016000905b8282101562000371578382906000526020600020018054620002dd906200438d565b80601f01602080910402602001604051908101604052809291908181526020018280546200030b906200438d565b80156200035c5780601f1062000330576101008083540402835291602001916200035c565b820191906000526020600020905b8154815290600101906020018083116200033e57829003601f168201915b505050505081526020019060010190620002bb565b50505050815250508152602001600482016040518060400160405290816000820180546200039f906200438d565b80601f0160208091040260200160405190810160405280929190818152602001828054620003cd906200438d565b80156200041e5780601f10620003f2576101008083540402835291602001916200041e565b820191906000526020600020905b8154815290600101906020018083116200040057829003601f168201915b5050505050815260200160018201805480602002602001604051908101604052809291908181526020016000905b82821015620005025783829060005260206000200180546200046e906200438d565b80601f01602080910402602001604051908101604052809291908181526020018280546200049c906200438d565b8015620004ed5780601f10620004c157610100808354040283529160200191620004ed565b820191906000526020600020905b815481529060010190602001808311620004cf57829003601f168201915b5050505050815260200190600101906200044c565b5050505081525050815260200160068201805462000520906200438d565b80601f01602080910402602001604051908101604052809291908181526020018280546200054e906200438d565b80156200059f5780601f1062000573576101008083540402835291602001916200059f565b820191906000526020600020905b8154815290600101906020018083116200058157829003601f168201915b5050505050815260200160078201805480602002602001604051908101604052809291908181526020016000905b828210156200072e57838290600052602060002090600302016040518060600160405290816000820160009054906101000a900460ff1660038111156200063d577f4e487b7100000000000000000000000000000000000000000000000000000000600052602160045260246000fd5b600381111562000676577f4e487b7100000000000000000000000000000000000000000000000000000000600052602160045260246000fd5b81526020016001820180546200068c906200438d565b80601f0160208091040260200160405190810160405280929190818152602001828054620006ba906200438d565b80156200070b5780601f10620006df576101008083540402835291602001916200070b565b820191906000526020600020905b815481529060010190602001808311620006ed57829003601f168201915b5050505050815260200160028201548152505081526020019060010190620005cd565b5050505081525050815260200190600101906200016f565b50505050905090565b600b6020528060005260406000206000915090505481565b60008054906101000a900473ffffffffffffffffffffffffffffffffffffffff1673ffffffffffffffffffffffffffffffffffffffff163373ffffffffffffffffffffffffffffffffffffffff1614620007f8576040517f08c379a0000000000000000000000000000000000000000000000000000000008152600401620007ef9062003e96565b60405180910390fd5b600060149054906101000a900460ff166200084a576040517f08c379a0000000000000000000000000000000000000000000000000000000008152600401620008419062003eb8565b60405180910390fd5b620008576001826200231f565b60008160c00151511115620009eb576200087760018260c001516200244e565b73__Utils_________________________________63fdc1571860016007016040518263ffffffff1660e01b8152600401620008b4919062003e4e565b60006040518083038186803b158015620008cd57600080fd5b505af4158015620008e2573d6000803e3d6000fd5b505050506040513d6000823e3d601f19601f820116820180604052508101906200090d91906200343d565b6040516200091b906200269c565b62000927919062003e2a565b604051809103906000f08015801562000944573d6000803e3d6000fd5b50600a60006101000a81548173ffffffffffffffffffffffffffffffffffffffff021916908373ffffffffffffffffffffffffffffffffffffffff160217905550600a60009054906101000a900473ffffffffffffffffffffffffffffffffffffffff166001800160016101000a81548173ffffffffffffffffffffffffffffffffffffffff021916908373ffffffffffffffffffffffffffffffffffffffff1602179055505b60038081111562000a25577f4e487b7100000000000000000000000000000000000000000000000000000000600052602160045260246000fd5b6001800160009054906101000a900460ff16600381111562000a70577f4e487b7100000000000000000000000000000000000000000000000000000000600052602160045260246000fd5b141562000aa5576001600701600062000a8a9190620026aa565b60008060146101000a81548160ff0219169083151502179055505b600960019080600181540180825580915050600190039060005260206000209060080201600090919091909150600082015481600001556001820160009054906101000a900460ff168160010160006101000a81548160ff0219169083600381111562000b3b577f4e487b7100000000000000000000000000000000000000000000000000000000600052602160045260246000fd5b02179055506001820160019054906101000a900473ffffffffffffffffffffffffffffffffffffffff168160010160016101000a81548173ffffffffffffffffffffffffffffffffffffffff021916908373ffffffffffffffffffffffffffffffffffffffff160217905550600282018160020160008201548160000155600182018160010190805462000bd1929190620026d0565b5050506004820181600401600082018160000190805462000bf2906200438d565b62000bff92919062002741565b50600182018160010190805462000c18929190620026d0565b505050600682018160060190805462000c31906200438d565b62000c3e92919062002741565b50600782018160070190805462000c57929190620027d9565b50505050565b62000c67620028c8565b60016040518060e0016040529081600082015481526020016001820160009054906101000a900460ff16600381111562000cca577f4e487b7100000000000000000000000000000000000000000000000000000000600052602160045260246000fd5b600381111562000d03577f4e487b7100000000000000000000000000000000000000000000000000000000600052602160045260246000fd5b81526020016001820160019054906101000a900473ffffffffffffffffffffffffffffffffffffffff1673ffffffffffffffffffffffffffffffffffffffff1673ffffffffffffffffffffffffffffffffffffffff168152602001600282016040518060400160405290816000820154815260200160018201805480602002602001604051908101604052809291908181526020016000905b8282101562000e5257838290600052602060002001805462000dbe906200438d565b80601f016020809104026020016040519081016040528092919081815260200182805462000dec906200438d565b801562000e3d5780601f1062000e115761010080835404028352916020019162000e3d565b820191906000526020600020905b81548152906001019060200180831162000e1f57829003601f168201915b50505050508152602001906001019062000d9c565b505050508152505081526020016004820160405180604001604052908160008201805462000e80906200438d565b80601f016020809104026020016040519081016040528092919081815260200182805462000eae906200438d565b801562000eff5780601f1062000ed35761010080835404028352916020019162000eff565b820191906000526020600020905b81548152906001019060200180831162000ee157829003601f168201915b5050505050815260200160018201805480602002602001604051908101604052809291908181526020016000905b8282101562000fe357838290600052602060002001805462000f4f906200438d565b80601f016020809104026020016040519081016040528092919081815260200182805462000f7d906200438d565b801562000fce5780601f1062000fa25761010080835404028352916020019162000fce565b820191906000526020600020905b81548152906001019060200180831162000fb057829003601f168201915b50505050508152602001906001019062000f2d565b5050505081525050815260200160068201805462001001906200438d565b80601f01602080910402602001604051908101604052809291908181526020018280546200102f906200438d565b8015620010805780601f10620010545761010080835404028352916020019162001080565b820191906000526020600020905b8154815290600101906020018083116200106257829003601f168201915b5050505050815260200160078201805480602002602001604051908101604052809291908181526020016000905b828210156200120f57838290600052602060002090600302016040518060600160405290816000820160009054906101000a900460ff1660038111156200111e577f4e487b7100000000000000000000000000000000000000000000000000000000600052602160045260246000fd5b600381111562001157577f4e487b7100000000000000000000000000000000000000000000000000000000600052602160045260246000fd5b81526020016001820180546200116d906200438d565b80601f01602080910402602001604051908101604052809291908181526020018280546200119b906200438d565b8015620011ec5780601f10620011c057610100808354040283529160200191620011ec565b820191906000526020600020905b815481529060010190602001808311620011ce57829003601f168201915b5050505050815260200160028201548152505081526020019060010190620010ae565b5050505081525050905090565b60008054906101000a900473ffffffffffffffffffffffffffffffffffffffff1673ffffffffffffffffffffffffffffffffffffffff163373ffffffffffffffffffffffffffffffffffffffff1614620012ad576040517f08c379a0000000000000000000000000000000000000000000000000000000008152600401620012a49062003e96565b60405180910390fd5b600a60009054906101000a900473ffffffffffffffffffffffffffffffffffffffff1673ffffffffffffffffffffffffffffffffffffffff1663c631b2926040518163ffffffff1660e01b8152600401600060405180830381600087803b1580156200131857600080fd5b505af11580156200132d573d6000803e3d6000fd5b505050506000600a60009054906101000a900473ffffffffffffffffffffffffffffffffffffffff1673ffffffffffffffffffffffffffffffffffffffff166363d28dea6040518163ffffffff1660e01b815260040160006040518083038186803b1580156200139c57600080fd5b505afa158015620013b1573d6000803e3d6000fd5b505050506040513d6000823e3d601f19601f82011682018060405250810190620013dc9190620033f8565b905060005b81518110156200158b57600a60009054906101000a900473ffffffffffffffffffffffffffffffffffffffff1673ffffffffffffffffffffffffffffffffffffffff1663154573cd83838151811062001463577f4e487b7100000000000000000000000000000000000000000000000000000000600052603260045260246000fd5b60200260200101516040518263ffffffff1660e01b815260040162001489919062003df0565b60206040518083038186803b158015620014a257600080fd5b505afa158015620014b7573d6000803e3d6000fd5b505050506040513d601f19601f82011682018060405250810190620014dd91906200351f565b600b60008484815181106200151b577f4e487b7100000000000000000000000000000000000000000000000000000000600052603260045260246000fd5b602002602001015173ffffffffffffffffffffffffffffffffffffffff1673ffffffffffffffffffffffffffffffffffffffff16815260200190815260200160002060008282546200156e919062004226565b9250508190555080806200158290620043ff565b915050620013e1565b50600a60009054906101000a900473ffffffffffffffffffffffffffffffffffffffff1673ffffffffffffffffffffffffffffffffffffffff1663c208183260008054906101000a900473ffffffffffffffffffffffffffffffffffffffff166040518263ffffffff1660e01b815260040162001609919062003e0d565b600060405180830381600087803b1580156200162457600080fd5b505af115801562001639573d6000803e3d6000fd5b5050505050565b6200164a62002964565b600060016040518060e0016040529081600082015481526020016001820160009054906101000a900460ff166003811115620016af577f4e487b7100000000000000000000000000000000000000000000000000000000600052602160045260246000fd5b6003811115620016e8577f4e487b7100000000000000000000000000000000000000000000000000000000600052602160045260246000fd5b81526020016001820160019054906101000a900473ffffffffffffffffffffffffffffffffffffffff1673ffffffffffffffffffffffffffffffffffffffff1673ffffffffffffffffffffffffffffffffffffffff168152602001600282016040518060400160405290816000820154815260200160018201805480602002602001604051908101604052809291908181526020016000905b8282101562001837578382906000526020600020018054620017a3906200438d565b80601f0160208091040260200160405190810160405280929190818152602001828054620017d1906200438d565b8015620018225780601f10620017f65761010080835404028352916020019162001822565b820191906000526020600020905b8154815290600101906020018083116200180457829003601f168201915b50505050508152602001906001019062001781565b505050508152505081526020016004820160405180604001604052908160008201805462001865906200438d565b80601f016020809104026020016040519081016040528092919081815260200182805462001893906200438d565b8015620018e45780601f10620018b857610100808354040283529160200191620018e4565b820191906000526020600020905b815481529060010190602001808311620018c657829003601f168201915b5050505050815260200160018201805480602002602001604051908101604052809291908181526020016000905b82821015620019c857838290600052602060002001805462001934906200438d565b80601f016020809104026020016040519081016040528092919081815260200182805462001962906200438d565b8015620019b35780601f106200198757610100808354040283529160200191620019b3565b820191906000526020600020905b8154815290600101906020018083116200199557829003601f168201915b50505050508152602001906001019062001912565b50505050815250508152602001600682018054620019e6906200438d565b80601f016020809104026020016040519081016040528092919081815260200182805462001a14906200438d565b801562001a655780601f1062001a395761010080835404028352916020019162001a65565b820191906000526020600020905b81548152906001019060200180831162001a4757829003601f168201915b5050505050815260200160078201805480602002602001604051908101604052809291908181526020016000905b8282101562001bf457838290600052602060002090600302016040518060600160405290816000820160009054906101000a900460ff16600381111562001b03577f4e487b7100000000000000000000000000000000000000000000000000000000600052602160045260246000fd5b600381111562001b3c577f4e487b7100000000000000000000000000000000000000000000000000000000600052602160045260246000fd5b815260200160018201805462001b52906200438d565b80601f016020809104026020016040519081016040528092919081815260200182805462001b80906200438d565b801562001bd15780601f1062001ba55761010080835404028352916020019162001bd1565b820191906000526020600020905b81548152906001019060200180831162001bb357829003601f168201915b505050505081526020016002820154815250508152602001906001019062001a93565b5050505081525050905060005b6009805490508110156200227957836009828154811062001c4b577f4e487b7100000000000000000000000000000000000000000000000000000000600052603260045260246000fd5b906000526020600020906008020160000154141562002263576009818154811062001c9f577f4e487b7100000000000000000000000000000000000000000000000000000000600052603260045260246000fd5b90600052602060002090600802016040518060e0016040529081600082015481526020016001820160009054906101000a900460ff16600381111562001d0e577f4e487b7100000000000000000000000000000000000000000000000000000000600052602160045260246000fd5b600381111562001d47577f4e487b7100000000000000000000000000000000000000000000000000000000600052602160045260246000fd5b81526020016001820160019054906101000a900473ffffffffffffffffffffffffffffffffffffffff1673ffffffffffffffffffffffffffffffffffffffff1673ffffffffffffffffffffffffffffffffffffffff168152602001600282016040518060400160405290816000820154815260200160018201805480602002602001604051908101604052809291908181526020016000905b8282101562001e9657838290600052602060002001805462001e02906200438d565b80601f016020809104026020016040519081016040528092919081815260200182805462001e30906200438d565b801562001e815780601f1062001e555761010080835404028352916020019162001e81565b820191906000526020600020905b81548152906001019060200180831162001e6357829003601f168201915b50505050508152602001906001019062001de0565b505050508152505081526020016004820160405180604001604052908160008201805462001ec4906200438d565b80601f016020809104026020016040519081016040528092919081815260200182805462001ef2906200438d565b801562001f435780601f1062001f175761010080835404028352916020019162001f43565b820191906000526020600020905b81548152906001019060200180831162001f2557829003601f168201915b5050505050815260200160018201805480602002602001604051908101604052809291908181526020016000905b828210156200202757838290600052602060002001805462001f93906200438d565b80601f016020809104026020016040519081016040528092919081815260200182805462001fc1906200438d565b8015620020125780601f1062001fe65761010080835404028352916020019162002012565b820191906000526020600020905b81548152906001019060200180831162001ff457829003601f168201915b50505050508152602001906001019062001f71565b5050505081525050815260200160068201805462002045906200438d565b80601f016020809104026020016040519081016040528092919081815260200182805462002073906200438d565b8015620020c45780601f106200209857610100808354040283529160200191620020c4565b820191906000526020600020905b815481529060010190602001808311620020a657829003601f168201915b5050505050815260200160078201805480602002602001604051908101604052809291908181526020016000905b828210156200225357838290600052602060002090600302016040518060600160405290816000820160009054906101000a900460ff16600381111562002162577f4e487b7100000000000000000000000000000000000000000000000000000000600052602160045260246000fd5b60038111156200219b577f4e487b7100000000000000000000000000000000000000000000000000000000600052602160045260246000fd5b8152602001600182018054620021b1906200438d565b80601f0160208091040260200160405190810160405280929190818152602001828054620021df906200438d565b8015620022305780601f10620022045761010080835404028352916020019162002230565b820191906000526020600020905b8154815290600101906020018083116200221257829003601f168201915b5050505050815260200160028201548152505081526020019060010190620020f2565b5050505081525050915062002279565b80806200227090620043ff565b91505062001c01565b5060008160400151905060008173ffffffffffffffffffffffffffffffffffffffff16638e7ea5b26040518163ffffffff1660e01b815260040160206040518083038186803b158015620022cc57600080fd5b505afa158015620022e1573d6000803e3d6000fd5b505050506040513d601f19601f8201168201806040525081019062002307919062003482565b905062002315818462002579565b9350505050919050565b42336040516020016200233492919062003dc0565b6040516020818303038152906040528051906020012060001c826000018190555080602001518260010160006101000a81548160ff02191690836003811115620023a7577f4e487b7100000000000000000000000000000000000000000000000000000000600052602160045260246000fd5b0217905550806060015182600201600082015181600001556020820151816001019080519060200190620023dd929190620029c1565b5090505080608001518260040160008201518160000190805190602001906200240892919062002a28565b50602082015181600101908051906020019062002427929190620029c1565b509050508060a001518260060190805190602001906200244992919062002a28565b505050565b816007016000620024609190620026aa565b60005b8151811015620025745782600701828281518110620024ab577f4e487b7100000000000000000000000000000000000000000000000000000000600052603260045260246000fd5b6020026020010151908060018154018082558091505060019003906000526020600020906003020160009091909190915060008201518160000160006101000a81548160ff021916908360038111156200252e577f4e487b7100000000000000000000000000000000000000000000000000000000600052602160045260246000fd5b021790555060208201518160010190805190602001906200255192919062002ab9565b5060408201518160020155505080806200256b90620043ff565b91505062002463565b505050565b6200258362002964565b60005b8260c00151518110156200264b57838360c001518281518110620025d3577f4e487b7100000000000000000000000000000000000000000000000000000000600052603260045260246000fd5b602002602001015160400151141562002635578260c00151818151811062002624577f4e487b7100000000000000000000000000000000000000000000000000000000600052603260045260246000fd5b602002602001015191505062002696565b80806200264290620043ff565b91505062002586565b508160c001516000815181106200268b577f4e487b7100000000000000000000000000000000000000000000000000000000600052603260045260246000fd5b602002602001015190505b92915050565b611800806200460583390190565b5080546000825560030290600052602060002090810190620026cd919062002b4a565b50565b8280548282559060005260206000209081019282156200272e5760005260206000209182015b828111156200272d5782829080546200270f906200438d565b6200271c92919062002741565b5091600101919060010190620026f6565b5b5090506200273d919062002b91565b5090565b8280546200274f906200438d565b90600052602060002090601f016020900481019282620027735760008555620027c6565b82601f10620027865780548555620027c6565b82800160010185558215620027c657600052602060002091601f016020900482015b82811115620027c5578254825591600101919060010190620027a8565b5b509050620027d5919062002bb9565b5090565b828054828255906000526020600020906003028101928215620028b55760005260206000209160030282015b82811115620028b45782826000820160009054906101000a900460ff168160000160006101000a81548160ff021916908360038111156200286f577f4e487b7100000000000000000000000000000000000000000000000000000000600052602160045260246000fd5b021790555060018201816001019080546200288a906200438d565b6200289792919062002bd8565b506002820154816002015550509160030191906003019062002805565b5b509050620028c4919062002b4a565b5090565b6040518060e00160405280600081526020016000600381111562002915577f4e487b7100000000000000000000000000000000000000000000000000000000600052602160045260246000fd5b8152602001600073ffffffffffffffffffffffffffffffffffffffff1681526020016200294162002c70565b81526020016200295062002c8a565b815260200160608152602001606081525090565b604051806060016040528060006003811115620029aa577f4e487b7100000000000000000000000000000000000000000000000000000000600052602160045260246000fd5b815260200160608152602001600080191681525090565b82805482825590600052602060002090810192821562002a15579160200282015b8281111562002a1457825182908051906020019062002a0392919062002a28565b5091602001919060010190620029e2565b5b50905062002a24919062002b91565b5090565b82805462002a36906200438d565b90600052602060002090601f01602090048101928262002a5a576000855562002aa6565b82601f1062002a7557805160ff191683800117855562002aa6565b8280016001018555821562002aa6579182015b8281111562002aa557825182559160200191906001019062002a88565b5b50905062002ab5919062002bb9565b5090565b82805462002ac7906200438d565b90600052602060002090601f01602090048101928262002aeb576000855562002b37565b82601f1062002b0657805160ff191683800117855562002b37565b8280016001018555821562002b37579182015b8281111562002b3657825182559160200191906001019062002b19565b5b50905062002b46919062002bb9565b5090565b5b8082111562002b8d57600080820160006101000a81549060ff021916905560018201600062002b7b919062002ca4565b60028201600090555060030162002b4b565b5090565b5b8082111562002bb5576000818162002bab919062002cea565b5060010162002b92565b5090565b5b8082111562002bd457600081600090555060010162002bba565b5090565b82805462002be6906200438d565b90600052602060002090601f01602090048101928262002c0a576000855562002c5d565b82601f1062002c1d578054855562002c5d565b8280016001018555821562002c5d57600052602060002091601f016020900482015b8281111562002c5c57825482559160010191906001019062002c3f565b5b50905062002c6c919062002bb9565b5090565b604051806040016040528060008152602001606081525090565b604051806040016040528060608152602001606081525090565b50805462002cb2906200438d565b6000825580601f1062002cc6575062002ce7565b601f01602090049060005260206000209081019062002ce6919062002bb9565b5b50565b50805462002cf8906200438d565b6000825580601f1062002d0c575062002d2d565b601f01602090049060005260206000209081019062002d2c919062002bb9565b5b50565b600062002d4762002d418462003f73565b62003f3f565b9050808382526020820190508285602086028201111562002d6757600080fd5b60005b8581101562002d9b578162002d80888262002f85565b84526020840193506020830192505060018101905062002d6a565b5050509392505050565b600062002dbc62002db68462003fa2565b62003f3f565b9050808382526020820190508285602086028201111562002ddc57600080fd5b60005b8581101562002e10578162002df5888262003067565b84526020840193506020830192505060018101905062002ddf565b5050509392505050565b600062002e3162002e2b8462003fd1565b62003f3f565b9050808382526020820190508260005b8581101562002e75578135850162002e5a8882620030d9565b84526020840193506020830192505060018101905062002e41565b5050509392505050565b600062002e9662002e908462004000565b62003f3f565b9050808382526020820190508260005b8581101562002eda578135850162002ebf88826200318b565b84526020840193506020830192505060018101905062002ea6565b5050509392505050565b600062002efb62002ef5846200402f565b62003f3f565b90508281526020810184848401111562002f1457600080fd5b62002f2184828562004348565b509392505050565b600062002f4062002f3a8462004062565b62003f3f565b90508281526020810184848401111562002f5957600080fd5b62002f6684828562004348565b509392505050565b60008135905062002f7f8162004594565b92915050565b60008151905062002f968162004594565b92915050565b600082601f83011262002fae57600080fd5b815162002fc084826020860162002d30565b91505092915050565b600082601f83011262002fdb57600080fd5b815162002fed84826020860162002da5565b91505092915050565b600082601f8301126200300857600080fd5b81356200301a84826020860162002e1a565b91505092915050565b600082601f8301126200303557600080fd5b81356200304784826020860162002e7f565b91505092915050565b6000813590506200306181620045ae565b92915050565b6000815190506200307881620045ae565b92915050565b600082601f8301126200309057600080fd5b8135620030a284826020860162002ee4565b91505092915050565b600081359050620030bc81620045c8565b92915050565b600081359050620030d381620045d9565b92915050565b600082601f830112620030eb57600080fd5b8135620030fd84826020860162002f29565b91505092915050565b6000604082840312156200311957600080fd5b62003125604062003f3f565b9050600082013567ffffffffffffffff8111156200314257600080fd5b6200315084828501620030d9565b600083015250602082013567ffffffffffffffff8111156200317157600080fd5b6200317f8482850162002ff6565b60208301525092915050565b6000606082840312156200319e57600080fd5b620031aa606062003f3f565b90506000620031bc84828501620030ab565b600083015250602082013567ffffffffffffffff811115620031dd57600080fd5b620031eb848285016200307e565b6020830152506040620032018482850162003050565b60408301525092915050565b6000604082840312156200322057600080fd5b6200322c604062003f3f565b905060006200323e848285016200339e565b600083015250602082013567ffffffffffffffff8111156200325f57600080fd5b6200326d8482850162002ff6565b60208301525092915050565b600060e082840312156200328c57600080fd5b6200329860e062003f3f565b90506000620032aa848285016200339e565b6000830152506020620032c084828501620030c2565b6020830152506040620032d68482850162002f6e565b604083015250606082013567ffffffffffffffff811115620032f757600080fd5b62003305848285016200320d565b606083015250608082013567ffffffffffffffff8111156200332657600080fd5b620033348482850162003106565b60808301525060a082013567ffffffffffffffff8111156200335557600080fd5b6200336384828501620030d9565b60a08301525060c082013567ffffffffffffffff8111156200338457600080fd5b620033928482850162003023565b60c08301525092915050565b600081359050620033af81620045ea565b92915050565b600081519050620033c681620045ea565b92915050565b600060208284031215620033df57600080fd5b6000620033ef8482850162002f6e565b91505092915050565b6000602082840312156200340b57600080fd5b600082015167ffffffffffffffff8111156200342657600080fd5b620034348482850162002f9c565b91505092915050565b6000602082840312156200345057600080fd5b600082015167ffffffffffffffff8111156200346b57600080fd5b620034798482850162002fc9565b91505092915050565b6000602082840312156200349557600080fd5b6000620034a58482850162003067565b91505092915050565b600060208284031215620034c157600080fd5b600082013567ffffffffffffffff811115620034dc57600080fd5b620034ea8482850162003279565b91505092915050565b6000602082840312156200350657600080fd5b600062003516848285016200339e565b91505092915050565b6000602082840312156200353257600080fd5b60006200354284828501620033b5565b91505092915050565b600062003559838362003878565b60208301905092915050565b60006200357383836200399a565b905092915050565b600062003589838362003aa7565b905092915050565b60006200359f838362003b53565b905092915050565b6000620035b5838362003c05565b905092915050565b620035c881620042ae565b82525050565b620035d9816200429a565b82525050565b620035ea816200429a565b82525050565b62003605620035ff826200429a565b6200444d565b82525050565b60006200361882620040ff565b6200362481856200418d565b9350620036318362004095565b8060005b83811015620036685781516200364c88826200354b565b975062003659836200414c565b92505060018101905062003635565b5085935050505092915050565b600062003682826200410a565b6200368e81856200419e565b935083602082028501620036a285620040a5565b8060005b85811015620036e45784840389528151620036c2858262003565565b9450620036cf8362004159565b925060208a01995050600181019050620036a6565b50829750879550505050505092915050565b6000620037038262004115565b6200370f8185620041af565b9350836020820285016200372385620040b5565b8060005b858110156200376557848403895281516200374385826200357b565b9450620037508362004166565b925060208a0199505060018101905062003727565b50829750879550505050505092915050565b6000620037848262004120565b620037908185620041c0565b935083602082028501620037a485620040c5565b8060005b85811015620037e557848403895281620037c3858262003591565b9450620037d08362004173565b925060208a01995050600181019050620037a8565b50829750879550505050505092915050565b600062003804826200412b565b620038108185620041d1565b9350836020820285016200382485620040da565b8060005b85811015620038665784840389528151620038448582620035a7565b9450620038518362004180565b925060208a0199505060018101905062003828565b50829750879550505050505092915050565b6200388381620042c2565b82525050565b6200389481620042c2565b82525050565b6000620038a78262004136565b620038b38185620041e2565b9350620038c581856020860162004357565b620038d0816200453b565b840191505092915050565b60008154620038ea816200438d565b620038f68186620041f3565b9450600182166000811462003914576001811462003927576200395e565b60ff19831686526020860193506200395e565b6200393285620040ea565b60005b83811015620039565781548189015260018201915060208101905062003935565b808801955050505b50505092915050565b620039728162004320565b82525050565b620039838162004320565b82525050565b620039948162004334565b82525050565b6000620039a78262004141565b620039b3818562004204565b9350620039c581856020860162004357565b620039d0816200453b565b840191505092915050565b6000620039ea601b8362004215565b91507f4f6e6c79206f776e65722063616e20636c6f736520766f74696e6700000000006000830152602082019050919050565b600062003a2c60108362004215565b91507f5468652067616d65206973206f766572000000000000000000000000000000006000830152602082019050919050565b6000604083016000830151848203600086015262003a7e82826200399a565b9150506020830151848203602086015262003a9a828262003675565b9150508091505092915050565b600060608301600083015162003ac1600086018262003967565b506020830151848203602086015262003adb82826200389a565b915050604083015162003af2604086018262003878565b508091505092915050565b600060608301600083015162003b17600086018262003967565b506020830151848203602086015262003b3182826200389a565b915050604083015162003b48604086018262003878565b508091505092915050565b600060608301600080840154905062003b6c81620043e1565b62003b7b600087018262003978565b5060018401858303602087015262003b948382620038db565b9250506002840154905062003ba981620043c3565b62003bb8604087018262003889565b50819250505092915050565b600060408301600083015162003bde600086018262003d83565b506020830151848203602086015262003bf8828262003675565b9150508091505092915050565b600060e08301600083015162003c1f600086018262003d83565b50602083015162003c34602086018262003989565b50604083015162003c496040860182620035ce565b506060830151848203606086015262003c63828262003bc4565b9150506080830151848203608086015262003c7f828262003a5f565b91505060a083015184820360a086015262003c9b82826200399a565b91505060c083015184820360c086015262003cb78282620036f6565b9150508091505092915050565b600060e08301600083015162003cde600086018262003d83565b50602083015162003cf3602086018262003989565b50604083015162003d086040860182620035ce565b506060830151848203606086015262003d22828262003bc4565b9150506080830151848203608086015262003d3e828262003a5f565b91505060a083015184820360a086015262003d5a82826200399a565b91505060c083015184820360c086015262003d768282620036f6565b9150508091505092915050565b62003d8e8162004316565b82525050565b62003d9f8162004316565b82525050565b62003dba62003db48262004316565b62004475565b82525050565b600062003dce828562003da5565b60208201915062003de08284620035f0565b6014820191508190509392505050565b600060208201905062003e076000830184620035df565b92915050565b600060208201905062003e246000830184620035bd565b92915050565b6000602082019050818103600083015262003e4681846200360b565b905092915050565b6000602082019050818103600083015262003e6a818462003777565b905092915050565b6000602082019050818103600083015262003e8e8184620037f7565b905092915050565b6000602082019050818103600083015262003eb181620039db565b9050919050565b6000602082019050818103600083015262003ed38162003a1d565b9050919050565b6000602082019050818103600083015262003ef6818462003afd565b905092915050565b6000602082019050818103600083015262003f1a818462003cc4565b905092915050565b600060208201905062003f39600083018462003d94565b92915050565b6000604051905081810181811067ffffffffffffffff8211171562003f695762003f686200450c565b5b8060405250919050565b600067ffffffffffffffff82111562003f915762003f906200450c565b5b602082029050602081019050919050565b600067ffffffffffffffff82111562003fc05762003fbf6200450c565b5b602082029050602081019050919050565b600067ffffffffffffffff82111562003fef5762003fee6200450c565b5b602082029050602081019050919050565b600067ffffffffffffffff8211156200401e576200401d6200450c565b5b602082029050602081019050919050565b600067ffffffffffffffff8211156200404d576200404c6200450c565b5b601f19601f8301169050602081019050919050565b600067ffffffffffffffff82111562004080576200407f6200450c565b5b601f19601f8301169050602081019050919050565b6000819050602082019050919050565b6000819050602082019050919050565b6000819050602082019050919050565b60008190508160005260206000209050919050565b6000819050602082019050919050565b60008190508160005260206000209050919050565b600081519050919050565b600081519050919050565b600081519050919050565b600081549050919050565b600081519050919050565b600081519050919050565b600081519050919050565b6000602082019050919050565b6000602082019050919050565b6000602082019050919050565b6000600382019050919050565b6000602082019050919050565b600082825260208201905092915050565b600082825260208201905092915050565b600082825260208201905092915050565b600082825260208201905092915050565b600082825260208201905092915050565b600082825260208201905092915050565b600082825260208201905092915050565b600082825260208201905092915050565b600082825260208201905092915050565b6000620042338262004316565b9150620042408362004316565b9250827fffffffffffffffffffffffffffffffffffffffffffffffffffffffffffffffff038211156200427857620042776200447f565b5b828201905092915050565b6000819050919050565b600060ff82169050919050565b6000620042a782620042f6565b9050919050565b6000620042bb82620042f6565b9050919050565b6000819050919050565b6000819050620042dc8262004566565b919050565b6000819050620042f1826200457d565b919050565b600073ffffffffffffffffffffffffffffffffffffffff82169050919050565b6000819050919050565b60006200432d82620042cc565b9050919050565b60006200434182620042e1565b9050919050565b82818337600083830152505050565b60005b83811015620043775780820151818401526020810190506200435a565b8381111562004387576000848401525b50505050565b60006002820490506001821680620043a657607f821691505b60208210811415620043bd57620043bc620044dd565b5b50919050565b6000620043da620043d48362004559565b62004283565b9050919050565b6000620043f8620043f28362004559565b6200428d565b9050919050565b60006200440c8262004316565b91507fffffffffffffffffffffffffffffffffffffffffffffffffffffffffffffffff8214156200444257620044416200447f565b5b600182019050919050565b60006200445a8262004461565b9050919050565b60006200446e826200454c565b9050919050565b6000819050919050565b7f4e487b7100000000000000000000000000000000000000000000000000000000600052601160045260246000fd5b7f4e487b7100000000000000000000000000000000000000000000000000000000600052602160045260246000fd5b7f4e487b7100000000000000000000000000000000000000000000000000000000600052602260045260246000fd5b7f4e487b7100000000000000000000000000000000000000000000000000000000600052604160045260246000fd5b6000601f19601f8301169050919050565b60008160601b9050919050565b60008160001c9050919050565b600481106200457a5762004579620044ae565b5b50565b60048110620045915762004590620044ae565b5b50565b6200459f816200429a565b8114620045ab57600080fd5b50565b620045b981620042c2565b8114620045c557600080fd5b50565b60048110620045d657600080fd5b50565b60048110620045e757600080fd5b50565b620045f58162004316565b81146200460157600080fd5b5056fe60806040523480156200001157600080fd5b5060405162001800380380620018008339818101604052810190620000379190620001dd565b6001600360006101000a81548160ff02191690831515021790555033600360016101000a81548173ffffffffffffffffffffffffffffffffffffffff021916908373ffffffffffffffffffffffffffffffffffffffff1602179055508060059080519060200190620000ab929190620000b3565b5050620002d8565b828054828255906000526020600020908101928215620000f2579160200282015b82811115620000f1578251825591602001919060010190620000d4565b5b50905062000101919062000105565b5090565b5b808211156200012057600081600090555060010162000106565b5090565b60006200013b620001358462000256565b62000222565b905080838252602082019050828560208602820111156200015b57600080fd5b60005b858110156200018f5781620001748882620001c6565b8452602084019350602083019250506001810190506200015e565b5050509392505050565b600082601f830112620001ab57600080fd5b8151620001bd84826020860162000124565b91505092915050565b600081519050620001d781620002be565b92915050565b600060208284031215620001f057600080fd5b600082015167ffffffffffffffff8111156200020b57600080fd5b620002198482850162000199565b91505092915050565b6000604051905081810181811067ffffffffffffffff821117156200024c576200024b6200028f565b5b8060405250919050565b600067ffffffffffffffff8211156200027457620002736200028f565b5b602082029050602081019050919050565b6000819050919050565b7f4e487b7100000000000000000000000000000000000000000000000000000000600052604160045260246000fd5b620002c98162000285565b8114620002d557600080fd5b50565b61151880620002e86000396000f3fe6080604052600436106100915760003560e01c80638e7ea5b2116100595780638e7ea5b2146101a3578063a69beaba146101ce578063a95824b4146101ea578063c208183214610215578063c631b2921461023e57610091565b806306a49fce14610096578063154573cd146100c15780633477ee2e146100fe5780634c0511001461013b57806363d28dea14610178575b600080fd5b3480156100a257600080fd5b506100ab610255565b6040516100b8919061111e565b60405180910390f35b3480156100cd57600080fd5b506100e860048036038101906100e39190610c55565b6102ad565b6040516100f591906112b6565b60405180910390f35b34801561010a57600080fd5b5061012560048036038101906101209190610cd0565b610346565b604051610132919061115b565b60405180910390f35b34801561014757600080fd5b50610162600480360381019061015d9190610ca7565b61036a565b60405161016f91906112b6565b60405180910390f35b34801561018457600080fd5b5061018d6103d6565b60405161019a91906110fc565b60405180910390f35b3480156101af57600080fd5b506101b86104b4565b6040516101c5919061115b565b60405180910390f35b6101e860048036038101906101e39190610ca7565b610638565b005b3480156101f657600080fd5b506101ff6108db565b60405161020c9190611140565b60405180910390f35b34801561022157600080fd5b5061023c60048036038101906102379190610c7e565b6108ee565b005b34801561024a57600080fd5b50610253610a83565b005b606060058054806020026020016040519081016040528092919081815260200182805480156102a357602002820191906000526020600020905b81548152602001906001019080831161028f575b5050505050905090565b6000600360009054906101000a900460ff16156102ff576040517f08c379a00000000000000000000000000000000000000000000000000000000081526004016102f690611216565b60405180910390fd5b600260008373ffffffffffffffffffffffffffffffffffffffff1673ffffffffffffffffffffffffffffffffffffffff168152602001908152602001600020549050919050565b6005818154811061035657600080fd5b906000526020600020016000915090505481565b6000600360009054906101000a900460ff16156103bc576040517f08c379a00000000000000000000000000000000000000000000000000000000081526004016103b390611276565b60405180910390fd5b600080838152602001908152602001600020549050919050565b6060600360009054906101000a900460ff1615610428576040517f08c379a000000000000000000000000000000000000000000000000000000000815260040161041f90611216565b60405180910390fd5b60048054806020026020016040519081016040528092919081815260200182805480156104aa57602002820191906000526020600020905b8160009054906101000a900473ffffffffffffffffffffffffffffffffffffffff1673ffffffffffffffffffffffffffffffffffffffff1681526020019060010190808311610460575b5050505050905090565b6000600360009054906101000a900460ff1615610506576040517f08c379a00000000000000000000000000000000000000000000000000000000081526004016104fd90611196565b60405180910390fd5b6000806000905060005b60058054905081101561062f57816000806005848154811061055b577f4e487b7100000000000000000000000000000000000000000000000000000000600052603260045260246000fd5b9060005260206000200154815260200190815260200160002054111561061c57600080600583815481106105b8577f4e487b7100000000000000000000000000000000000000000000000000000000600052603260045260246000fd5b906000526020600020015481526020019081526020016000205491506005818154811061060e577f4e487b7100000000000000000000000000000000000000000000000000000000600052603260045260246000fd5b906000526020600020015492505b80806106279061140e565b915050610510565b50819250505090565b600360009054906101000a900460ff16610687576040517f08c379a000000000000000000000000000000000000000000000000000000000815260040161067e90611256565b60405180910390fd5b600034116106ca576040517f08c379a00000000000000000000000000000000000000000000000000000000081526004016106c1906111b6565b60405180910390fd5b600160003373ffffffffffffffffffffffffffffffffffffffff1673ffffffffffffffffffffffffffffffffffffffff16815260200190815260200160002060009054906101000a900460ff1615610757576040517f08c379a000000000000000000000000000000000000000000000000000000000815260040161074e90611296565b60405180910390fd5b61076081610b78565b61079f576040517f08c379a0000000000000000000000000000000000000000000000000000000008152600401610796906111d6565b60405180910390fd5b3460008083815260200190815260200160002060008282546107c19190611354565b9250508190555034600260003373ffffffffffffffffffffffffffffffffffffffff1673ffffffffffffffffffffffffffffffffffffffff16815260200190815260200160002060008282546108179190611354565b9250508190555060018060003373ffffffffffffffffffffffffffffffffffffffff1673ffffffffffffffffffffffffffffffffffffffff16815260200190815260200160002060006101000a81548160ff0219169083151502179055506004339080600181540180825580915050600190039060005260206000200160009091909190916101000a81548173ffffffffffffffffffffffffffffffffffffffff021916908373ffffffffffffffffffffffffffffffffffffffff16021790555050565b600360009054906101000a900460ff1681565b600360009054906101000a900460ff161561093e576040517f08c379a000000000000000000000000000000000000000000000000000000000815260040161093590611216565b60405180910390fd5b600360019054906101000a900473ffffffffffffffffffffffffffffffffffffffff1673ffffffffffffffffffffffffffffffffffffffff163373ffffffffffffffffffffffffffffffffffffffff16146109ce576040517f08c379a00000000000000000000000000000000000000000000000000000000081526004016109c5906111f6565b60405180910390fd5b60004790508173ffffffffffffffffffffffffffffffffffffffff166108fc829081150290604051600060405180830381858888f19350505050158015610a19573d6000803e3d6000fd5b508173ffffffffffffffffffffffffffffffffffffffff163373ffffffffffffffffffffffffffffffffffffffff167fddf252ad1be2c89b69c2b068fc378daa952ba7f163c4a11628f55a4df523b3ef83604051610a7791906112b6565b60405180910390a35050565b600360019054906101000a900473ffffffffffffffffffffffffffffffffffffffff1673ffffffffffffffffffffffffffffffffffffffff163373ffffffffffffffffffffffffffffffffffffffff1614610b13576040517f08c379a0000000000000000000000000000000000000000000000000000000008152600401610b0a90611236565b60405180910390fd5b600060048054905011610b5b576040517f08c379a0000000000000000000000000000000000000000000000000000000008152600401610b5290611176565b60405180910390fd5b6000600360006101000a81548160ff021916908315150217905550565b600080600090505b600580549050811015610bf6578260058281548110610bc8577f4e487b7100000000000000000000000000000000000000000000000000000000600052603260045260246000fd5b90600052602060002001541415610be3576001915050610bfc565b8080610bee9061140e565b915050610b80565b50600090505b919050565b600081359050610c1081611486565b92915050565b600081359050610c258161149d565b92915050565b600081359050610c3a816114b4565b92915050565b600081359050610c4f816114cb565b92915050565b600060208284031215610c6757600080fd5b6000610c7584828501610c01565b91505092915050565b600060208284031215610c9057600080fd5b6000610c9e84828501610c16565b91505092915050565b600060208284031215610cb957600080fd5b6000610cc784828501610c2b565b91505092915050565b600060208284031215610ce257600080fd5b6000610cf084828501610c40565b91505092915050565b6000610d058383610d29565b60208301905092915050565b6000610d1d8383610e03565b60208301905092915050565b610d32816113aa565b82525050565b6000610d43826112f1565b610d4d8185611321565b9350610d58836112d1565b8060005b83811015610d89578151610d708882610cf9565b9750610d7b83611307565b925050600181019050610d5c565b5085935050505092915050565b6000610da1826112fc565b610dab8185611332565b9350610db6836112e1565b8060005b83811015610de7578151610dce8882610d11565b9750610dd983611314565b925050600181019050610dba565b5085935050505092915050565b610dfd816113ce565b82525050565b610e0c816113da565b82525050565b610e1b816113da565b82525050565b6000610e2e601883611343565b91507f536f6d656f6e65206d757374206861766520766f7465642e00000000000000006000830152602082019050919050565b6000610e6e602783611343565b91507f566f74696e67206d75737420626520636c6f73656420746f206765742074686560008301527f2077696e6e6572000000000000000000000000000000000000000000000000006020830152604082019050919050565b6000610ed4601d83611343565b91507f416d6f756e74206d7573742062652067726561746572207468616e20300000006000830152602082019050919050565b6000610f14601183611343565b91507f496e76616c69642063616e6469646174650000000000000000000000000000006000830152602082019050919050565b6000610f54601d83611343565b91507f4f6e6c79206f776e65722063616e207472616e7366657220766f7465730000006000830152602082019050919050565b6000610f94601583611343565b91507f566f74696e67206d75737420626520636c6f73656400000000000000000000006000830152602082019050919050565b6000610fd4601b83611343565b91507f4f6e6c79206f776e65722063616e20636c6f736520766f74696e6700000000006000830152602082019050919050565b6000611014601083611343565b91507f566f74696e6720697320636c6f736564000000000000000000000000000000006000830152602082019050919050565b6000611054602283611343565b91507f566f74696e67206d75737420626520636c6f73656420746f2067657420766f7460008301527f65730000000000000000000000000000000000000000000000000000000000006020830152604082019050919050565b60006110ba601683611343565b91507f596f75206861766520616c726561647920766f746564000000000000000000006000830152602082019050919050565b6110f681611404565b82525050565b600060208201905081810360008301526111168184610d38565b905092915050565b600060208201905081810360008301526111388184610d96565b905092915050565b60006020820190506111556000830184610df4565b92915050565b60006020820190506111706000830184610e12565b92915050565b6000602082019050818103600083015261118f81610e21565b9050919050565b600060208201905081810360008301526111af81610e61565b9050919050565b600060208201905081810360008301526111cf81610ec7565b9050919050565b600060208201905081810360008301526111ef81610f07565b9050919050565b6000602082019050818103600083015261120f81610f47565b9050919050565b6000602082019050818103600083015261122f81610f87565b9050919050565b6000602082019050818103600083015261124f81610fc7565b9050919050565b6000602082019050818103600083015261126f81611007565b9050919050565b6000602082019050818103600083015261128f81611047565b9050919050565b600060208201905081810360008301526112af816110ad565b9050919050565b60006020820190506112cb60008301846110ed565b92915050565b6000819050602082019050919050565b6000819050602082019050919050565b600081519050919050565b600081519050919050565b6000602082019050919050565b6000602082019050919050565b600082825260208201905092915050565b600082825260208201905092915050565b600082825260208201905092915050565b600061135f82611404565b915061136a83611404565b9250827fffffffffffffffffffffffffffffffffffffffffffffffffffffffffffffffff0382111561139f5761139e611457565b5b828201905092915050565b60006113b5826113e4565b9050919050565b60006113c7826113e4565b9050919050565b60008115159050919050565b6000819050919050565b600073ffffffffffffffffffffffffffffffffffffffff82169050919050565b6000819050919050565b600061141982611404565b91507fffffffffffffffffffffffffffffffffffffffffffffffffffffffffffffffff82141561144c5761144b611457565b5b600182019050919050565b7f4e487b7100000000000000000000000000000000000000000000000000000000600052601160045260246000fd5b61148f816113aa565b811461149a57600080fd5b50565b6114a6816113bc565b81146114b157600080fd5b50565b6114bd816113da565b81146114c857600080fd5b50565b6114d481611404565b81146114df57600080fd5b5056fea2646970667358221220998fe827cb248dc9bbd3524e101c46f718c796c48e51971cd74f584021b8d1c464736f6c63430008000033a2646970667358221220fcf31de08d5ae3b4370597d9feebd464113ef663a8d284700922a30f37850fa664736f6c63430008000033",
  "immutableReferences": {},
  "source": "// SPDX-License-Identifier: GPL-3.0\r\n\r\npragma solidity ^0.8.0;\r\n\r\nimport \"./libraries/Utils.sol\";\r\nimport \"./Voting.sol\";\r\n\r\ncontract GameStates {\r\n    address owner;\r\n    bool canChangeState = true;\r\n\r\n    Utils.State currentState;\r\n    Utils.State[] states;\r\n    Voting currentVoting;\r\n\r\n    mapping(address => uint256) public addressPlayed;\r\n\r\n    constructor() {\r\n        owner = msg.sender;\r\n    }\r\n\r\n    function changeState(Utils.State memory newState) public {\r\n        require(msg.sender == owner, \"Only owner can close voting\");\r\n        require(canChangeState, \"The game is over\");\r\n\r\n        Utils.setCurrentState(currentState, newState);\r\n\r\n        if (newState.options.length > 0) {\r\n            Utils.copyOptions(currentState, newState.options);\r\n\r\n            //Open new voting with state options\r\n            currentVoting = new Voting(\r\n                Utils.getOptionValues(currentState.options)\r\n            );\r\n            currentState.voting = address(currentVoting);\r\n        }\r\n\r\n        if (currentState.state == Utils.StatesTypes.Final) {\r\n            delete currentState.options;\r\n            canChangeState = false;\r\n        }\r\n\r\n        states.push(currentState);\r\n    }\r\n\r\n    function closeVoting() public {\r\n        require(msg.sender == owner, \"Only owner can close voting\");\r\n        currentVoting.closeVoting();\r\n        address[] memory addressVoted = currentVoting.getAddressHasVoted();\r\n\r\n        //Saves the addresses that have participated in the vote\r\n        for (uint i = 0; i < addressVoted.length; i++) {\r\n            addressPlayed[addressVoted[i]] += currentVoting\r\n                .getAddressVotedAmount(addressVoted[i]);\r\n        }\r\n\r\n        currentVoting.transferVotes(payable(owner));\r\n    }\r\n\r\n    function getWinnerOption(\r\n        uint256 stateId\r\n    ) public view returns (Utils.Option memory) {\r\n        Utils.State memory state = currentState;\r\n\r\n        for (uint i = 0; i < states.length; i++) {\r\n            if (states[i].id == stateId) {\r\n                state = states[i];\r\n                break;\r\n            }\r\n        }\r\n        Voting voting = Voting(state.voting);\r\n        bytes32 winner = voting.getWinner();\r\n        return Utils.findWinner(winner, state);\r\n    }\r\n\r\n    function getGameStates() public view returns (Utils.State[] memory) {\r\n        return states;\r\n    }\r\n\r\n    function getCurrentState() public view returns (Utils.State memory) {\r\n        return currentState;\r\n    }\r\n}\r\n",
  "sourcePath": "C:\\Users\\angma\\OneDrive\\Escritorio\\TFM\\tfm_backend\\contracts\\GameStates.sol",
  "compiler": {
    "name": "solc",
    "version": "0.8.0+commit.c7dfd78e.Emscripten.clang"
  },
  "schemaVersion": "3.4.14",
  "updatedAt": "2023-05-27T19:34:36.020Z",
  "devdoc": {
    "kind": "dev",
    "methods": {},
    "version": 1
  },
  "userdoc": {
    "kind": "user",
    "methods": {},
    "version": 1
  }
}