{
  "contractName": "Utils",
  "abi": [
    {
      "inputs": [
        {
          "components": [
            {
              "internalType": "enum Utils.OptionTypes",
              "name": "optionType",
              "type": "Utils.OptionTypes"
            },
            {
              "internalType": "bytes",
              "name": "data",
              "type": "bytes"
            },
            {
              "internalType": "bytes32",
              "name": "option",
              "type": "bytes32"
            }
          ],
          "internalType": "struct Utils.Option[]",
          "name": "options",
          "type": "tuple[]"
        }
      ],
      "name": "getOptionValues",
      "outputs": [
        {
          "internalType": "bytes32[]",
          "name": "",
          "type": "bytes32[]"
        }
      ],
      "stateMutability": "pure",
      "type": "function",
      "constant": true
    }
  ],
  "bytecode": "0x6105f9610053600b82828239805160001a607314610046577f4e487b7100000000000000000000000000000000000000000000000000000000600052600060045260246000fd5b30600052607381538281f3fe73000000000000000000000000000000000000000030146080604052600436106100355760003560e01c8063fdc157181461003a575b600080fd5b610054600480360381019061004f9190610324565b61006a565b60405161006191906103ea565b60405180910390f35b60606000825167ffffffffffffffff8111156100af577f4e487b7100000000000000000000000000000000000000000000000000000000600052604160045260246000fd5b6040519080825280602002602001820160405280156100dd5781602001602082028036833780820191505090505b50905060005b835181101561018957838181518110610125577f4e487b7100000000000000000000000000000000000000000000000000000000600052603260045260246000fd5b60200260200101516040015182828151811061016a577f4e487b7100000000000000000000000000000000000000000000000000000000600052603260045260246000fd5b6020026020010181815250508080610181906104f5565b9150506100e3565b5080915050919050565b60006101a66101a18461043d565b61040c565b9050808382526020820190508260005b858110156101e657813585016101cc88826102ac565b8452602084019350602083019250506001810190506101b6565b5050509392505050565b60006102036101fe84610469565b61040c565b90508281526020810184848401111561021b57600080fd5b6102268482856104e6565b509392505050565b600082601f83011261023f57600080fd5b813561024f848260208601610193565b91505092915050565b6000813590506102678161059c565b92915050565b600082601f83011261027e57600080fd5b813561028e8482602086016101f0565b91505092915050565b6000813590506102a6816105b3565b92915050565b6000606082840312156102be57600080fd5b6102c8606061040c565b905060006102d884828501610297565b600083015250602082013567ffffffffffffffff8111156102f857600080fd5b6103048482850161026d565b602083015250604061031884828501610258565b60408301525092915050565b60006020828403121561033657600080fd5b600082013567ffffffffffffffff81111561035057600080fd5b61035c8482850161022e565b91505092915050565b600061037183836103db565b60208301905092915050565b6000610388826104a9565b61039281856104c1565b935061039d83610499565b8060005b838110156103ce5781516103b58882610365565b97506103c0836104b4565b9250506001810190506103a1565b5085935050505092915050565b6103e4816104d2565b82525050565b60006020820190508181036000830152610404818461037d565b905092915050565b6000604051905081810181811067ffffffffffffffff821117156104335761043261056d565b5b8060405250919050565b600067ffffffffffffffff8211156104585761045761056d565b5b602082029050602081019050919050565b600067ffffffffffffffff8211156104845761048361056d565b5b601f19601f8301169050602081019050919050565b6000819050602082019050919050565b600081519050919050565b6000602082019050919050565b600082825260208201905092915050565b6000819050919050565b6000819050919050565b82818337600083830152505050565b6000610500826104dc565b91507fffffffffffffffffffffffffffffffffffffffffffffffffffffffffffffffff8214156105335761053261053e565b5b600182019050919050565b7f4e487b7100000000000000000000000000000000000000000000000000000000600052601160045260246000fd5b7f4e487b7100000000000000000000000000000000000000000000000000000000600052604160045260246000fd5b6105a5816104d2565b81146105b057600080fd5b50565b600481106105c057600080fd5b5056fea26469706673582212207a1b875b2d27ee297b57648b469e6c615c220cb652dd11ceddb2dec8f23e90ef64736f6c63430008000033",
  "immutableReferences": {},
  "source": "// SPDX-License-Identifier: GPL-3.0\r\n\r\npragma solidity ^0.8.0;\r\n\r\nlibrary Utils {\r\n    enum OptionTypes {\r\n        Skip,\r\n        Level,\r\n        Weapon,\r\n        Treasure\r\n    }\r\n\r\n    enum StatesTypes {\r\n        Rest,\r\n        Battle,\r\n        Treasure,\r\n        Final\r\n    }\r\n\r\n    struct Player {\r\n        uint health;\r\n        string[] weapons;\r\n    }\r\n\r\n    struct Level {\r\n        string name;\r\n        string[] enemies;\r\n    }\r\n\r\n    struct Option {\r\n        OptionTypes optionType;\r\n        bytes data; //data encoded as bytes\r\n        bytes32 option;\r\n    }\r\n\r\n    struct State {\r\n        StatesTypes state;\r\n        address voting;\r\n        Player player;\r\n        Level level;\r\n        string enemy;\r\n        Option[] options;\r\n    }\r\n\r\n    function getOptionValues(\r\n        Option[] memory options\r\n    ) public pure returns (bytes32[] memory) {\r\n        bytes32[] memory optionValues = new bytes32[](options.length);\r\n\r\n        for (uint i = 0; i < options.length; i++) {\r\n            optionValues[i] = options[i].option;\r\n        }\r\n\r\n        return optionValues;\r\n    }\r\n\r\n    function copyOptions(\r\n        State storage currrentState,\r\n        Option[] memory options\r\n    ) internal {\r\n        delete currrentState.options;\r\n\r\n        for (uint i = 0; i < options.length; i++) {\r\n            currrentState.options.push(options[i]);\r\n        }\r\n    }\r\n}\r\n",
  "sourcePath": "C:\\Users\\angma\\OneDrive\\Escritorio\\TFM\\tfm_backend\\contracts\\libraries\\Utils.sol",
  "compiler": {
    "name": "solc",
    "version": "0.8.0+commit.c7dfd78e.Emscripten.clang"
  },
  "schemaVersion": "3.4.14",
  "updatedAt": "2023-05-20T16:06:55.322Z",
  "networkType": "ethereum",
  "devdoc": {
    "kind": "dev",
    "methods": {},
    "version": 1
  },
  "userdoc": {
    "kind": "user",
    "methods": {},
    "version": 1
  }
}