{
    "contractName": "Voting",
    "abi": [
        {
            "inputs": [
                {
                    "internalType": "bytes32[]",
                    "name": "_candidates",
                    "type": "bytes32[]"
                }
            ],
            "stateMutability": "nonpayable",
            "type": "constructor"
        },
        {
            "inputs": [
                {
                    "internalType": "uint256",
                    "name": "",
                    "type": "uint256"
                }
            ],
            "name": "candidates",
            "outputs": [
                {
                    "internalType": "bytes32",
                    "name": "",
                    "type": "bytes32"
                }
            ],
            "stateMutability": "view",
            "type": "function",
            "constant": true
        },
        {
            "inputs": [],
            "name": "votingOpen",
            "outputs": [
                {
                    "internalType": "bool",
                    "name": "",
                    "type": "bool"
                }
            ],
            "stateMutability": "view",
            "type": "function",
            "constant": true
        },
        {
            "inputs": [
                {
                    "internalType": "bytes32",
                    "name": "candidate",
                    "type": "bytes32"
                }
            ],
            "name": "vote",
            "outputs": [],
            "stateMutability": "payable",
            "type": "function",
            "payable": true
        },
        {
            "inputs": [],
            "name": "getCandidates",
            "outputs": [
                {
                    "internalType": "bytes32[]",
                    "name": "",
                    "type": "bytes32[]"
                }
            ],
            "stateMutability": "view",
            "type": "function",
            "constant": true
        },
        {
            "inputs": [
                {
                    "internalType": "bytes32",
                    "name": "candidate",
                    "type": "bytes32"
                }
            ],
            "name": "getVotes",
            "outputs": [
                {
                    "internalType": "uint256",
                    "name": "",
                    "type": "uint256"
                }
            ],
            "stateMutability": "view",
            "type": "function",
            "constant": true
        },
        {
            "inputs": [],
            "name": "getWinner",
            "outputs": [
                {
                    "internalType": "bytes32",
                    "name": "",
                    "type": "bytes32"
                }
            ],
            "stateMutability": "view",
            "type": "function",
            "constant": true
        },
        {
            "inputs": [],
            "name": "closeVoting",
            "outputs": [],
            "stateMutability": "nonpayable",
            "type": "function"
        },
        {
            "inputs": [
                {
                    "internalType": "address",
                    "name": "_address",
                    "type": "address"
                }
            ],
            "name": "getAddressVotedAmount",
            "outputs": [
                {
                    "internalType": "uint256",
                    "name": "",
                    "type": "uint256"
                }
            ],
            "stateMutability": "view",
            "type": "function",
            "constant": true
        },
        {
            "inputs": [],
            "name": "getAddressHasVoted",
            "outputs": [
                {
                    "internalType": "address[]",
                    "name": "",
                    "type": "address[]"
                }
            ],
            "stateMutability": "view",
            "type": "function",
            "constant": true
        }
    ],
    "bytecode": "0x60806040523480156200001157600080fd5b50604051620013c8380380620013c88339818101604052810190620000379190620001dd565b6001600360006101000a81548160ff02191690831515021790555033600360016101000a81548173ffffffffffffffffffffffffffffffffffffffff021916908373ffffffffffffffffffffffffffffffffffffffff1602179055508060059080519060200190620000ab929190620000b3565b5050620002d8565b828054828255906000526020600020908101928215620000f2579160200282015b82811115620000f1578251825591602001919060010190620000d4565b5b50905062000101919062000105565b5090565b5b808211156200012057600081600090555060010162000106565b5090565b60006200013b620001358462000256565b62000222565b905080838252602082019050828560208602820111156200015b57600080fd5b60005b858110156200018f5781620001748882620001c6565b8452602084019350602083019250506001810190506200015e565b5050509392505050565b600082601f830112620001ab57600080fd5b8151620001bd84826020860162000124565b91505092915050565b600081519050620001d781620002be565b92915050565b600060208284031215620001f057600080fd5b600082015167ffffffffffffffff8111156200020b57600080fd5b620002198482850162000199565b91505092915050565b6000604051905081810181811067ffffffffffffffff821117156200024c576200024b6200028f565b5b8060405250919050565b600067ffffffffffffffff8211156200027457620002736200028f565b5b602082029050602081019050919050565b6000819050919050565b7f4e487b7100000000000000000000000000000000000000000000000000000000600052604160045260246000fd5b620002c98162000285565b8114620002d557600080fd5b50565b6110e080620002e86000396000f3fe6080604052600436106100865760003560e01c806363d28dea1161005957806363d28dea1461016d5780638e7ea5b214610198578063a69beaba146101c3578063a95824b4146101df578063c631b2921461020a57610086565b806306a49fce1461008b578063154573cd146100b65780633477ee2e146100f35780634c05110014610130575b600080fd5b34801561009757600080fd5b506100a0610221565b6040516100ad9190610d6f565b60405180910390f35b3480156100c257600080fd5b506100dd60048036038101906100d8919061098f565b610279565b6040516100ea9190610ea7565b60405180910390f35b3480156100ff57600080fd5b5061011a600480360381019061011591906109e1565b6102c2565b6040516101279190610dac565b60405180910390f35b34801561013c57600080fd5b50610157600480360381019061015291906109b8565b6102e6565b6040516101649190610ea7565b60405180910390f35b34801561017957600080fd5b50610182610352565b60405161018f9190610d4d565b60405180910390f35b3480156101a457600080fd5b506101ad6103e0565b6040516101ba9190610dac565b60405180910390f35b6101dd60048036038101906101d891906109b8565b610564565b005b3480156101eb57600080fd5b506101f4610807565b6040516102019190610d91565b60405180910390f35b34801561021657600080fd5b5061021f61081a565b005b6060600580548060200260200160405190810160405280929190818152602001828054801561026f57602002820191906000526020600020905b81548152602001906001019080831161025b575b5050505050905090565b6000600260008373ffffffffffffffffffffffffffffffffffffffff1673ffffffffffffffffffffffffffffffffffffffff168152602001908152602001600020549050919050565b600581815481106102d257600080fd5b906000526020600020016000915090505481565b6000600360009054906101000a900460ff1615610338576040517f08c379a000000000000000000000000000000000000000000000000000000000815260040161032f90610e67565b60405180910390fd5b600080838152602001908152602001600020549050919050565b606060048054806020026020016040519081016040528092919081815260200182805480156103d657602002820191906000526020600020905b8160009054906101000a900473ffffffffffffffffffffffffffffffffffffffff1673ffffffffffffffffffffffffffffffffffffffff168152602001906001019080831161038c575b5050505050905090565b6000600360009054906101000a900460ff1615610432576040517f08c379a000000000000000000000000000000000000000000000000000000000815260040161042990610dc7565b60405180910390fd5b6000806000905060005b60058054905081101561055b578160008060058481548110610487577f4e487b7100000000000000000000000000000000000000000000000000000000600052603260045260246000fd5b9060005260206000200154815260200190815260200160002054111561054857600080600583815481106104e4577f4e487b7100000000000000000000000000000000000000000000000000000000600052603260045260246000fd5b906000526020600020015481526020019081526020016000205491506005818154811061053a577f4e487b7100000000000000000000000000000000000000000000000000000000600052603260045260246000fd5b906000526020600020015492505b808061055390610fed565b91505061043c565b50819250505090565b600360009054906101000a900460ff166105b3576040517f08c379a00000000000000000000000000000000000000000000000000000000081526004016105aa90610e47565b60405180910390fd5b600034116105f6576040517f08c379a00000000000000000000000000000000000000000000000000000000081526004016105ed90610de7565b60405180910390fd5b600160003373ffffffffffffffffffffffffffffffffffffffff1673ffffffffffffffffffffffffffffffffffffffff16815260200190815260200160002060009054906101000a900460ff1615610683576040517f08c379a000000000000000000000000000000000000000000000000000000000815260040161067a90610e87565b60405180910390fd5b61068c816108c7565b6106cb576040517f08c379a00000000000000000000000000000000000000000000000000000000081526004016106c290610e07565b60405180910390fd5b3460008083815260200190815260200160002060008282546106ed9190610f45565b9250508190555034600260003373ffffffffffffffffffffffffffffffffffffffff1673ffffffffffffffffffffffffffffffffffffffff16815260200190815260200160002060008282546107439190610f45565b9250508190555060018060003373ffffffffffffffffffffffffffffffffffffffff1673ffffffffffffffffffffffffffffffffffffffff16815260200190815260200160002060006101000a81548160ff0219169083151502179055506004339080600181540180825580915050600190039060005260206000200160009091909190916101000a81548173ffffffffffffffffffffffffffffffffffffffff021916908373ffffffffffffffffffffffffffffffffffffffff16021790555050565b600360009054906101000a900460ff1681565b600360019054906101000a900473ffffffffffffffffffffffffffffffffffffffff1673ffffffffffffffffffffffffffffffffffffffff163373ffffffffffffffffffffffffffffffffffffffff16146108aa576040517f08c379a00000000000000000000000000000000000000000000000000000000081526004016108a190610e27565b60405180910390fd5b6000600360006101000a81548160ff021916908315150217905550565b600080600090505b600580549050811015610945578260058281548110610917577f4e487b7100000000000000000000000000000000000000000000000000000000600052603260045260246000fd5b9060005260206000200154141561093257600191505061094b565b808061093d90610fed565b9150506108cf565b50600090505b919050565b60008135905061095f81611065565b92915050565b6000813590506109748161107c565b92915050565b60008135905061098981611093565b92915050565b6000602082840312156109a157600080fd5b60006109af84828501610950565b91505092915050565b6000602082840312156109ca57600080fd5b60006109d884828501610965565b91505092915050565b6000602082840312156109f357600080fd5b6000610a018482850161097a565b91505092915050565b6000610a168383610a3a565b60208301905092915050565b6000610a2e8383610b14565b60208301905092915050565b610a4381610f9b565b82525050565b6000610a5482610ee2565b610a5e8185610f12565b9350610a6983610ec2565b8060005b83811015610a9a578151610a818882610a0a565b9750610a8c83610ef8565b925050600181019050610a6d565b5085935050505092915050565b6000610ab282610eed565b610abc8185610f23565b9350610ac783610ed2565b8060005b83811015610af8578151610adf8882610a22565b9750610aea83610f05565b925050600181019050610acb565b5085935050505092915050565b610b0e81610fad565b82525050565b610b1d81610fb9565b82525050565b610b2c81610fb9565b82525050565b6000610b3f602783610f34565b91507f566f74696e67206d75737420626520636c6f73656420746f206765742074686560008301527f2077696e6e6572000000000000000000000000000000000000000000000000006020830152604082019050919050565b6000610ba5601d83610f34565b91507f416d6f756e74206d7573742062652067726561746572207468616e20300000006000830152602082019050919050565b6000610be5601183610f34565b91507f496e76616c69642063616e6469646174650000000000000000000000000000006000830152602082019050919050565b6000610c25601b83610f34565b91507f4f6e6c79206f776e65722063616e20636c6f736520766f74696e6700000000006000830152602082019050919050565b6000610c65601083610f34565b91507f566f74696e6720697320636c6f736564000000000000000000000000000000006000830152602082019050919050565b6000610ca5602283610f34565b91507f566f74696e67206d75737420626520636c6f73656420746f2067657420766f7460008301527f65730000000000000000000000000000000000000000000000000000000000006020830152604082019050919050565b6000610d0b601683610f34565b91507f596f75206861766520616c726561647920766f746564000000000000000000006000830152602082019050919050565b610d4781610fe3565b82525050565b60006020820190508181036000830152610d678184610a49565b905092915050565b60006020820190508181036000830152610d898184610aa7565b905092915050565b6000602082019050610da66000830184610b05565b92915050565b6000602082019050610dc16000830184610b23565b92915050565b60006020820190508181036000830152610de081610b32565b9050919050565b60006020820190508181036000830152610e0081610b98565b9050919050565b60006020820190508181036000830152610e2081610bd8565b9050919050565b60006020820190508181036000830152610e4081610c18565b9050919050565b60006020820190508181036000830152610e6081610c58565b9050919050565b60006020820190508181036000830152610e8081610c98565b9050919050565b60006020820190508181036000830152610ea081610cfe565b9050919050565b6000602082019050610ebc6000830184610d3e565b92915050565b6000819050602082019050919050565b6000819050602082019050919050565b600081519050919050565b600081519050919050565b6000602082019050919050565b6000602082019050919050565b600082825260208201905092915050565b600082825260208201905092915050565b600082825260208201905092915050565b6000610f5082610fe3565b9150610f5b83610fe3565b9250827fffffffffffffffffffffffffffffffffffffffffffffffffffffffffffffffff03821115610f9057610f8f611036565b5b828201905092915050565b6000610fa682610fc3565b9050919050565b60008115159050919050565b6000819050919050565b600073ffffffffffffffffffffffffffffffffffffffff82169050919050565b6000819050919050565b6000610ff882610fe3565b91507fffffffffffffffffffffffffffffffffffffffffffffffffffffffffffffffff82141561102b5761102a611036565b5b600182019050919050565b7f4e487b7100000000000000000000000000000000000000000000000000000000600052601160045260246000fd5b61106e81610f9b565b811461107957600080fd5b50565b61108581610fb9565b811461109057600080fd5b50565b61109c81610fe3565b81146110a757600080fd5b5056fea2646970667358221220a9b135fea023b84d9472f3fdfa61f02bfc2921e93d1a175969462da44edef02564736f6c63430008000033",
    "immutableReferences": {},
    "source": "// SPDX-License-Identifier: GPL-3.0\r\n\r\npragma solidity ^0.8.0;\r\n\r\ncontract Voting {\r\n    mapping(bytes32 => uint256) private votesReceived;\r\n    mapping(address => bool) private hasVoted;\r\n    mapping(address => uint256) private addressVotedAmount;\r\n    bool public votingOpen;\r\n    address private owner;\r\n    address[] private addressVoted;\r\n    bytes32[] public candidates;\r\n\r\n    constructor(bytes32[] memory _candidates) {\r\n        votingOpen = true;\r\n        owner = msg.sender;\r\n        candidates = _candidates;\r\n    }\r\n\r\n    function vote(bytes32 candidate) public payable {\r\n        require(votingOpen, \"Voting is closed\");\r\n        require(msg.value > 0, \"Amount must be greater than 0\");\r\n        require(!hasVoted[msg.sender], \"You have already voted\");\r\n        require(validateCandidate(candidate), \"Invalid candidate\");\r\n\r\n        votesReceived[candidate] += msg.value;\r\n        addressVotedAmount[msg.sender] += msg.value;\r\n        hasVoted[msg.sender] = true;\r\n        addressVoted.push(msg.sender);\r\n    }\r\n\r\n    function getCandidates() public view returns (bytes32[] memory) {\r\n        return candidates;\r\n    }\r\n\r\n    function validateCandidate(bytes32 candidate) internal view returns (bool) {\r\n        for (uint i = 0; i < candidates.length; i++) {\r\n            if (candidates[i] == candidate) {\r\n                return true;\r\n            }\r\n        }\r\n        return false;\r\n    }\r\n\r\n    function getVotes(bytes32 candidate) public view returns (uint256) {\r\n        require(!votingOpen, \"Voting must be closed to get votes\");\r\n        return votesReceived[candidate];\r\n    }\r\n\r\n    function getWinner() public view returns (bytes32) {\r\n        require(!votingOpen, \"Voting must be closed to get the winner\");\r\n        bytes32 winner;\r\n        uint256 amount = 0;\r\n\r\n        for (uint i = 0; i < candidates.length; i++) {\r\n            if (votesReceived[candidates[i]] > amount) {\r\n                amount = votesReceived[candidates[i]];\r\n                winner = candidates[i];\r\n            }\r\n        }\r\n\r\n        return winner;\r\n    }\r\n\r\n    function closeVoting() public {\r\n        require(msg.sender == owner, \"Only owner can close voting\");\r\n        votingOpen = false;\r\n    }\r\n\r\n    function getAddressVotedAmount(\r\n        address _address\r\n    ) public view returns (uint256) {\r\n        return addressVotedAmount[_address];\r\n    }\r\n\r\n    function getAddressHasVoted() public view returns (address[] memory) {\r\n        return addressVoted;\r\n    }\r\n}\r\n",
    "sourcePath": "C:\\Users\\angma\\OneDrive\\Escritorio\\TFM\\tfm_backend\\contracts\\Voting.sol",
    "compiler": {
        "name": "solc",
        "version": "0.8.0+commit.c7dfd78e.Emscripten.clang"
    },
    "schemaVersion": "3.4.14",
    "updatedAt": "2023-05-20T19:58:46.965Z",
    "networkType": "ethereum",
    "devdoc": {
        "kind": "dev",
        "methods": {},
        "version": 1
    },
    "userdoc": {
        "kind": "user",
        "methods": {},
        "version": 1
    }
}