{
  "contractName": "Voting",
  "abi": [
    {
      "inputs": [
        {
          "internalType": "bytes32[]",
          "name": "_candidates",
          "type": "bytes32[]"
        }
      ],
      "stateMutability": "nonpayable",
      "type": "constructor"
    },
    {
      "anonymous": false,
      "inputs": [
        {
          "indexed": true,
          "internalType": "address",
          "name": "from",
          "type": "address"
        },
        {
          "indexed": true,
          "internalType": "address",
          "name": "to",
          "type": "address"
        },
        {
          "indexed": false,
          "internalType": "uint256",
          "name": "value",
          "type": "uint256"
        }
      ],
      "name": "Transfer",
      "type": "event"
    },
    {
      "inputs": [
        {
          "internalType": "uint256",
          "name": "",
          "type": "uint256"
        }
      ],
      "name": "candidates",
      "outputs": [
        {
          "internalType": "bytes32",
          "name": "",
          "type": "bytes32"
        }
      ],
      "stateMutability": "view",
      "type": "function"
    },
    {
      "inputs": [],
      "name": "votingOpen",
      "outputs": [
        {
          "internalType": "bool",
          "name": "",
          "type": "bool"
        }
      ],
      "stateMutability": "view",
      "type": "function"
    },
    {
      "inputs": [
        {
          "internalType": "bytes32",
          "name": "candidate",
          "type": "bytes32"
        }
      ],
      "name": "vote",
      "outputs": [],
      "stateMutability": "payable",
      "type": "function"
    },
    {
      "inputs": [],
      "name": "getCandidates",
      "outputs": [
        {
          "internalType": "bytes32[]",
          "name": "",
          "type": "bytes32[]"
        }
      ],
      "stateMutability": "view",
      "type": "function"
    },
    {
      "inputs": [
        {
          "internalType": "bytes32",
          "name": "candidate",
          "type": "bytes32"
        }
      ],
      "name": "getVotes",
      "outputs": [
        {
          "internalType": "uint256",
          "name": "",
          "type": "uint256"
        }
      ],
      "stateMutability": "view",
      "type": "function"
    },
    {
      "inputs": [],
      "name": "getWinner",
      "outputs": [
        {
          "internalType": "bytes32",
          "name": "",
          "type": "bytes32"
        }
      ],
      "stateMutability": "view",
      "type": "function"
    },
    {
      "inputs": [],
      "name": "closeVoting",
      "outputs": [],
      "stateMutability": "nonpayable",
      "type": "function"
    },
    {
      "inputs": [
        {
          "internalType": "address",
          "name": "_address",
          "type": "address"
        }
      ],
      "name": "getAddressVotedAmount",
      "outputs": [
        {
          "internalType": "uint256",
          "name": "",
          "type": "uint256"
        }
      ],
      "stateMutability": "view",
      "type": "function"
    },
    {
      "inputs": [],
      "name": "getAddressHasVoted",
      "outputs": [
        {
          "internalType": "address[]",
          "name": "",
          "type": "address[]"
        }
      ],
      "stateMutability": "view",
      "type": "function"
    },
    {
      "inputs": [
        {
          "internalType": "address payable",
          "name": "recipient",
          "type": "address"
        }
      ],
      "name": "transferVotes",
      "outputs": [],
      "stateMutability": "nonpayable",
      "type": "function"
    }
  ],
  "bytecode": "0x60806040523480156200001157600080fd5b5060405162001800380380620018008339818101604052810190620000379190620001dd565b6001600360006101000a81548160ff02191690831515021790555033600360016101000a81548173ffffffffffffffffffffffffffffffffffffffff021916908373ffffffffffffffffffffffffffffffffffffffff1602179055508060059080519060200190620000ab929190620000b3565b5050620002d8565b828054828255906000526020600020908101928215620000f2579160200282015b82811115620000f1578251825591602001919060010190620000d4565b5b50905062000101919062000105565b5090565b5b808211156200012057600081600090555060010162000106565b5090565b60006200013b620001358462000256565b62000222565b905080838252602082019050828560208602820111156200015b57600080fd5b60005b858110156200018f5781620001748882620001c6565b8452602084019350602083019250506001810190506200015e565b5050509392505050565b600082601f830112620001ab57600080fd5b8151620001bd84826020860162000124565b91505092915050565b600081519050620001d781620002be565b92915050565b600060208284031215620001f057600080fd5b600082015167ffffffffffffffff8111156200020b57600080fd5b620002198482850162000199565b91505092915050565b6000604051905081810181811067ffffffffffffffff821117156200024c576200024b6200028f565b5b8060405250919050565b600067ffffffffffffffff8211156200027457620002736200028f565b5b602082029050602081019050919050565b6000819050919050565b7f4e487b7100000000000000000000000000000000000000000000000000000000600052604160045260246000fd5b620002c98162000285565b8114620002d557600080fd5b50565b61151880620002e86000396000f3fe6080604052600436106100915760003560e01c80638e7ea5b2116100595780638e7ea5b2146101a3578063a69beaba146101ce578063a95824b4146101ea578063c208183214610215578063c631b2921461023e57610091565b806306a49fce14610096578063154573cd146100c15780633477ee2e146100fe5780634c0511001461013b57806363d28dea14610178575b600080fd5b3480156100a257600080fd5b506100ab610255565b6040516100b8919061111e565b60405180910390f35b3480156100cd57600080fd5b506100e860048036038101906100e39190610c55565b6102ad565b6040516100f591906112b6565b60405180910390f35b34801561010a57600080fd5b5061012560048036038101906101209190610cd0565b610346565b604051610132919061115b565b60405180910390f35b34801561014757600080fd5b50610162600480360381019061015d9190610ca7565b61036a565b60405161016f91906112b6565b60405180910390f35b34801561018457600080fd5b5061018d6103d6565b60405161019a91906110fc565b60405180910390f35b3480156101af57600080fd5b506101b86104b4565b6040516101c5919061115b565b60405180910390f35b6101e860048036038101906101e39190610ca7565b610638565b005b3480156101f657600080fd5b506101ff6108db565b60405161020c9190611140565b60405180910390f35b34801561022157600080fd5b5061023c60048036038101906102379190610c7e565b6108ee565b005b34801561024a57600080fd5b50610253610a83565b005b606060058054806020026020016040519081016040528092919081815260200182805480156102a357602002820191906000526020600020905b81548152602001906001019080831161028f575b5050505050905090565b6000600360009054906101000a900460ff16156102ff576040517f08c379a00000000000000000000000000000000000000000000000000000000081526004016102f690611216565b60405180910390fd5b600260008373ffffffffffffffffffffffffffffffffffffffff1673ffffffffffffffffffffffffffffffffffffffff168152602001908152602001600020549050919050565b6005818154811061035657600080fd5b906000526020600020016000915090505481565b6000600360009054906101000a900460ff16156103bc576040517f08c379a00000000000000000000000000000000000000000000000000000000081526004016103b390611276565b60405180910390fd5b600080838152602001908152602001600020549050919050565b6060600360009054906101000a900460ff1615610428576040517f08c379a000000000000000000000000000000000000000000000000000000000815260040161041f90611216565b60405180910390fd5b60048054806020026020016040519081016040528092919081815260200182805480156104aa57602002820191906000526020600020905b8160009054906101000a900473ffffffffffffffffffffffffffffffffffffffff1673ffffffffffffffffffffffffffffffffffffffff1681526020019060010190808311610460575b5050505050905090565b6000600360009054906101000a900460ff1615610506576040517f08c379a00000000000000000000000000000000000000000000000000000000081526004016104fd90611196565b60405180910390fd5b6000806000905060005b60058054905081101561062f57816000806005848154811061055b577f4e487b7100000000000000000000000000000000000000000000000000000000600052603260045260246000fd5b9060005260206000200154815260200190815260200160002054111561061c57600080600583815481106105b8577f4e487b7100000000000000000000000000000000000000000000000000000000600052603260045260246000fd5b906000526020600020015481526020019081526020016000205491506005818154811061060e577f4e487b7100000000000000000000000000000000000000000000000000000000600052603260045260246000fd5b906000526020600020015492505b80806106279061140e565b915050610510565b50819250505090565b600360009054906101000a900460ff16610687576040517f08c379a000000000000000000000000000000000000000000000000000000000815260040161067e90611256565b60405180910390fd5b600034116106ca576040517f08c379a00000000000000000000000000000000000000000000000000000000081526004016106c1906111b6565b60405180910390fd5b600160003373ffffffffffffffffffffffffffffffffffffffff1673ffffffffffffffffffffffffffffffffffffffff16815260200190815260200160002060009054906101000a900460ff1615610757576040517f08c379a000000000000000000000000000000000000000000000000000000000815260040161074e90611296565b60405180910390fd5b61076081610b78565b61079f576040517f08c379a0000000000000000000000000000000000000000000000000000000008152600401610796906111d6565b60405180910390fd5b3460008083815260200190815260200160002060008282546107c19190611354565b9250508190555034600260003373ffffffffffffffffffffffffffffffffffffffff1673ffffffffffffffffffffffffffffffffffffffff16815260200190815260200160002060008282546108179190611354565b9250508190555060018060003373ffffffffffffffffffffffffffffffffffffffff1673ffffffffffffffffffffffffffffffffffffffff16815260200190815260200160002060006101000a81548160ff0219169083151502179055506004339080600181540180825580915050600190039060005260206000200160009091909190916101000a81548173ffffffffffffffffffffffffffffffffffffffff021916908373ffffffffffffffffffffffffffffffffffffffff16021790555050565b600360009054906101000a900460ff1681565b600360009054906101000a900460ff161561093e576040517f08c379a000000000000000000000000000000000000000000000000000000000815260040161093590611216565b60405180910390fd5b600360019054906101000a900473ffffffffffffffffffffffffffffffffffffffff1673ffffffffffffffffffffffffffffffffffffffff163373ffffffffffffffffffffffffffffffffffffffff16146109ce576040517f08c379a00000000000000000000000000000000000000000000000000000000081526004016109c5906111f6565b60405180910390fd5b60004790508173ffffffffffffffffffffffffffffffffffffffff166108fc829081150290604051600060405180830381858888f19350505050158015610a19573d6000803e3d6000fd5b508173ffffffffffffffffffffffffffffffffffffffff163373ffffffffffffffffffffffffffffffffffffffff167fddf252ad1be2c89b69c2b068fc378daa952ba7f163c4a11628f55a4df523b3ef83604051610a7791906112b6565b60405180910390a35050565b600360019054906101000a900473ffffffffffffffffffffffffffffffffffffffff1673ffffffffffffffffffffffffffffffffffffffff163373ffffffffffffffffffffffffffffffffffffffff1614610b13576040517f08c379a0000000000000000000000000000000000000000000000000000000008152600401610b0a90611236565b60405180910390fd5b600060048054905011610b5b576040517f08c379a0000000000000000000000000000000000000000000000000000000008152600401610b5290611176565b60405180910390fd5b6000600360006101000a81548160ff021916908315150217905550565b600080600090505b600580549050811015610bf6578260058281548110610bc8577f4e487b7100000000000000000000000000000000000000000000000000000000600052603260045260246000fd5b90600052602060002001541415610be3576001915050610bfc565b8080610bee9061140e565b915050610b80565b50600090505b919050565b600081359050610c1081611486565b92915050565b600081359050610c258161149d565b92915050565b600081359050610c3a816114b4565b92915050565b600081359050610c4f816114cb565b92915050565b600060208284031215610c6757600080fd5b6000610c7584828501610c01565b91505092915050565b600060208284031215610c9057600080fd5b6000610c9e84828501610c16565b91505092915050565b600060208284031215610cb957600080fd5b6000610cc784828501610c2b565b91505092915050565b600060208284031215610ce257600080fd5b6000610cf084828501610c40565b91505092915050565b6000610d058383610d29565b60208301905092915050565b6000610d1d8383610e03565b60208301905092915050565b610d32816113aa565b82525050565b6000610d43826112f1565b610d4d8185611321565b9350610d58836112d1565b8060005b83811015610d89578151610d708882610cf9565b9750610d7b83611307565b925050600181019050610d5c565b5085935050505092915050565b6000610da1826112fc565b610dab8185611332565b9350610db6836112e1565b8060005b83811015610de7578151610dce8882610d11565b9750610dd983611314565b925050600181019050610dba565b5085935050505092915050565b610dfd816113ce565b82525050565b610e0c816113da565b82525050565b610e1b816113da565b82525050565b6000610e2e601883611343565b91507f536f6d656f6e65206d757374206861766520766f7465642e00000000000000006000830152602082019050919050565b6000610e6e602783611343565b91507f566f74696e67206d75737420626520636c6f73656420746f206765742074686560008301527f2077696e6e6572000000000000000000000000000000000000000000000000006020830152604082019050919050565b6000610ed4601d83611343565b91507f416d6f756e74206d7573742062652067726561746572207468616e20300000006000830152602082019050919050565b6000610f14601183611343565b91507f496e76616c69642063616e6469646174650000000000000000000000000000006000830152602082019050919050565b6000610f54601d83611343565b91507f4f6e6c79206f776e65722063616e207472616e7366657220766f7465730000006000830152602082019050919050565b6000610f94601583611343565b91507f566f74696e67206d75737420626520636c6f73656400000000000000000000006000830152602082019050919050565b6000610fd4601b83611343565b91507f4f6e6c79206f776e65722063616e20636c6f736520766f74696e6700000000006000830152602082019050919050565b6000611014601083611343565b91507f566f74696e6720697320636c6f736564000000000000000000000000000000006000830152602082019050919050565b6000611054602283611343565b91507f566f74696e67206d75737420626520636c6f73656420746f2067657420766f7460008301527f65730000000000000000000000000000000000000000000000000000000000006020830152604082019050919050565b60006110ba601683611343565b91507f596f75206861766520616c726561647920766f746564000000000000000000006000830152602082019050919050565b6110f681611404565b82525050565b600060208201905081810360008301526111168184610d38565b905092915050565b600060208201905081810360008301526111388184610d96565b905092915050565b60006020820190506111556000830184610df4565b92915050565b60006020820190506111706000830184610e12565b92915050565b6000602082019050818103600083015261118f81610e21565b9050919050565b600060208201905081810360008301526111af81610e61565b9050919050565b600060208201905081810360008301526111cf81610ec7565b9050919050565b600060208201905081810360008301526111ef81610f07565b9050919050565b6000602082019050818103600083015261120f81610f47565b9050919050565b6000602082019050818103600083015261122f81610f87565b9050919050565b6000602082019050818103600083015261124f81610fc7565b9050919050565b6000602082019050818103600083015261126f81611007565b9050919050565b6000602082019050818103600083015261128f81611047565b9050919050565b600060208201905081810360008301526112af816110ad565b9050919050565b60006020820190506112cb60008301846110ed565b92915050565b6000819050602082019050919050565b6000819050602082019050919050565b600081519050919050565b600081519050919050565b6000602082019050919050565b6000602082019050919050565b600082825260208201905092915050565b600082825260208201905092915050565b600082825260208201905092915050565b600061135f82611404565b915061136a83611404565b9250827fffffffffffffffffffffffffffffffffffffffffffffffffffffffffffffffff0382111561139f5761139e611457565b5b828201905092915050565b60006113b5826113e4565b9050919050565b60006113c7826113e4565b9050919050565b60008115159050919050565b6000819050919050565b600073ffffffffffffffffffffffffffffffffffffffff82169050919050565b6000819050919050565b600061141982611404565b91507fffffffffffffffffffffffffffffffffffffffffffffffffffffffffffffffff82141561144c5761144b611457565b5b600182019050919050565b7f4e487b7100000000000000000000000000000000000000000000000000000000600052601160045260246000fd5b61148f816113aa565b811461149a57600080fd5b50565b6114a6816113bc565b81146114b157600080fd5b50565b6114bd816113da565b81146114c857600080fd5b50565b6114d481611404565b81146114df57600080fd5b5056fea2646970667358221220998fe827cb248dc9bbd3524e101c46f718c796c48e51971cd74f584021b8d1c464736f6c63430008000033",
  "immutableReferences": {},
  "source": "// SPDX-License-Identifier: GPL-3.0\r\n\r\npragma solidity ^0.8.0;\r\n\r\ncontract Voting {\r\n    mapping(bytes32 => uint256) private votesReceived;\r\n    mapping(address => bool) private hasVoted;\r\n    mapping(address => uint256) private addressVotedAmount;\r\n    bool public votingOpen;\r\n    address private owner;\r\n    address[] private addressVoted;\r\n    bytes32[] public candidates;\r\n\r\n    constructor(bytes32[] memory _candidates) {\r\n        votingOpen = true;\r\n        owner = msg.sender;\r\n        candidates = _candidates;\r\n    }\r\n\r\n    function vote(bytes32 candidate) public payable {\r\n        require(votingOpen, \"Voting is closed\");\r\n        require(msg.value > 0, \"Amount must be greater than 0\");\r\n        require(!hasVoted[msg.sender], \"You have already voted\");\r\n        require(validateCandidate(candidate), \"Invalid candidate\");\r\n\r\n        votesReceived[candidate] += msg.value;\r\n        addressVotedAmount[msg.sender] += msg.value;\r\n        hasVoted[msg.sender] = true;\r\n        addressVoted.push(msg.sender);\r\n    }\r\n\r\n    function getCandidates() public view returns (bytes32[] memory) {\r\n        return candidates;\r\n    }\r\n\r\n    function validateCandidate(bytes32 candidate) internal view returns (bool) {\r\n        for (uint i = 0; i < candidates.length; i++) {\r\n            if (candidates[i] == candidate) {\r\n                return true;\r\n            }\r\n        }\r\n        return false;\r\n    }\r\n\r\n    function getVotes(bytes32 candidate) public view returns (uint256) {\r\n        require(!votingOpen, \"Voting must be closed to get votes\");\r\n        return votesReceived[candidate];\r\n    }\r\n\r\n    function getWinner() public view returns (bytes32) {\r\n        require(!votingOpen, \"Voting must be closed to get the winner\");\r\n        bytes32 winner;\r\n        uint256 amount = 0;\r\n\r\n        for (uint i = 0; i < candidates.length; i++) {\r\n            if (votesReceived[candidates[i]] > amount) {\r\n                amount = votesReceived[candidates[i]];\r\n                winner = candidates[i];\r\n            }\r\n        }\r\n\r\n        return winner;\r\n    }\r\n\r\n    function closeVoting() public {\r\n        require(msg.sender == owner, \"Only owner can close voting\");\r\n        require(addressVoted.length > 0, \"Someone must have voted.\");\r\n        votingOpen = false;\r\n    }\r\n\r\n    function getAddressVotedAmount(\r\n        address _address\r\n    ) public view returns (uint256) {\r\n        require(!votingOpen, \"Voting must be closed\");\r\n        return addressVotedAmount[_address];\r\n    }\r\n\r\n    function getAddressHasVoted() public view returns (address[] memory) {\r\n        require(!votingOpen, \"Voting must be closed\");\r\n        return addressVoted;\r\n    }\r\n\r\n    event Transfer(address indexed from, address indexed to, uint256 value);\r\n\r\n    function transferVotes(address payable recipient) external {\r\n        require(!votingOpen, \"Voting must be closed\");\r\n        require(msg.sender == owner, \"Only owner can transfer votes\");\r\n        uint256 balance = address(this).balance;\r\n        recipient.transfer(balance);\r\n\r\n        emit Transfer(msg.sender, recipient, balance);\r\n    }\r\n}\r\n",
  "sourcePath": "C:\\Users\\angma\\OneDrive\\Escritorio\\TFM\\tfm_backend\\contracts\\Voting.sol",
  "compiler": {
    "name": "solc",
    "version": "0.8.0+commit.c7dfd78e.Emscripten.clang"
  },
  "schemaVersion": "3.4.14",
  "updatedAt": "2023-05-27T19:36:18.423Z",
  "devdoc": {
    "kind": "dev",
    "methods": {},
    "version": 1
  },
  "userdoc": {
    "kind": "user",
    "methods": {},
    "version": 1
  }
}