{
  "contractName": "Voting",
  "abi": [
    {
      "inputs": [
        {
          "internalType": "bytes32[]",
          "name": "_candidates",
          "type": "bytes32[]"
        }
      ],
      "stateMutability": "nonpayable",
      "type": "constructor"
    },
    {
      "inputs": [
        {
          "internalType": "uint256",
          "name": "",
          "type": "uint256"
        }
      ],
      "name": "candidates",
      "outputs": [
        {
          "internalType": "bytes32",
          "name": "",
          "type": "bytes32"
        }
      ],
      "stateMutability": "view",
      "type": "function"
    },
    {
      "inputs": [],
      "name": "votingOpen",
      "outputs": [
        {
          "internalType": "bool",
          "name": "",
          "type": "bool"
        }
      ],
      "stateMutability": "view",
      "type": "function"
    },
    {
      "inputs": [
        {
          "internalType": "bytes32",
          "name": "candidate",
          "type": "bytes32"
        },
        {
          "internalType": "uint256",
          "name": "amount",
          "type": "uint256"
        }
      ],
      "name": "vote",
      "outputs": [],
      "stateMutability": "payable",
      "type": "function"
    },
    {
      "inputs": [],
      "name": "getCandidates",
      "outputs": [
        {
          "internalType": "bytes32[]",
          "name": "",
          "type": "bytes32[]"
        }
      ],
      "stateMutability": "view",
      "type": "function"
    },
    {
      "inputs": [
        {
          "internalType": "bytes32",
          "name": "candidate",
          "type": "bytes32"
        }
      ],
      "name": "getVotes",
      "outputs": [
        {
          "internalType": "uint256",
          "name": "",
          "type": "uint256"
        }
      ],
      "stateMutability": "view",
      "type": "function"
    },
    {
      "inputs": [],
      "name": "getWinner",
      "outputs": [
        {
          "internalType": "bytes32",
          "name": "",
          "type": "bytes32"
        }
      ],
      "stateMutability": "view",
      "type": "function"
    },
    {
      "inputs": [],
      "name": "closeVoting",
      "outputs": [],
      "stateMutability": "nonpayable",
      "type": "function"
    },
    {
      "inputs": [
        {
          "internalType": "address",
          "name": "_address",
          "type": "address"
        }
      ],
      "name": "getAddressVotedAmount",
      "outputs": [
        {
          "internalType": "uint256",
          "name": "",
          "type": "uint256"
        }
      ],
      "stateMutability": "view",
      "type": "function"
    },
    {
      "inputs": [],
      "name": "getAddressHasVoted",
      "outputs": [
        {
          "internalType": "address[]",
          "name": "",
          "type": "address[]"
        }
      ],
      "stateMutability": "view",
      "type": "function"
    }
  ],
  "bytecode": "0x60806040523480156200001157600080fd5b5060405162001686380380620016868339818101604052810190620000379190620002e8565b6001600360006101000a81548160ff02191690831515021790555033600360016101000a81548173ffffffffffffffffffffffffffffffffffffffff021916908373ffffffffffffffffffffffffffffffffffffffff1602179055508060059080519060200190620000ab929190620000b3565b505062000339565b828054828255906000526020600020908101928215620000f2579160200282015b82811115620000f1578251825591602001919060010190620000d4565b5b50905062000101919062000105565b5090565b5b808211156200012057600081600090555060010162000106565b5090565b6000604051905090565b600080fd5b600080fd5b600080fd5b6000601f19601f8301169050919050565b7f4e487b7100000000000000000000000000000000000000000000000000000000600052604160045260246000fd5b62000188826200013d565b810181811067ffffffffffffffff82111715620001aa57620001a96200014e565b5b80604052505050565b6000620001bf62000124565b9050620001cd82826200017d565b919050565b600067ffffffffffffffff821115620001f057620001ef6200014e565b5b602082029050602081019050919050565b600080fd5b6000819050919050565b6200021b8162000206565b81146200022757600080fd5b50565b6000815190506200023b8162000210565b92915050565b6000620002586200025284620001d2565b620001b3565b905080838252602082019050602084028301858111156200027e576200027d62000201565b5b835b81811015620002ab57806200029688826200022a565b84526020840193505060208101905062000280565b5050509392505050565b600082601f830112620002cd57620002cc62000138565b5b8151620002df84826020860162000241565b91505092915050565b6000602082840312156200030157620003006200012e565b5b600082015167ffffffffffffffff81111562000322576200032162000133565b5b6200033084828501620002b5565b91505092915050565b61133d80620003496000396000f3fe6080604052600436106100865760003560e01c806363d28dea1161005957806363d28dea1461016d5780638e7ea5b2146101985780639ef1204c146101c3578063a95824b4146101df578063c631b2921461020a57610086565b806306a49fce1461008b578063154573cd146100b65780633477ee2e146100f35780634c05110014610130575b600080fd5b34801561009757600080fd5b506100a0610221565b6040516100ad9190610aa0565b60405180910390f35b3480156100c257600080fd5b506100dd60048036038101906100d89190610b25565b610279565b6040516100ea9190610b6b565b60405180910390f35b3480156100ff57600080fd5b5061011a60048036038101906101159190610bb2565b610352565b6040516101279190610bee565b60405180910390f35b34801561013c57600080fd5b5061015760048036038101906101529190610c35565b610376565b6040516101649190610b6b565b60405180910390f35b34801561017957600080fd5b506101826103e2565b60405161018f9190610d20565b60405180910390f35b3480156101a457600080fd5b506101ad610500565b6040516101ba9190610bee565b60405180910390f35b6101dd60048036038101906101d89190610d42565b610612565b005b3480156101eb57600080fd5b506101f46108b6565b6040516102019190610d9d565b60405180910390f35b34801561021657600080fd5b5061021f6108c9565b005b6060600580548060200260200160405190810160405280929190818152602001828054801561026f57602002820191906000526020600020905b81548152602001906001019080831161025b575b5050505050905090565b6000600360019054906101000a900473ffffffffffffffffffffffffffffffffffffffff1673ffffffffffffffffffffffffffffffffffffffff163373ffffffffffffffffffffffffffffffffffffffff161461030b576040517f08c379a000000000000000000000000000000000000000000000000000000000815260040161030290610e3b565b60405180910390fd5b600260008373ffffffffffffffffffffffffffffffffffffffff1673ffffffffffffffffffffffffffffffffffffffff168152602001908152602001600020549050919050565b6005818154811061036257600080fd5b906000526020600020016000915090505481565b6000600360009054906101000a900460ff16156103c8576040517f08c379a00000000000000000000000000000000000000000000000000000000081526004016103bf90610ecd565b60405180910390fd5b600080838152602001908152602001600020549050919050565b6060600360019054906101000a900473ffffffffffffffffffffffffffffffffffffffff1673ffffffffffffffffffffffffffffffffffffffff163373ffffffffffffffffffffffffffffffffffffffff1614610474576040517f08c379a000000000000000000000000000000000000000000000000000000000815260040161046b90610f5f565b60405180910390fd5b60048054806020026020016040519081016040528092919081815260200182805480156104f657602002820191906000526020600020905b8160009054906101000a900473ffffffffffffffffffffffffffffffffffffffff1673ffffffffffffffffffffffffffffffffffffffff16815260200190600101908083116104ac575b5050505050905090565b6000600360009054906101000a900460ff1615610552576040517f08c379a000000000000000000000000000000000000000000000000000000000815260040161054990610ff1565b60405180910390fd5b6000806000905060005b60058054905081101561060957816000806005848154811061058157610580611011565b5b906000526020600020015481526020019081526020016000205411156105f657600080600583815481106105b8576105b7611011565b5b90600052602060002001548152602001908152602001600020549150600581815481106105e8576105e7611011565b5b906000526020600020015492505b80806106019061106f565b91505061055c565b50819250505090565b600360009054906101000a900460ff16610661576040517f08c379a000000000000000000000000000000000000000000000000000000000815260040161065890611103565b60405180910390fd5b600081116106a4576040517f08c379a000000000000000000000000000000000000000000000000000000000815260040161069b9061116f565b60405180910390fd5b600160003373ffffffffffffffffffffffffffffffffffffffff1673ffffffffffffffffffffffffffffffffffffffff16815260200190815260200160002060009054906101000a900460ff1615610731576040517f08c379a0000000000000000000000000000000000000000000000000000000008152600401610728906111db565b60405180910390fd5b61073a82610976565b610779576040517f08c379a000000000000000000000000000000000000000000000000000000000815260040161077090611247565b60405180910390fd5b80600080848152602001908152602001600020600082825461079b9190611267565b9250508190555080600260003373ffffffffffffffffffffffffffffffffffffffff1673ffffffffffffffffffffffffffffffffffffffff16815260200190815260200160002060008282546107f19190611267565b9250508190555060018060003373ffffffffffffffffffffffffffffffffffffffff1673ffffffffffffffffffffffffffffffffffffffff16815260200190815260200160002060006101000a81548160ff0219169083151502179055506004339080600181540180825580915050600190039060005260206000200160009091909190916101000a81548173ffffffffffffffffffffffffffffffffffffffff021916908373ffffffffffffffffffffffffffffffffffffffff1602179055505050565b600360009054906101000a900460ff1681565b600360019054906101000a900473ffffffffffffffffffffffffffffffffffffffff1673ffffffffffffffffffffffffffffffffffffffff163373ffffffffffffffffffffffffffffffffffffffff1614610959576040517f08c379a0000000000000000000000000000000000000000000000000000000008152600401610950906112e7565b60405180910390fd5b6000600360006101000a81548160ff021916908315150217905550565b600080600090505b6005805490508110156109cd5782600582815481106109a05761099f611011565b5b9060005260206000200154036109ba5760019150506109d3565b80806109c59061106f565b91505061097e565b50600090505b919050565b600081519050919050565b600082825260208201905092915050565b6000819050602082019050919050565b6000819050919050565b610a1781610a04565b82525050565b6000610a298383610a0e565b60208301905092915050565b6000602082019050919050565b6000610a4d826109d8565b610a5781856109e3565b9350610a62836109f4565b8060005b83811015610a93578151610a7a8882610a1d565b9750610a8583610a35565b925050600181019050610a66565b5085935050505092915050565b60006020820190508181036000830152610aba8184610a42565b905092915050565b600080fd5b600073ffffffffffffffffffffffffffffffffffffffff82169050919050565b6000610af282610ac7565b9050919050565b610b0281610ae7565b8114610b0d57600080fd5b50565b600081359050610b1f81610af9565b92915050565b600060208284031215610b3b57610b3a610ac2565b5b6000610b4984828501610b10565b91505092915050565b6000819050919050565b610b6581610b52565b82525050565b6000602082019050610b806000830184610b5c565b92915050565b610b8f81610b52565b8114610b9a57600080fd5b50565b600081359050610bac81610b86565b92915050565b600060208284031215610bc857610bc7610ac2565b5b6000610bd684828501610b9d565b91505092915050565b610be881610a04565b82525050565b6000602082019050610c036000830184610bdf565b92915050565b610c1281610a04565b8114610c1d57600080fd5b50565b600081359050610c2f81610c09565b92915050565b600060208284031215610c4b57610c4a610ac2565b5b6000610c5984828501610c20565b91505092915050565b600081519050919050565b600082825260208201905092915050565b6000819050602082019050919050565b610c9781610ae7565b82525050565b6000610ca98383610c8e565b60208301905092915050565b6000602082019050919050565b6000610ccd82610c62565b610cd78185610c6d565b9350610ce283610c7e565b8060005b83811015610d13578151610cfa8882610c9d565b9750610d0583610cb5565b925050600181019050610ce6565b5085935050505092915050565b60006020820190508181036000830152610d3a8184610cc2565b905092915050565b60008060408385031215610d5957610d58610ac2565b5b6000610d6785828601610c20565b9250506020610d7885828601610b9d565b9150509250929050565b60008115159050919050565b610d9781610d82565b82525050565b6000602082019050610db26000830184610d8e565b92915050565b600082825260208201905092915050565b7f4f6e6c79206f776e65722063616e206765742074686520616d6f756e7420612060008201527f616464726573732068617320766f746564000000000000000000000000000000602082015250565b6000610e25603183610db8565b9150610e3082610dc9565b604082019050919050565b60006020820190508181036000830152610e5481610e18565b9050919050565b7f566f74696e67206d75737420626520636c6f73656420746f2067657420766f7460008201527f6573000000000000000000000000000000000000000000000000000000000000602082015250565b6000610eb7602283610db8565b9150610ec282610e5b565b604082019050919050565b60006020820190508181036000830152610ee681610eaa565b9050919050565b7f4f6e6c79206f776e65722063616e20676574207468652061646472657373206860008201527f617320766f746564000000000000000000000000000000000000000000000000602082015250565b6000610f49602883610db8565b9150610f5482610eed565b604082019050919050565b60006020820190508181036000830152610f7881610f3c565b9050919050565b7f566f74696e67206d75737420626520636c6f73656420746f206765742074686560008201527f2077696e6e657200000000000000000000000000000000000000000000000000602082015250565b6000610fdb602783610db8565b9150610fe682610f7f565b604082019050919050565b6000602082019050818103600083015261100a81610fce565b9050919050565b7f4e487b7100000000000000000000000000000000000000000000000000000000600052603260045260246000fd5b7f4e487b7100000000000000000000000000000000000000000000000000000000600052601160045260246000fd5b600061107a82610b52565b91507fffffffffffffffffffffffffffffffffffffffffffffffffffffffffffffffff82036110ac576110ab611040565b5b600182019050919050565b7f566f74696e6720697320636c6f73656400000000000000000000000000000000600082015250565b60006110ed601083610db8565b91506110f8826110b7565b602082019050919050565b6000602082019050818103600083015261111c816110e0565b9050919050565b7f416d6f756e74206d7573742062652067726561746572207468616e2030000000600082015250565b6000611159601d83610db8565b915061116482611123565b602082019050919050565b600060208201905081810360008301526111888161114c565b9050919050565b7f596f75206861766520616c726561647920766f74656400000000000000000000600082015250565b60006111c5601683610db8565b91506111d08261118f565b602082019050919050565b600060208201905081810360008301526111f4816111b8565b9050919050565b7f496e76616c69642063616e646964617465000000000000000000000000000000600082015250565b6000611231601183610db8565b915061123c826111fb565b602082019050919050565b6000602082019050818103600083015261126081611224565b9050919050565b600061127282610b52565b915061127d83610b52565b925082820190508082111561129557611294611040565b5b92915050565b7f4f6e6c79206f776e65722063616e20636c6f736520766f74696e670000000000600082015250565b60006112d1601b83610db8565b91506112dc8261129b565b602082019050919050565b60006020820190508181036000830152611300816112c4565b905091905056fea2646970667358221220539dae188e9d9c5b23cc30e6e141f2d6d0a7f7da0c2f56c254d24e71ab7d3c6264736f6c63430008130033",
  "immutableReferences": {},
  "source": "// SPDX-License-Identifier: GPL-3.0\r\n\r\npragma solidity ^0.8.0;\r\n\r\ncontract Voting {\r\n    mapping(bytes32 => uint256) private votesReceived;\r\n    mapping(address => bool) private hasVoted;\r\n    mapping(address => uint256) private addressVotedAmount;\r\n    bool public votingOpen;\r\n    address private owner;\r\n    address[] private addressVoted;\r\n    bytes32[] public candidates;\r\n\r\n    constructor(bytes32[] memory _candidates) {\r\n        votingOpen = true;\r\n        owner = msg.sender;\r\n        candidates = _candidates;\r\n    }\r\n\r\n    function vote(bytes32 candidate, uint256 amount) public payable {\r\n        require(votingOpen, \"Voting is closed\");\r\n        require(amount > 0, \"Amount must be greater than 0\");\r\n        require(!hasVoted[msg.sender], \"You have already voted\");\r\n        require(validateCandidate(candidate), \"Invalid candidate\");\r\n\r\n        votesReceived[candidate] += amount;\r\n        addressVotedAmount[msg.sender] += amount;\r\n        hasVoted[msg.sender] = true;\r\n        addressVoted.push(msg.sender);\r\n    }\r\n\r\n    function getCandidates() public view returns (bytes32[] memory) {\r\n        return candidates;\r\n    }\r\n\r\n    function validateCandidate(bytes32 candidate) internal view returns (bool) {\r\n        for (uint i = 0; i < candidates.length; i++) {\r\n            if (candidates[i] == candidate) {\r\n                return true;\r\n            }\r\n        }\r\n        return false;\r\n    }\r\n\r\n    function getVotes(bytes32 candidate) public view returns (uint256) {\r\n        require(!votingOpen, \"Voting must be closed to get votes\");\r\n        return votesReceived[candidate];\r\n    }\r\n\r\n    function getWinner() public view returns (bytes32) {\r\n        require(!votingOpen, \"Voting must be closed to get the winner\");\r\n        bytes32 winner;\r\n        uint256 amount = 0;\r\n\r\n        for (uint i = 0; i < candidates.length; i++) {\r\n            if (votesReceived[candidates[i]] > amount) {\r\n                amount = votesReceived[candidates[i]];\r\n                winner = candidates[i];\r\n            }\r\n        }\r\n\r\n        return winner;\r\n    }\r\n\r\n    function closeVoting() public {\r\n        require(msg.sender == owner, \"Only owner can close voting\");\r\n        votingOpen = false;\r\n    }\r\n\r\n    function getAddressVotedAmount(\r\n        address _address\r\n    ) public view returns (uint256) {\r\n        require(\r\n            msg.sender == owner,\r\n            \"Only owner can get the amount a address has voted\"\r\n        );\r\n        return addressVotedAmount[_address];\r\n    }\r\n\r\n    function getAddressHasVoted() public view returns (address[] memory) {\r\n        require(\r\n            msg.sender == owner,\r\n            \"Only owner can get the address has voted\"\r\n        );\r\n\r\n        return addressVoted;\r\n    }\r\n}\r\n",
  "sourcePath": "C:\\Users\\angma\\OneDrive\\Escritorio\\TFM\\tfm_backend\\contracts\\Voting.sol",
  "compiler": {
    "name": "solc",
    "version": "0.8.19+commit.7dd6d404.Emscripten.clang"
  },
  "schemaVersion": "3.4.13",
  "updatedAt": "2023-04-30T16:29:20.838Z",
  "devdoc": {
    "kind": "dev",
    "methods": {},
    "version": 1
  },
  "userdoc": {
    "kind": "user",
    "methods": {},
    "version": 1
  }
}